{
  "_format": "hh-sol-artifact-1",
  "contractName": "MessageProxyForSchain",
  "sourceName": "contracts/schain/MessageProxyForSchain.sol",
  "abi": [
    {
      "anonymous": false,
      "inputs": [
        {
          "indexed": true,
          "internalType": "bytes32",
          "name": "chainHash",
          "type": "bytes32"
        },
        {
          "indexed": false,
          "internalType": "address",
          "name": "contractAddress",
          "type": "address"
        }
      ],
      "name": "ExtraContractRegistered",
      "type": "event"
    },
    {
      "anonymous": false,
      "inputs": [
        {
          "indexed": true,
          "internalType": "bytes32",
          "name": "chainHash",
          "type": "bytes32"
        },
        {
          "indexed": false,
          "internalType": "address",
          "name": "contractAddress",
          "type": "address"
        }
      ],
      "name": "ExtraContractRemoved",
      "type": "event"
    },
    {
      "anonymous": false,
      "inputs": [
        {
          "indexed": false,
          "internalType": "uint256",
          "name": "oldValue",
          "type": "uint256"
        },
        {
          "indexed": false,
          "internalType": "uint256",
          "name": "newValue",
          "type": "uint256"
        }
      ],
      "name": "GasLimitWasChanged",
      "type": "event"
    },
    {
      "anonymous": false,
      "inputs": [
        {
          "indexed": false,
          "internalType": "uint8",
          "name": "version",
          "type": "uint8"
        }
      ],
      "name": "Initialized",
      "type": "event"
    },
    {
      "anonymous": false,
      "inputs": [
        {
          "indexed": true,
          "internalType": "bytes32",
          "name": "dstChainHash",
          "type": "bytes32"
        },
        {
          "indexed": true,
          "internalType": "uint256",
          "name": "msgCounter",
          "type": "uint256"
        },
        {
          "indexed": true,
          "internalType": "address",
          "name": "srcContract",
          "type": "address"
        },
        {
          "indexed": false,
          "internalType": "address",
          "name": "dstContract",
          "type": "address"
        },
        {
          "indexed": false,
          "internalType": "bytes",
          "name": "data",
          "type": "bytes"
        }
      ],
      "name": "OutgoingMessage",
      "type": "event"
    },
    {
      "anonymous": false,
      "inputs": [
        {
          "indexed": true,
          "internalType": "uint256",
          "name": "msgCounter",
          "type": "uint256"
        },
        {
          "indexed": false,
          "internalType": "bytes",
          "name": "message",
          "type": "bytes"
        }
      ],
      "name": "PostMessageError",
      "type": "event"
    },
    {
      "anonymous": false,
      "inputs": [
        {
          "indexed": true,
          "internalType": "bytes32",
          "name": "role",
          "type": "bytes32"
        },
        {
          "indexed": true,
          "internalType": "bytes32",
          "name": "previousAdminRole",
          "type": "bytes32"
        },
        {
          "indexed": true,
          "internalType": "bytes32",
          "name": "newAdminRole",
          "type": "bytes32"
        }
      ],
      "name": "RoleAdminChanged",
      "type": "event"
    },
    {
      "anonymous": false,
      "inputs": [
        {
          "indexed": true,
          "internalType": "bytes32",
          "name": "role",
          "type": "bytes32"
        },
        {
          "indexed": true,
          "internalType": "address",
          "name": "account",
          "type": "address"
        },
        {
          "indexed": true,
          "internalType": "address",
          "name": "sender",
          "type": "address"
        }
      ],
      "name": "RoleGranted",
      "type": "event"
    },
    {
      "anonymous": false,
      "inputs": [
        {
          "indexed": true,
          "internalType": "bytes32",
          "name": "role",
          "type": "bytes32"
        },
        {
          "indexed": true,
          "internalType": "address",
          "name": "account",
          "type": "address"
        },
        {
          "indexed": true,
          "internalType": "address",
          "name": "sender",
          "type": "address"
        }
      ],
      "name": "RoleRevoked",
      "type": "event"
    },
    {
      "anonymous": false,
      "inputs": [
        {
          "indexed": false,
          "internalType": "string",
          "name": "oldVersion",
          "type": "string"
        },
        {
          "indexed": false,
          "internalType": "string",
          "name": "newVersion",
          "type": "string"
        }
      ],
      "name": "VersionUpdated",
      "type": "event"
    },
    {
      "inputs": [],
      "name": "CHAIN_CONNECTOR_ROLE",
      "outputs": [
        {
          "internalType": "bytes32",
          "name": "",
          "type": "bytes32"
        }
      ],
      "stateMutability": "view",
      "type": "function"
    },
    {
      "inputs": [],
      "name": "CONSTANT_SETTER_ROLE",
      "outputs": [
        {
          "internalType": "bytes32",
          "name": "",
          "type": "bytes32"
        }
      ],
      "stateMutability": "view",
      "type": "function"
    },
    {
      "inputs": [],
      "name": "DEFAULT_ADMIN_ROLE",
      "outputs": [
        {
          "internalType": "bytes32",
          "name": "",
          "type": "bytes32"
        }
      ],
      "stateMutability": "view",
      "type": "function"
    },
    {
      "inputs": [],
      "name": "ETHERBASE",
      "outputs": [
        {
          "internalType": "contract IEtherbaseUpgradeable",
          "name": "",
          "type": "address"
        }
      ],
      "stateMutability": "view",
      "type": "function"
    },
    {
      "inputs": [],
      "name": "EXTRA_CONTRACT_REGISTRAR_ROLE",
      "outputs": [
        {
          "internalType": "bytes32",
          "name": "",
          "type": "bytes32"
        }
      ],
      "stateMutability": "view",
      "type": "function"
    },
    {
      "inputs": [],
      "name": "MAINNET_HASH",
      "outputs": [
        {
          "internalType": "bytes32",
          "name": "",
          "type": "bytes32"
        }
      ],
      "stateMutability": "view",
      "type": "function"
    },
    {
      "inputs": [],
      "name": "MESSAGES_LENGTH",
      "outputs": [
        {
          "internalType": "uint256",
          "name": "",
          "type": "uint256"
        }
      ],
      "stateMutability": "view",
      "type": "function"
    },
    {
      "inputs": [],
      "name": "MINIMUM_BALANCE",
      "outputs": [
        {
          "internalType": "uint256",
          "name": "",
          "type": "uint256"
        }
      ],
      "stateMutability": "view",
      "type": "function"
    },
    {
      "inputs": [],
      "name": "REVERT_REASON_LENGTH",
      "outputs": [
        {
          "internalType": "uint256",
          "name": "",
          "type": "uint256"
        }
      ],
      "stateMutability": "view",
      "type": "function"
    },
    {
      "inputs": [
        {
          "internalType": "string",
          "name": "chainName",
          "type": "string"
        }
      ],
      "name": "addConnectedChain",
      "outputs": [],
      "stateMutability": "nonpayable",
      "type": "function"
    },
    {
      "inputs": [
        {
          "internalType": "bytes32",
          "name": "",
          "type": "bytes32"
        }
      ],
      "name": "connectedChains",
      "outputs": [
        {
          "internalType": "uint256",
          "name": "incomingMessageCounter",
          "type": "uint256"
        },
        {
          "internalType": "uint256",
          "name": "outgoingMessageCounter",
          "type": "uint256"
        },
        {
          "internalType": "bool",
          "name": "inited",
          "type": "bool"
        }
      ],
      "stateMutability": "view",
      "type": "function"
    },
    {
      "inputs": [],
      "name": "gasLimit",
      "outputs": [
        {
          "internalType": "uint256",
          "name": "",
          "type": "uint256"
        }
      ],
      "stateMutability": "view",
      "type": "function"
    },
    {
      "inputs": [
        {
          "internalType": "bytes32",
          "name": "schainHash",
          "type": "bytes32"
        }
      ],
      "name": "getContractRegisteredLength",
      "outputs": [
        {
          "internalType": "uint256",
          "name": "",
          "type": "uint256"
        }
      ],
      "stateMutability": "view",
      "type": "function"
    },
    {
      "inputs": [
        {
          "internalType": "bytes32",
          "name": "schainHash",
          "type": "bytes32"
        },
        {
          "internalType": "uint256",
          "name": "from",
          "type": "uint256"
        },
        {
          "internalType": "uint256",
          "name": "to",
          "type": "uint256"
        }
      ],
      "name": "getContractRegisteredRange",
      "outputs": [
        {
          "internalType": "address[]",
          "name": "contractsInRange",
          "type": "address[]"
        }
      ],
      "stateMutability": "view",
      "type": "function"
    },
    {
      "inputs": [
        {
          "internalType": "string",
          "name": "fromSchainName",
          "type": "string"
        }
      ],
      "name": "getIncomingMessagesCounter",
      "outputs": [
        {
          "internalType": "uint256",
          "name": "",
          "type": "uint256"
        }
      ],
      "stateMutability": "view",
      "type": "function"
    },
    {
      "inputs": [
        {
          "internalType": "string",
          "name": "targetSchainName",
          "type": "string"
        }
      ],
      "name": "getOutgoingMessagesCounter",
      "outputs": [
        {
          "internalType": "uint256",
          "name": "",
          "type": "uint256"
        }
      ],
      "stateMutability": "view",
      "type": "function"
    },
    {
      "inputs": [
        {
          "internalType": "bytes32",
          "name": "role",
          "type": "bytes32"
        }
      ],
      "name": "getRoleAdmin",
      "outputs": [
        {
          "internalType": "bytes32",
          "name": "",
          "type": "bytes32"
        }
      ],
      "stateMutability": "view",
      "type": "function"
    },
    {
      "inputs": [
        {
          "internalType": "bytes32",
          "name": "role",
          "type": "bytes32"
        },
        {
          "internalType": "uint256",
          "name": "index",
          "type": "uint256"
        }
      ],
      "name": "getRoleMember",
      "outputs": [
        {
          "internalType": "address",
          "name": "",
          "type": "address"
        }
      ],
      "stateMutability": "view",
      "type": "function"
    },
    {
      "inputs": [
        {
          "internalType": "bytes32",
          "name": "role",
          "type": "bytes32"
        }
      ],
      "name": "getRoleMemberCount",
      "outputs": [
        {
          "internalType": "uint256",
          "name": "",
          "type": "uint256"
        }
      ],
      "stateMutability": "view",
      "type": "function"
    },
    {
      "inputs": [
        {
          "internalType": "bytes32",
          "name": "role",
          "type": "bytes32"
        },
        {
          "internalType": "address",
          "name": "account",
          "type": "address"
        }
      ],
      "name": "grantRole",
      "outputs": [],
      "stateMutability": "nonpayable",
      "type": "function"
    },
    {
      "inputs": [
        {
          "internalType": "bytes32",
          "name": "role",
          "type": "bytes32"
        },
        {
          "internalType": "address",
          "name": "account",
          "type": "address"
        }
      ],
      "name": "hasRole",
      "outputs": [
        {
          "internalType": "bool",
          "name": "",
          "type": "bool"
        }
      ],
      "stateMutability": "view",
      "type": "function"
    },
    {
      "inputs": [
        {
          "internalType": "contract IKeyStorage",
          "name": "blsKeyStorage",
          "type": "address"
        },
        {
          "internalType": "string",
          "name": "schainName",
          "type": "string"
        }
      ],
      "name": "initialize",
      "outputs": [],
      "stateMutability": "nonpayable",
      "type": "function"
    },
    {
      "inputs": [
        {
          "internalType": "uint256",
          "name": "newGasLimit",
          "type": "uint256"
        }
      ],
      "name": "initializeMessageProxy",
      "outputs": [],
      "stateMutability": "nonpayable",
      "type": "function"
    },
    {
      "inputs": [
        {
          "internalType": "string",
          "name": "schainName",
          "type": "string"
        }
      ],
      "name": "isConnectedChain",
      "outputs": [
        {
          "internalType": "bool",
          "name": "",
          "type": "bool"
        }
      ],
      "stateMutability": "view",
      "type": "function"
    },
    {
      "inputs": [
        {
          "internalType": "bytes32",
          "name": "schainHash",
          "type": "bytes32"
        },
        {
          "internalType": "address",
          "name": "contractAddress",
          "type": "address"
        }
      ],
      "name": "isContractRegistered",
      "outputs": [
        {
          "internalType": "bool",
          "name": "",
          "type": "bool"
        }
      ],
      "stateMutability": "view",
      "type": "function"
    },
    {
      "inputs": [],
      "name": "keyStorage",
      "outputs": [
        {
          "internalType": "contract IKeyStorage",
          "name": "",
          "type": "address"
        }
      ],
      "stateMutability": "view",
      "type": "function"
    },
    {
      "inputs": [],
      "name": "messageInProgress",
      "outputs": [
        {
          "internalType": "bool",
          "name": "",
          "type": "bool"
        }
      ],
      "stateMutability": "view",
      "type": "function"
    },
    {
      "inputs": [
        {
          "internalType": "string",
          "name": "fromChainName",
          "type": "string"
        },
        {
          "internalType": "uint256",
          "name": "startingCounter",
          "type": "uint256"
        },
        {
          "components": [
            {
              "internalType": "address",
              "name": "sender",
              "type": "address"
            },
            {
              "internalType": "address",
              "name": "destinationContract",
              "type": "address"
            },
            {
              "internalType": "bytes",
              "name": "data",
              "type": "bytes"
            }
          ],
          "internalType": "struct IMessageProxy.Message[]",
          "name": "messages",
          "type": "tuple[]"
        },
        {
          "components": [
            {
              "internalType": "uint256[2]",
              "name": "blsSignature",
              "type": "uint256[2]"
            },
            {
              "internalType": "uint256",
              "name": "hashA",
              "type": "uint256"
            },
            {
              "internalType": "uint256",
              "name": "hashB",
              "type": "uint256"
            },
            {
              "internalType": "uint256",
              "name": "counter",
              "type": "uint256"
            }
          ],
          "internalType": "struct IMessageProxy.Signature",
          "name": "signature",
          "type": "tuple"
        }
      ],
      "name": "postIncomingMessages",
      "outputs": [],
      "stateMutability": "nonpayable",
      "type": "function"
    },
    {
      "inputs": [
        {
          "internalType": "bytes32",
          "name": "targetChainHash",
          "type": "bytes32"
        },
        {
          "internalType": "address",
          "name": "targetContract",
          "type": "address"
        },
        {
          "internalType": "bytes",
          "name": "data",
          "type": "bytes"
        }
      ],
      "name": "postOutgoingMessage",
      "outputs": [],
      "stateMutability": "nonpayable",
      "type": "function"
    },
    {
      "inputs": [
        {
          "internalType": "string",
          "name": "chainName",
          "type": "string"
        },
        {
          "internalType": "address",
          "name": "extraContract",
          "type": "address"
        }
      ],
      "name": "registerExtraContract",
      "outputs": [],
      "stateMutability": "nonpayable",
      "type": "function"
    },
    {
      "inputs": [
        {
          "internalType": "address",
          "name": "extraContract",
          "type": "address"
        }
      ],
      "name": "registerExtraContractForAll",
      "outputs": [],
      "stateMutability": "nonpayable",
      "type": "function"
    },
    {
      "inputs": [
        {
          "internalType": "string",
          "name": "chainName",
          "type": "string"
        }
      ],
      "name": "removeConnectedChain",
      "outputs": [],
      "stateMutability": "nonpayable",
      "type": "function"
    },
    {
      "inputs": [
        {
          "internalType": "string",
          "name": "chainName",
          "type": "string"
        },
        {
          "internalType": "address",
          "name": "extraContract",
          "type": "address"
        }
      ],
      "name": "removeExtraContract",
      "outputs": [],
      "stateMutability": "nonpayable",
      "type": "function"
    },
    {
      "inputs": [
        {
          "internalType": "address",
          "name": "extraContract",
          "type": "address"
        }
      ],
      "name": "removeExtraContractForAll",
      "outputs": [],
      "stateMutability": "nonpayable",
      "type": "function"
    },
    {
      "inputs": [
        {
          "internalType": "bytes32",
          "name": "role",
          "type": "bytes32"
        },
        {
          "internalType": "address",
          "name": "account",
          "type": "address"
        }
      ],
      "name": "renounceRole",
      "outputs": [],
      "stateMutability": "nonpayable",
      "type": "function"
    },
    {
      "inputs": [
        {
          "internalType": "bytes32",
          "name": "role",
          "type": "bytes32"
        },
        {
          "internalType": "address",
          "name": "account",
          "type": "address"
        }
      ],
      "name": "revokeRole",
      "outputs": [],
      "stateMutability": "nonpayable",
      "type": "function"
    },
    {
      "inputs": [],
      "name": "schainHash",
      "outputs": [
        {
          "internalType": "bytes32",
          "name": "",
          "type": "bytes32"
        }
      ],
      "stateMutability": "view",
      "type": "function"
    },
    {
      "inputs": [
        {
          "internalType": "uint256",
          "name": "newGasLimit",
          "type": "uint256"
        }
      ],
      "name": "setNewGasLimit",
      "outputs": [],
      "stateMutability": "nonpayable",
      "type": "function"
    },
    {
      "inputs": [
        {
          "internalType": "string",
          "name": "newVersion",
          "type": "string"
        }
      ],
      "name": "setVersion",
      "outputs": [],
      "stateMutability": "nonpayable",
      "type": "function"
    },
    {
      "inputs": [
        {
          "internalType": "bytes4",
          "name": "interfaceId",
          "type": "bytes4"
        }
      ],
      "name": "supportsInterface",
      "outputs": [
        {
          "internalType": "bool",
          "name": "",
          "type": "bool"
        }
      ],
      "stateMutability": "view",
      "type": "function"
    },
    {
      "inputs": [
        {
          "components": [
            {
              "internalType": "bytes32",
              "name": "dstChainHash",
              "type": "bytes32"
            },
            {
              "internalType": "uint256",
              "name": "msgCounter",
              "type": "uint256"
            },
            {
              "internalType": "address",
              "name": "srcContract",
              "type": "address"
            },
            {
              "internalType": "address",
              "name": "dstContract",
              "type": "address"
            },
            {
              "internalType": "bytes",
              "name": "data",
              "type": "bytes"
            }
          ],
          "internalType": "struct IMessageProxyForSchain.OutgoingMessageData",
          "name": "message",
          "type": "tuple"
        }
      ],
      "name": "verifyOutgoingMessageData",
      "outputs": [
        {
          "internalType": "bool",
          "name": "isValidMessage",
          "type": "bool"
        }
      ],
      "stateMutability": "view",
      "type": "function"
    },
    {
      "inputs": [
        {
          "internalType": "bytes32",
          "name": "hashedMessage",
          "type": "bytes32"
        },
        {
          "components": [
            {
              "internalType": "uint256[2]",
              "name": "blsSignature",
              "type": "uint256[2]"
            },
            {
              "internalType": "uint256",
              "name": "hashA",
              "type": "uint256"
            },
            {
              "internalType": "uint256",
              "name": "hashB",
              "type": "uint256"
            },
            {
              "internalType": "uint256",
              "name": "counter",
              "type": "uint256"
            }
          ],
          "internalType": "struct IMessageProxy.Signature",
          "name": "signature",
          "type": "tuple"
        }
      ],
      "name": "verifySignature",
      "outputs": [
        {
          "internalType": "bool",
          "name": "",
          "type": "bool"
        }
      ],
      "stateMutability": "view",
      "type": "function"
    },
    {
      "inputs": [],
      "name": "version",
      "outputs": [
        {
          "internalType": "string",
          "name": "",
          "type": "string"
        }
      ],
      "stateMutability": "view",
      "type": "function"
    }
  ],
  "bytecode": "0x608060405234801561001057600080fd5b50614134806100206000396000f3fe608060405234801561001057600080fd5b50600436106102695760003560e01c80636a156b9a11610151578063bbc4e8c2116100c3578063e6ab840311610087578063e6ab840314610585578063f2f63605146105d4578063f399e22e146105e7578063f68016b7146105fa578063f79f795414610603578063f8c88a161461061657600080fd5b8063bbc4e8c21461051d578063bdb40cb014610544578063ca15c8731461054c578063cab010c91461055f578063d547741f1461057257600080fd5b80639010d07c116101155780639010d07c146104b657806391d14854146104c957806394489202146104dc578063999ab9aa146104ef578063a217fddf14610502578063a8bb1b7d1461050a57600080fd5b80636a156b9a146104455780636e2f37b01461046a57806377fe0f311461047d578063788bc78c146104905780637aa38a7c146104a357600080fd5b80633b597ffe116101ea57806352dc24ee116101ae57806352dc24ee146103d557806353498cdd146103e857806354fd4d50146103f7578063603e5d131461040c578063654d88281461041f57806367ec60201461043257600080fd5b80633b597ffe1461037e5780633b690b6b146103915780633cdd2cc31461039a5780634d203859146103ad578063523c8ab6146103c057600080fd5b8063214883401161023157806321488340146102e1578063248a9ca31461030157806328c5e182146103245780632f2ff15d1461035657806336568abe1461036b57600080fd5b806301ffc9a71461026e5780630fc307a81461029657806313c52260146102b7578063198e687c146102cc5780631cf5379d146102d4575b600080fd5b61028161027c3660046132d2565b610629565b60405190151581526020015b60405180910390f35b6102a96102a43660046132fc565b610654565b60405190815260200161028d565b6102a96000805160206140bf83398151915281565b6102a9604081565b60d3546102819060ff1681565b6102f46102ef366004613315565b61066b565b60405161028d9190613341565b6102a961030f3660046132fc565b60009081526065602052604090206001015490565b6102a96040516613585a5b9b995d60ca1b60208201526027016040516020818303038152906040528051906020012081565b6103696103643660046133a3565b6107aa565b005b6103696103793660046133a3565b6107d4565b61036961038c3660046132fc565b610852565b6102a960cd5481565b6103696103a83660046134cc565b610918565b6103696103bb366004613500565b610a01565b6102a960008051602061407f83398151915281565b6102816103e336600461352f565b610b3b565b6102a9670de0b6b3a764000081565b6103ff610b4e565b60405161028d91906135ac565b61036961041a366004613607565b610bdc565b61028161042d3660046133a3565b610e7f565b6102a96104403660046136c1565b610e97565b61045262695d1f60891b81565b6040516001600160a01b03909116815260200161028d565b6103696104783660046132fc565b610f10565b6102a961048b3660046136c1565b611044565b61036961049e3660046136c1565b6110ea565b6102816104b1366004613702565b61118a565b6104526104c43660046137ac565b6111c3565b6102816104d73660046133a3565b6111db565b6103696104ea3660046137ce565b611206565b6102816104fd3660046134cc565b6112bc565b6102a9600081565b610369610518366004613500565b611305565b6102a97f96e3fc3be15159903e053027cff8a23f39a990e0194abcd8ac1cf1b355b8b93c81565b6102a9600a81565b6102a961055a3660046132fc565b6113ff565b61036961056d366004613826565b611416565b6103696105803660046133a3565b6114a0565b6105b76105933660046132fc565b60c96020526000908152604090208054600182015460029092015490919060ff1683565b60408051938452602084019290925215159082015260600161028d565b6103696105e23660046136c1565b6114c5565b6103696105f536600461386c565b61154c565b6102a960cb5481565b60cc54610452906001600160a01b031681565b610369610624366004613826565b6116e9565b60006001600160e01b03198216635a05180f60e01b148061064e575061064e82611773565b92915050565b600081815260d16020526040812061064e906117a8565b606081831080156106865750600a61068384846138d1565b11155b80156106a85750600084815260d1602052604090206106a4906117a8565b8211155b6106ee5760405162461bcd60e51b815260206004820152601260248201527114985b99d9481a5cc81a5b98dbdc9c9958dd60721b60448201526064015b60405180910390fd5b6106f883836138d1565b6001600160401b0381111561070f5761070f6133d3565b604051908082528060200260200182016040528015610738578160200160208202803683370190505b509050825b828110156107a257600085815260d16020526040902061075d90826117b2565b8261076886846138d1565b81518110610778576107786138e4565b6001600160a01b03909216602092830291909101909101528061079a816138fa565b91505061073d565b509392505050565b6000828152606560205260409020600101546107c5816117be565b6107cf83836117cb565b505050565b6001600160a01b03811633146108445760405162461bcd60e51b815260206004820152602f60248201527f416363657373436f6e74726f6c3a2063616e206f6e6c792072656e6f756e636560448201526e103937b632b9903337b91039b2b63360891b60648201526084016106e5565b61084e82826117ed565b5050565b61087c7f96e3fc3be15159903e053027cff8a23f39a990e0194abcd8ac1cf1b355b8b93c336111db565b6108d75760405162461bcd60e51b815260206004820152602660248201527f4e6f7420656e6f756768207065726d697373696f6e7320746f2073657420636f6044820152651b9cdd185b9d60d21b60648201526084016106e5565b60cb5460408051918252602082018390527f8abddb75fd50f7583079c0b550ec7a54fa3fd8d5dd1d2dfdc473f7ce27e3b9ac910160405180910390a160cb55565b6109306000805160206140bf833981519152336111db565b61094c5760405162461bcd60e51b81526004016106e590613913565b60008160405160200161095f9190613948565b604051602081830303815290604052805190602001209050604051602001610994906613585a5b9b995d60ca1b815260070190565b6040516020818303038152906040528051906020012081036109f85760405162461bcd60e51b815260206004820152601960248201527f4d61696e6e65742063616e6e6f742062652072656d6f7665640000000000000060448201526064016106e5565b61084e8261180f565b610a1960008051602061407f833981519152336111db565b610a355760405162461bcd60e51b81526004016106e590613964565b6001600160a01b0381163b610a8c5760405162461bcd60e51b815260206004820152601f60248201527f476976656e2061646472657373206973206e6f74206120636f6e74726163740060448201526064016106e5565b610aa88160d15b600080805260209190915260409020906118f2565b15610ac55760405162461bcd60e51b81526004016106e5906139ad565b6000805260d1602052610af77efa5413e7b01fc543d01f0911de573ace463b956369df4472f39030e8d98b7782611914565b506040516001600160a01b03821681526000907f03bcd152926369e3cf05cb7af471a15d680e8ec5d20b13705048d14e94679365906020015b60405180910390a250565b6000610b478383611929565b9392505050565b60d28054610b5b906139f1565b80601f0160208091040260200160405190810160405280929190818152602001828054610b87906139f1565b8015610bd45780601f10610ba957610100808354040283529160200191610bd4565b820191906000526020600020905b815481529060010190602001808311610bb757829003601f168201915b505050505081565b60d35460ff1615610c285760405162461bcd60e51b81526020600482015260166024820152754d65737361676520697320696e2070726f677265737360501b60448201526064016106e5565b60d3805460ff19166001179055604051600090610c4b9088908890602001613a25565b60408051601f198184030181529181528151602092830120600081815260c990935291206002015490915060ff16610cc05760405162461bcd60e51b815260206004820152601860248201527710da185a5b881a5cc81b9bdd081a5b9a5d1a585b1a5e995960421b60448201526064016106e5565b600a831115610d055760405162461bcd60e51b8152602060048201526011602482015270546f6f206d616e79206d6573736167657360781b60448201526064016106e5565b610d1b610d158585888b8b6119c7565b83611929565b610d675760405162461bcd60e51b815260206004820152601960248201527f5369676e6174757265206973206e6f742076657269666965640000000000000060448201526064016106e5565b600081815260c960205260409020548514610dea5760405162461bcd60e51b815260206004820152603860248201527f5374617274696e6720636f756e746572206973206e6f74207175616c20746f2060448201527f696e636f6d696e67206d65737361676520636f756e746572000000000000000060648201526084016106e5565b600081815260c9602052604081208054859290610e08908490613a35565b90915550600090505b83811015610e6357610e5182868684818110610e2f57610e2f6138e4565b9050602002810190610e419190613a48565b610e4c896001613a35565b611b42565b80610e5b816138fa565b915050610e11565b50610e6c611d65565b505060d3805460ff191690555050505050565b600082815260d160205260408120610b4790836118f2565b6000808383604051602001610ead929190613a25565b60408051601f198184030181529181528151602092830120600081815260c990935291206002015490915060ff16610ef75760405162461bcd60e51b81526004016106e590613a5e565b600090815260c960205260409020600101549392505050565b600054610100900460ff1615808015610f305750600054600160ff909116105b80610f4a5750303b158015610f4a575060005460ff166001145b610f665760405162461bcd60e51b81526004016106e590613aa2565b6000805460ff191660011790558015610f89576000805461ff0019166101001790555b610f91611f3b565b610f9c600033611fa8565b610fb46000805160206140bf83398151915233611fa8565b610fcc60008051602061407f83398151915233611fa8565b610ff67f96e3fc3be15159903e053027cff8a23f39a990e0194abcd8ac1cf1b355b8b93c33611fa8565b60cb829055801561084e576000805461ff0019169055604051600181527f7f26b83ff96e1f2b6a682f133852f6798a09c465da95921460cefb38474024989060200160405180910390a15050565b600080838360405160200161105a929190613a25565b60408051601f198184030181529181528151602092830120600081815260c990935291206002015490915060ff166110d45760405162461bcd60e51b815260206004820152601f60248201527f536f7572636520636861696e206973206e6f7420696e697469616c697a65640060448201526064016106e5565b600090815260c960205260409020549392505050565b6110f56000336111db565b6111415760405162461bcd60e51b815260206004820152601e60248201527f44454641554c545f41444d494e5f524f4c45206973207265717569726564000060448201526064016106e5565b7f22efc5f993dce37856b77dd72d7d7661032380c9728c4133f3c071c591bc6ca760d2838360405161117593929190613b19565b60405180910390a160d26107cf828483613bfe565b8051600090815260ce602090815260408083208285015184529091528120546111b283611fb2565b81036111bd57600191505b50919050565b6000828152609760205260408120610b4790836117b2565b60009182526065602090815260408084206001600160a01b0393909316845291905290205460ff1690565b611211838383612028565b60006040518060a00160405280858152602001600160c960008881526020019081526020016000206001015461124791906138d1565b81523360208201526001600160a01b0385166040820152606001839052805190915061127282611fb2565b600082815260ce6020908152604080832060d080845282852080548652918452918420949094558483529052815460019291906112b0908490613a35565b90915550505050505050565b600060c96000836040516020016112d39190613948565b60408051601f198184030181529181528151602092830120835290820192909252016000206002015460ff1692915050565b61131d60008051602061407f833981519152336111db565b6113395760405162461bcd60e51b81526004016106e590613964565b6113448160d1610a93565b6113905760405162461bcd60e51b815260206004820181905260248201527f457874726120636f6e7472616374206973206e6f74207265676973746572656460448201526064016106e5565b6000805260d16020526113c27efa5413e7b01fc543d01f0911de573ace463b956369df4472f39030e8d98b77826120ee565b506040516001600160a01b03821681526000907f4d393b64277bfc0b02e0459a74c316c7f22069352a678319fd8139ba4085e06190602001610b30565b600081815260976020526040812061064e906117a8565b61142e60008051602061407f833981519152336111db565b61144a5760405162461bcd60e51b81526004016106e590613964565b60008260405160200161145d9190613948565b60405160208183030381529060405280519060200120905060cd5481036114965760405162461bcd60e51b81526004016106e590613cbe565b6107cf8183612103565b6000828152606560205260409020600101546114bb816117be565b6107cf83836117ed565b600082826040516020016114da929190613a25565b60405160208183030381529060405280519060200120905060cd5481036115435760405162461bcd60e51b815260206004820152601c60248201527f53636861696e2063616e6e6f7420636f6e6e65637420697473656c660000000060448201526064016106e5565b6107cf81612263565b600054610100900460ff161580801561156c5750600054600160ff909116105b806115865750303b158015611586575060005460ff166001145b6115a25760405162461bcd60e51b81526004016106e590613aa2565b6000805460ff1916600117905580156115c5576000805461ff0019166101001790555b6115d1622dc6c0610f10565b60cc80546001600160a01b0385166001600160a01b031990911617905560408051606081018252600080825260208083018290526001838501529251919260c99261162a91016613585a5b9b995d60ca1b815260070190565b60408051808303601f19018152918152815160209283012083528282019390935290820160002083518155838201516001820155928201516002909301805460ff1916931515939093179092555161168491849101613948565b60408051601f19818403018152919052805160209091012060cd5580156107cf576000805461ff0019169055604051600181527f7f26b83ff96e1f2b6a682f133852f6798a09c465da95921460cefb38474024989060200160405180910390a1505050565b61170160008051602061407f833981519152336111db565b61171d5760405162461bcd60e51b81526004016106e590613964565b6000826040516020016117309190613948565b60405160208183030381529060405280519060200120905060cd5481036117695760405162461bcd60e51b81526004016106e590613cbe565b6107cf8183612349565b60006001600160e01b03198216637965db0b60e01b148061064e57506301ffc9a760e01b6001600160e01b031983161461064e565b600061064e825490565b6000610b4783836123f4565b6117c8813361241e565b50565b6117d58282612482565b60008281526097602052604090206107cf9082611914565b6117f78282612508565b60008281526097602052604090206107cf90826120ee565b6118276000805160206140bf833981519152336111db565b6118435760405162461bcd60e51b81526004016106e590613913565b6000816040516020016118569190613948565b60408051601f198184030181529181528151602092830120600081815260c990935291206002015490915060ff166118cb5760405162461bcd60e51b815260206004820152601860248201527710da185a5b881a5cc81b9bdd081a5b9a5d1a585b1a5e995960421b60448201526064016106e5565b600090815260c9602052604081208181556001810191909155600201805460ff1916905550565b6001600160a01b03811660009081526001830160205260408120541515610b47565b6000610b47836001600160a01b03841661256f565b604080518082018252823581526020808401359082015260cc548251632aa77bd360e11b81528351600094610b47949388936080808a013594938a01359360608b0135936001600160a01b03169263554ef7a69260048083019391928290030181865afa15801561199e573d6000803e3d6000fd5b505050506040513d601f19601f820116820180604052508101906119c29190613d44565b6125be565b60008083836040516020016119dd929190613a25565b60408051808303601f190181528282528051602091820120908301819052908201879052915060009060600160405160208183030381529060405280519060200120905060005b87811015611b365781898983818110611a3f57611a3f6138e4565b9050602002810190611a519190613a48565b611a5f906020810190613500565b8a8a84818110611a7157611a716138e4565b9050602002810190611a839190613a48565b611a94906040810190602001613500565b6040805160208101949094526001600160a01b0392831690840152166060820152608001604051602081830303815290604052898983818110611ad957611ad96138e4565b9050602002810190611aeb9190613a48565b611af9906040810190613d87565b604051602001611b0b93929190613dcd565b6040516020818303038152906040528051906020012091508080611b2e906138fa565b915050611a24565b50979650505050505050565b611b64611b556040840160208501613500565b6001600160a01b03163b151590565b611bd257806000805160206140df833981519152604051611bc59060208082526026908201527f44657374696e6174696f6e20636f6e7472616374206973206e6f74206120636f6040820152651b9d1c9858dd60d21b606082015260800190565b60405180910390a2505050565b611be26040830160208401613500565b6001600160a01b031663884cee5a60cb5485856000016020810190611c079190613500565b611c146040880188613d87565b6040518663ffffffff1660e01b8152600401611c339493929190613df5565b600060405180830381600088803b158015611c4d57600080fd5b5087f193505050508015611c5f575060015b6107cf57611c6b613e20565b806308c379a003611cc05750611c7f613e3c565b80611c8a5750611d1a565b816000805160206140df833981519152611ca5836040612788565b604051611cb291906135ac565b60405180910390a250505050565b634e487b7103611d1a57611cd2613ec5565b90611cdd5750611d1a565b816000805160206140df83398151915282604051602001611d0091815260200190565b60408051601f1981840301815290829052611cb2916135ac565b3d808015611d44576040519150601f19603f3d011682016040523d82523d6000602084013e611d49565b606091505b50816000805160206140df833981519152611ca5836040612788565b60003a5a611d739190613ee5565b611d7e903331613a35565b905062695d1f60891b803b15801590611e695750806001600160a01b03166391d14854826001600160a01b031663bc2a1e8d6040518163ffffffff1660e01b8152600401602060405180830381865afa158015611ddf573d6000803e3d6000fd5b505050506040513d601f19601f82011682018060405250810190611e039190613f04565b6040516001600160e01b031960e084901b1681526004810191909152306024820152604401602060405180830381865afa158015611e45573d6000803e3d6000fd5b505050506040513d601f19601f82011682018060405250810190611e699190613f1d565b8015611e7c5750670de0b6b3a764000082105b1561084e576000611e9583670de0b6b3a76400006138d1565b9050816001600160a01b031631811015611f0f5760405163204a3e9360e01b8152336004820152602481018290526001600160a01b0383169063204a3e93906044015b600060405180830381600087803b158015611ef257600080fd5b505af1158015611f06573d6000803e3d6000fd5b50505050505050565b604051630a79309b60e01b81523360048201526001600160a01b03831690630a79309b90602401611ed8565b600054610100900460ff16611fa65760405162461bcd60e51b815260206004820152602b60248201527f496e697469616c697a61626c653a20636f6e7472616374206973206e6f74206960448201526a6e697469616c697a696e6760a81b60648201526084016106e5565b565b61084e82826117cb565b6000808260000151836020015160001b846040015160601b6bffffffffffffffffffffffff1916856060015160601b6bffffffffffffffffffffffff19168660800151604051602001612009959493929190613f3f565b60408051601f1981840301815291905280516020909101209392505050565b600083815260c9602052604090206002015460ff166120595760405162461bcd60e51b81526004016106e590613a5e565b61206283612852565b336001600160a01b031660c9600085815260200190815260200160002060010154847f803d7f3ca0e5f93fcce39fa29812ed57a95a151594966e17125220132741c6b085856040516120b5929190613f7a565b60405180910390a4600160c9600085815260200190815260200160002060010160008282546120e49190613a35565b9091555050505050565b6000610b47836001600160a01b0384166128c3565b6001600160a01b0381163b61215a5760405162461bcd60e51b815260206004820152601f60248201527f476976656e2061646472657373206973206e6f74206120636f6e74726163740060448201526064016106e5565b6121768160d15b600085815260209190915260409020906118f2565b156121935760405162461bcd60e51b81526004016106e5906139ad565b61219e8160d1610a93565b156122075760405162461bcd60e51b815260206004820152603360248201527f457874726120636f6e747261637420697320616c7265616479207265676973746044820152726572656420666f7220616c6c20636861696e7360681b60648201526084016106e5565b600082815260d16020526040902061221f9082611914565b506040516001600160a01b038216815282907f03bcd152926369e3cf05cb7af471a15d680e8ec5d20b13705048d14e94679365906020015b60405180910390a25050565b61227b6000805160206140bf833981519152336111db565b6122975760405162461bcd60e51b81526004016106e590613913565b600081815260c9602052604090206002015460ff16156122f95760405162461bcd60e51b815260206004820152601a60248201527f436861696e20697320616c726561647920636f6e6e656374656400000000000060448201526064016106e5565b6040805160608101825260008082526020808301828152600184860181815296845260c9909252939091209151825591519181019190915590516002909101805460ff1916911515919091179055565b6123548160d1612161565b6123a05760405162461bcd60e51b815260206004820181905260248201527f457874726120636f6e7472616374206973206e6f74207265676973746572656460448201526064016106e5565b600082815260d1602052604090206123b890826120ee565b506040516001600160a01b038216815282907f4d393b64277bfc0b02e0459a74c316c7f22069352a678319fd8139ba4085e06190602001612257565b600082600001828154811061240b5761240b6138e4565b9060005260206000200154905092915050565b61242882826111db565b61084e57612440816001600160a01b031660146129bd565b61244b8360206129bd565b60405160200161245c929190613f9e565b60408051601f198184030181529082905262461bcd60e51b82526106e5916004016135ac565b61248c82826111db565b61084e5760008281526065602090815260408083206001600160a01b03851684529091529020805460ff191660011790556124c43390565b6001600160a01b0316816001600160a01b0316837f2f8788117e7eff1d82e926ec794901d17c78024a50270940304540a733656f0d60405160405180910390a45050565b61251282826111db565b1561084e5760008281526065602090815260408083206001600160a01b0385168085529252808320805460ff1916905551339285917ff6391f5c32d9c69d2a47ea670b442974b53935d1edc7fd64eb21e047a839171b9190a45050565b60008181526001830160205260408120546125b65750815460018181018455600084815260208082209093018490558454848252828601909352604090209190915561064e565b50600061064e565b60006125c987612b58565b61260e5760405162461bcd60e51b815260206004820152601660248201527514da59db985d1d5c99481a5cc81b9bdd081d985b1a5960521b60448201526064016106e5565b61261a86868686612b8e565b6126265750600061277e565b60006126358860200151612c7c565b9050612645886000015182612ca1565b6126825760405162461bcd60e51b815260206004820152600e60248201526d5369676e206e6f7420696e20473160901b60448201526064016106e5565b61268c8585612ca1565b6126c95760405162461bcd60e51b815260206004820152600e60248201526d48617368206e6f7420696e20473160901b60448201526064016106e5565b60006126d3612cd7565b90506126de84612d97565b6127215760405162461bcd60e51b8152602060048201526014602482015273283ab13634b19025b2bc903737ba1034b710239960611b60448201526064016106e5565b6127798960000151838360000151602001518460000151600001518560200151602001518660200151600001518c8c8c60000151602001518d60000151600001518e60200151602001518f6020015160000151612dab565b925050505b9695505050505050565b606060008351831061279b57835161279d565b825b90506000816001600160401b038111156127b9576127b96133d3565b6040519080825280601f01601f1916602001820160405280156127e3576020820181803683370190505b50905060005b8281101561284957858181518110612803576128036138e4565b602001015160f81c60f81b828281518110612820576128206138e4565b60200101906001600160f81b031916908160001a90535080612841816138fa565b9150506127e9565b50949350505050565b61285d600033610e7f565b8061286d575061286d8133610e7f565b6117c85760405162461bcd60e51b815260206004820152602160248201527f53656e64657220636f6e7472616374206973206e6f74207265676973746572656044820152601960fa1b60648201526084016106e5565b600081815260018301602052604081205480156129ac5760006128e76001836138d1565b85549091506000906128fb906001906138d1565b905081811461296057600086600001828154811061291b5761291b6138e4565b906000526020600020015490508087600001848154811061293e5761293e6138e4565b6000918252602080832090910192909255918252600188019052604090208390555b855486908061297157612971614013565b60019003818190600052602060002001600090559055856001016000868152602001908152602001600020600090556001935050505061064e565b600091505061064e565b5092915050565b606060006129cc836002613ee5565b6129d7906002613a35565b6001600160401b038111156129ee576129ee6133d3565b6040519080825280601f01601f191660200182016040528015612a18576020820181803683370190505b509050600360fc1b81600081518110612a3357612a336138e4565b60200101906001600160f81b031916908160001a905350600f60fb1b81600181518110612a6257612a626138e4565b60200101906001600160f81b031916908160001a9053506000612a86846002613ee5565b612a91906001613a35565b90505b6001811115612b09576f181899199a1a9b1b9c1cb0b131b232b360811b85600f1660108110612ac557612ac56138e4565b1a60f81b828281518110612adb57612adb6138e4565b60200101906001600160f81b031916908160001a90535060049490941c93612b0281614029565b9050612a94565b508315610b475760405162461bcd60e51b815260206004820181905260248201527f537472696e67733a20686578206c656e67746820696e73756666696369656e7460448201526064016106e5565b600060008051602061409f833981519152826000015110801561064e5750506020015160008051602061409f8339815191521190565b60006064841115612ba157506000612c74565b6000612bbb60008051602061409f83398151915287614056565b905060008051602061409f833981519152612bd68683613a35565b612be09190614056565b9050600060008051602061409f833981519152600360008051602061409f8339815191528460008051602061409f83398151915286870909089050612c34600260008051602061409f83398151915261406a565b841080612c5257508060008051602061409f83398151915285860914155b80612c5d5750848214155b15612c6d57600092505050612c74565b6001925050505b949350505050565b600060008051602061409f833981519152612c9783826138d1565b61064e9190614056565b600060008051602061409f83398151915280600381868188890909088180612ccb57612ccb614040565b84850914949350505050565b612cdf613251565b50604080516080810182527f1800deef121f1e76426a00665e5c4479674322d4f75edadd46debd5cd992f6ed8183019081527f198e9393920d483a7260bfb731fb5d25f1aa493335a9e71297e485b7aef312c26060830152815281518083019092527f12c85ea5db8c6deb4aab71808dcb408fe3d1e7690c43d37b4ce6cc0166fa7daa82527f090689d0585ff075ec9e99ad690c3395bc4b313370b38ef355acdadcd122975b60208381019190915281019190915290565b600061064e82600001518360200151612e7b565b600080612db6613295565b8e8152602081018e9052604081018d9052606081018c9052608081018b905260a081018a905260c0810189905260e081018890526101008101879052610120810186905261014081018590526101608101849052612e126132b4565b602081610180846008600019fa925082612e655760405162461bcd60e51b815260206004820152601460248201527314185a5c9a5b99c818da1958dac819985a5b195960621b60448201526064016106e5565b5115159f9e505050505050505050505050505050565b6000612e878383612f4f565b15612e945750600161064e565b6000612e9f83612f82565b90506000612f32612f0f604080518082018252600080825260209182015281518083019092527f2b149d40ceb8aaae81be18991be06ac3b5b4c5e559dbefa33267e6dc24a138e582527e9713b03af0fed4cd2cafadeed8fdf4a74fa084e52d1852e4a2bd0685c315d29082015290565b612f2c612f2588612f1f8a612f82565b90613038565b859061314b565b9061314b565b8051909150158015612f4657506020810151155b95945050505050565b8151600090158015612f6357506020830151155b8015612f70575081516001145b8015610b475750506020015115919050565b604080518082019091526000808252602082015260008051602061409f8339815191526000816020850151855109905060008280612fc257612fc2614040565b8380612fd057612fd0614040565b8480612fde57612fde614040565b6020880151612fee6001886138d1565b09875108848061300057613000614040565b60208801518851080990506040518060400160405280828152602001848061302a5761302a614040565b848508905295945050505050565b6040805180820190915260008082526020820152600060008051602061409f833981519152905060006040518060400160405280838061307a5761307a614040565b86518851098152602001838061309257613092614040565b86602001518860200151099052905081806130af576130af614040565b82806130bd576130bd614040565b60208301516130cd6001866138d1565b09825108835281806130e1576130e1614040565b82806130ef576130ef614040565b602083015183510861310190846138d1565b838061310f5761310f614040565b848061311d5761311d614040565b6020880151885108858061313357613133614040565b60208a01518a51080908602084015250909392505050565b60408051808201909152600080825260208201528151835160008051602061409f833981519152911161319c57808061318657613186614040565b835161319290836138d1565b85510882526131d1565b8081806131ab576131ab614040565b85516131b790846138d1565b8551086131c490836138d1565b6131ce9190614056565b82525b826020015184602001511061320d5780806131ee576131ee614040565b60208401516131fd90836138d1565b85602001510860208301526129b6565b80818061321c5761321c614040565b602086015161322b90846138d1565b85602001510861323b90836138d1565b6132459190614056565b60208301525092915050565b60408051608081018252600091810182815260608201929092529081908152602001613290604051806040016040528060008152602001600081525090565b905290565b604051806101800160405280600c906020820280368337509192915050565b60405180602001604052806001906020820280368337509192915050565b6000602082840312156132e457600080fd5b81356001600160e01b031981168114610b4757600080fd5b60006020828403121561330e57600080fd5b5035919050565b60008060006060848603121561332a57600080fd5b505081359360208301359350604090920135919050565b6020808252825182820181905260009190848201906040850190845b818110156133825783516001600160a01b03168352928401929184019160010161335d565b50909695505050505050565b6001600160a01b03811681146117c857600080fd5b600080604083850312156133b657600080fd5b8235915060208301356133c88161338e565b809150509250929050565b634e487b7160e01b600052604160045260246000fd5b60a081018181106001600160401b0382111715613408576134086133d3565b60405250565b604081018181106001600160401b0382111715613408576134086133d3565b601f8201601f191681016001600160401b0381118282101715613452576134526133d3565b6040525050565b600082601f83011261346a57600080fd5b81356001600160401b03811115613483576134836133d3565b60405161349a601f8301601f19166020018261342d565b8181528460208386010111156134af57600080fd5b816020850160208301376000918101602001919091529392505050565b6000602082840312156134de57600080fd5b81356001600160401b038111156134f457600080fd5b612c7484828501613459565b60006020828403121561351257600080fd5b8135610b478161338e565b600060a082840312156111bd57600080fd5b60008060c0838503121561354257600080fd5b82359150613553846020850161351d565b90509250929050565b60005b8381101561357757818101518382015260200161355f565b50506000910152565b6000815180845261359881602086016020860161355c565b601f01601f19169290920160200192915050565b602081526000610b476020830184613580565b60008083601f8401126135d157600080fd5b5081356001600160401b038111156135e857600080fd5b60208301915083602082850101111561360057600080fd5b9250929050565b600080600080600080610100878903121561362157600080fd5b86356001600160401b038082111561363857600080fd5b6136448a838b016135bf565b909850965060208901359550604089013591508082111561366457600080fd5b818901915089601f83011261367857600080fd5b81358181111561368757600080fd5b8a60208260051b850101111561369c57600080fd5b6020830195508094505050506136b5886060890161351d565b90509295509295509295565b600080602083850312156136d457600080fd5b82356001600160401b038111156136ea57600080fd5b6136f6858286016135bf565b90969095509350505050565b60006020828403121561371457600080fd5b81356001600160401b038082111561372b57600080fd5b9083019060a0828603121561373f57600080fd5b60405161374b816133e9565b823581526020830135602082015260408301356137678161338e565b6040820152606083013561377a8161338e565b606082015260808301358281111561379157600080fd5b61379d87828601613459565b60808301525095945050505050565b600080604083850312156137bf57600080fd5b50508035926020909101359150565b6000806000606084860312156137e357600080fd5b8335925060208401356137f58161338e565b915060408401356001600160401b0381111561381057600080fd5b61381c86828701613459565b9150509250925092565b6000806040838503121561383957600080fd5b82356001600160401b0381111561384f57600080fd5b61385b85828601613459565b92505060208301356133c88161338e565b6000806040838503121561387f57600080fd5b823561388a8161338e565b915060208301356001600160401b038111156138a557600080fd5b6138b185828601613459565b9150509250929050565b634e487b7160e01b600052601160045260246000fd5b8181038181111561064e5761064e6138bb565b634e487b7160e01b600052603260045260246000fd5b60006001820161390c5761390c6138bb565b5060010190565b6020808252818101527f434841494e5f434f4e4e4543544f525f524f4c45206973207265717569726564604082015260600190565b6000825161395a81846020870161355c565b9190910192915050565b60208082526029908201527f45585452415f434f4e54524143545f5245474953545241525f524f4c45206973604082015268081c995c5d5a5c995960ba1b606082015260800190565b60208082526024908201527f457874726120636f6e747261637420697320616c726561647920726567697374604082015263195c995960e21b606082015260800190565b600181811c90821680613a0557607f821691505b6020821081036111bd57634e487b7160e01b600052602260045260246000fd5b8183823760009101908152919050565b8082018082111561064e5761064e6138bb565b60008235605e1983360301811261395a57600080fd5b60208082526024908201527f44657374696e6174696f6e20636861696e206973206e6f7420696e697469616c6040820152631a5e995960e21b606082015260800190565b6020808252602e908201527f496e697469616c697a61626c653a20636f6e747261637420697320616c72656160408201526d191e481a5b9a5d1a585b1a5e995960921b606082015260800190565b81835281816020850137506000828201602090810191909152601f909101601f19169091010190565b604081526000808554613b2b816139f1565b8060408601526060600180841660008114613b4d5760018114613b6757613b98565b60ff1985168884015283151560051b880183019550613b98565b8a60005260208060002060005b86811015613b8f5781548b8201870152908401908201613b74565b8a018501975050505b5050505050828103602084015261277e818587613af0565b601f8211156107cf57600081815260208120601f850160051c81016020861015613bd75750805b601f850160051c820191505b81811015613bf657828155600101613be3565b505050505050565b6001600160401b03831115613c1557613c156133d3565b613c2983613c2383546139f1565b83613bb0565b6000601f841160018114613c5d5760008515613c455750838201355b600019600387901b1c1916600186901b178355613cb7565b600083815260209020601f19861690835b82811015613c8e5786850135825560209485019460019092019101613c6e565b5086821015613cab5760001960f88860031b161c19848701351681555b505060018560011b0183555b5050505050565b60208082526030908201527f44657374696e6174696f6e20636861696e20686173682063616e6e6f7420626560408201526f1032b8bab0b6103a379034ba39b2b63360811b606082015260800190565b600060408284031215613d2057600080fd5b604051613d2c8161340e565b80915082518152602083015160208201525092915050565b600060808284031215613d5657600080fd5b604051613d628161340e565b613d6c8484613d0e565b8152613d7b8460408501613d0e565b60208201529392505050565b6000808335601e19843603018112613d9e57600080fd5b8301803591506001600160401b03821115613db857600080fd5b60200191503681900382131561360057600080fd5b60008451613ddf81846020890161355c565b8201838582376000930192835250909392505050565b8481526001600160a01b038416602082015260606040820181905260009061277e9083018486613af0565b600060033d1115613e395760046000803e5060005160e01c5b90565b600060443d1015613e4a5790565b6040516003193d81016004833e81513d6001600160401b038160248401118184111715613e7957505050505090565b8285019150815181811115613e915750505050505090565b843d8701016020828501011115613eab5750505050505090565b613eba6020828601018761342d565b509095945050505050565b60008060233d1115613ee1576020600460003e50506000516001905b9091565b6000816000190483118215151615613eff57613eff6138bb565b500290565b600060208284031215613f1657600080fd5b5051919050565b600060208284031215613f2f57600080fd5b81518015158114610b4757600080fd5b85815284602082015283604082015282606082015260008251613f6981608085016020870161355c565b919091016080019695505050505050565b6001600160a01b0383168152604060208201819052600090612c7490830184613580565b7f416363657373436f6e74726f6c3a206163636f756e7420000000000000000000815260008351613fd681601785016020880161355c565b7001034b99036b4b9b9b4b733903937b6329607d1b601791840191820152835161400781602884016020880161355c565b01602801949350505050565b634e487b7160e01b600052603160045260246000fd5b600081614038576140386138bb565b506000190190565b634e487b7160e01b600052601260045260246000fd5b60008261406557614065614040565b500690565b60008261407957614079614040565b50049056fe6155b5aac15ce9aa193c0527a6f43be0a36a7e2e7496c2b615c0e5f92284277330644e72e131a029b85045b68181585d97816a916871ca8d3c208c16d87cfd472785f35fe7d8743aa971942d8474737bb31895d396eff2cc688a481e0221e1914b7d3908626050c0d998d657e4e6f31cb43ed736bf2b9a1a0192494537ca0e59a26469706673582212202d39725841a128b5c22fa1b77b44c4f4a3b75db8141106c6cbb07fe34b28f89464736f6c63430008100033",
  "linkReferences": {},
  "deployedLinkReferences": {}
}