{
  "_format": "hh-sol-artifact-1",
  "contractName": "TokenManagerERC1155",
  "sourceName": "contracts/schain/TokenManagers/TokenManagerERC1155.sol",
  "abi": [
    {
      "anonymous": false,
      "inputs": [
        {
          "indexed": false,
          "internalType": "address",
          "name": "oldValue",
          "type": "address"
        },
        {
          "indexed": false,
          "internalType": "address",
          "name": "newValue",
          "type": "address"
        }
      ],
      "name": "DepositBoxWasChanged",
      "type": "event"
    },
    {
      "anonymous": false,
      "inputs": [
        {
          "indexed": true,
          "internalType": "bytes32",
          "name": "chainHash",
          "type": "bytes32"
        },
        {
          "indexed": true,
          "internalType": "address",
          "name": "erc1155OnMainnet",
          "type": "address"
        },
        {
          "indexed": true,
          "internalType": "address",
          "name": "erc1155OnSchain",
          "type": "address"
        }
      ],
      "name": "ERC1155TokenAdded",
      "type": "event"
    },
    {
      "anonymous": false,
      "inputs": [
        {
          "indexed": true,
          "internalType": "bytes32",
          "name": "chainHash",
          "type": "bytes32"
        },
        {
          "indexed": true,
          "internalType": "address",
          "name": "erc1155OnMainnet",
          "type": "address"
        },
        {
          "indexed": true,
          "internalType": "address",
          "name": "erc1155OnSchain",
          "type": "address"
        }
      ],
      "name": "ERC1155TokenCreated",
      "type": "event"
    },
    {
      "anonymous": false,
      "inputs": [
        {
          "indexed": true,
          "internalType": "bytes32",
          "name": "chainHash",
          "type": "bytes32"
        },
        {
          "indexed": true,
          "internalType": "address",
          "name": "contractOnMainnet",
          "type": "address"
        },
        {
          "indexed": false,
          "internalType": "uint256[]",
          "name": "ids",
          "type": "uint256[]"
        },
        {
          "indexed": false,
          "internalType": "uint256[]",
          "name": "amounts",
          "type": "uint256[]"
        }
      ],
      "name": "ERC1155TokenReady",
      "type": "event"
    },
    {
      "anonymous": false,
      "inputs": [
        {
          "indexed": true,
          "internalType": "bytes32",
          "name": "chainHash",
          "type": "bytes32"
        },
        {
          "indexed": true,
          "internalType": "address",
          "name": "erc1155OnMainnet",
          "type": "address"
        },
        {
          "indexed": true,
          "internalType": "address",
          "name": "erc1155OnSchain",
          "type": "address"
        },
        {
          "indexed": false,
          "internalType": "uint256[]",
          "name": "ids",
          "type": "uint256[]"
        },
        {
          "indexed": false,
          "internalType": "uint256[]",
          "name": "amounts",
          "type": "uint256[]"
        }
      ],
      "name": "ERC1155TokenReceived",
      "type": "event"
    },
    {
      "anonymous": false,
      "inputs": [
        {
          "indexed": false,
          "internalType": "uint8",
          "name": "version",
          "type": "uint8"
        }
      ],
      "name": "Initialized",
      "type": "event"
    },
    {
      "anonymous": false,
      "inputs": [
        {
          "indexed": true,
          "internalType": "bytes32",
          "name": "role",
          "type": "bytes32"
        },
        {
          "indexed": true,
          "internalType": "bytes32",
          "name": "previousAdminRole",
          "type": "bytes32"
        },
        {
          "indexed": true,
          "internalType": "bytes32",
          "name": "newAdminRole",
          "type": "bytes32"
        }
      ],
      "name": "RoleAdminChanged",
      "type": "event"
    },
    {
      "anonymous": false,
      "inputs": [
        {
          "indexed": true,
          "internalType": "bytes32",
          "name": "role",
          "type": "bytes32"
        },
        {
          "indexed": true,
          "internalType": "address",
          "name": "account",
          "type": "address"
        },
        {
          "indexed": true,
          "internalType": "address",
          "name": "sender",
          "type": "address"
        }
      ],
      "name": "RoleGranted",
      "type": "event"
    },
    {
      "anonymous": false,
      "inputs": [
        {
          "indexed": true,
          "internalType": "bytes32",
          "name": "role",
          "type": "bytes32"
        },
        {
          "indexed": true,
          "internalType": "address",
          "name": "account",
          "type": "address"
        },
        {
          "indexed": true,
          "internalType": "address",
          "name": "sender",
          "type": "address"
        }
      ],
      "name": "RoleRevoked",
      "type": "event"
    },
    {
      "inputs": [],
      "name": "AUTOMATIC_DEPLOY_ROLE",
      "outputs": [
        {
          "internalType": "bytes32",
          "name": "",
          "type": "bytes32"
        }
      ],
      "stateMutability": "view",
      "type": "function"
    },
    {
      "inputs": [],
      "name": "DEFAULT_ADMIN_ROLE",
      "outputs": [
        {
          "internalType": "bytes32",
          "name": "",
          "type": "bytes32"
        }
      ],
      "stateMutability": "view",
      "type": "function"
    },
    {
      "inputs": [],
      "name": "MAINNET_HASH",
      "outputs": [
        {
          "internalType": "bytes32",
          "name": "",
          "type": "bytes32"
        }
      ],
      "stateMutability": "view",
      "type": "function"
    },
    {
      "inputs": [],
      "name": "MAINNET_NAME",
      "outputs": [
        {
          "internalType": "string",
          "name": "",
          "type": "string"
        }
      ],
      "stateMutability": "view",
      "type": "function"
    },
    {
      "inputs": [],
      "name": "TOKEN_REGISTRAR_ROLE",
      "outputs": [
        {
          "internalType": "bytes32",
          "name": "",
          "type": "bytes32"
        }
      ],
      "stateMutability": "view",
      "type": "function"
    },
    {
      "inputs": [
        {
          "internalType": "string",
          "name": "targetChainName",
          "type": "string"
        },
        {
          "internalType": "address",
          "name": "erc1155OnMainnet",
          "type": "address"
        },
        {
          "internalType": "address",
          "name": "erc1155OnSchain",
          "type": "address"
        }
      ],
      "name": "addERC1155TokenByOwner",
      "outputs": [],
      "stateMutability": "nonpayable",
      "type": "function"
    },
    {
      "inputs": [
        {
          "internalType": "string",
          "name": "schainName",
          "type": "string"
        },
        {
          "internalType": "address",
          "name": "newTokenManager",
          "type": "address"
        }
      ],
      "name": "addTokenManager",
      "outputs": [],
      "stateMutability": "nonpayable",
      "type": "function"
    },
    {
      "inputs": [
        {
          "internalType": "contract ERC1155OnChain",
          "name": "",
          "type": "address"
        }
      ],
      "name": "addedClones",
      "outputs": [
        {
          "internalType": "bool",
          "name": "",
          "type": "bool"
        }
      ],
      "stateMutability": "view",
      "type": "function"
    },
    {
      "inputs": [],
      "name": "automaticDeploy",
      "outputs": [
        {
          "internalType": "bool",
          "name": "",
          "type": "bool"
        }
      ],
      "stateMutability": "view",
      "type": "function"
    },
    {
      "inputs": [
        {
          "internalType": "address",
          "name": "newDepositBox",
          "type": "address"
        }
      ],
      "name": "changeDepositBoxAddress",
      "outputs": [],
      "stateMutability": "nonpayable",
      "type": "function"
    },
    {
      "inputs": [
        {
          "internalType": "bytes32",
          "name": "",
          "type": "bytes32"
        },
        {
          "internalType": "address",
          "name": "",
          "type": "address"
        }
      ],
      "name": "clonesErc1155",
      "outputs": [
        {
          "internalType": "contract ERC1155OnChain",
          "name": "",
          "type": "address"
        }
      ],
      "stateMutability": "view",
      "type": "function"
    },
    {
      "inputs": [],
      "name": "communityLocker",
      "outputs": [
        {
          "internalType": "contract ICommunityLocker",
          "name": "",
          "type": "address"
        }
      ],
      "stateMutability": "view",
      "type": "function"
    },
    {
      "inputs": [],
      "name": "depositBox",
      "outputs": [
        {
          "internalType": "address",
          "name": "",
          "type": "address"
        }
      ],
      "stateMutability": "view",
      "type": "function"
    },
    {
      "inputs": [
        {
          "internalType": "address",
          "name": "",
          "type": "address"
        }
      ],
      "name": "deprecatedClonesErc1155",
      "outputs": [
        {
          "internalType": "contract ERC1155OnChain",
          "name": "",
          "type": "address"
        }
      ],
      "stateMutability": "view",
      "type": "function"
    },
    {
      "inputs": [],
      "name": "disableAutomaticDeploy",
      "outputs": [],
      "stateMutability": "nonpayable",
      "type": "function"
    },
    {
      "inputs": [],
      "name": "enableAutomaticDeploy",
      "outputs": [],
      "stateMutability": "nonpayable",
      "type": "function"
    },
    {
      "inputs": [
        {
          "internalType": "address",
          "name": "contractOnMainnet",
          "type": "address"
        },
        {
          "internalType": "uint256",
          "name": "id",
          "type": "uint256"
        },
        {
          "internalType": "uint256",
          "name": "amount",
          "type": "uint256"
        }
      ],
      "name": "exitToMainERC1155",
      "outputs": [],
      "stateMutability": "nonpayable",
      "type": "function"
    },
    {
      "inputs": [
        {
          "internalType": "address",
          "name": "contractOnMainnet",
          "type": "address"
        },
        {
          "internalType": "uint256[]",
          "name": "ids",
          "type": "uint256[]"
        },
        {
          "internalType": "uint256[]",
          "name": "amounts",
          "type": "uint256[]"
        }
      ],
      "name": "exitToMainERC1155Batch",
      "outputs": [],
      "stateMutability": "nonpayable",
      "type": "function"
    },
    {
      "inputs": [
        {
          "internalType": "bytes32",
          "name": "role",
          "type": "bytes32"
        }
      ],
      "name": "getRoleAdmin",
      "outputs": [
        {
          "internalType": "bytes32",
          "name": "",
          "type": "bytes32"
        }
      ],
      "stateMutability": "view",
      "type": "function"
    },
    {
      "inputs": [
        {
          "internalType": "bytes32",
          "name": "role",
          "type": "bytes32"
        },
        {
          "internalType": "uint256",
          "name": "index",
          "type": "uint256"
        }
      ],
      "name": "getRoleMember",
      "outputs": [
        {
          "internalType": "address",
          "name": "",
          "type": "address"
        }
      ],
      "stateMutability": "view",
      "type": "function"
    },
    {
      "inputs": [
        {
          "internalType": "bytes32",
          "name": "role",
          "type": "bytes32"
        }
      ],
      "name": "getRoleMemberCount",
      "outputs": [
        {
          "internalType": "uint256",
          "name": "",
          "type": "uint256"
        }
      ],
      "stateMutability": "view",
      "type": "function"
    },
    {
      "inputs": [
        {
          "internalType": "bytes32",
          "name": "role",
          "type": "bytes32"
        },
        {
          "internalType": "address",
          "name": "account",
          "type": "address"
        }
      ],
      "name": "grantRole",
      "outputs": [],
      "stateMutability": "nonpayable",
      "type": "function"
    },
    {
      "inputs": [
        {
          "internalType": "bytes32",
          "name": "role",
          "type": "bytes32"
        },
        {
          "internalType": "address",
          "name": "account",
          "type": "address"
        }
      ],
      "name": "hasRole",
      "outputs": [
        {
          "internalType": "bool",
          "name": "",
          "type": "bool"
        }
      ],
      "stateMutability": "view",
      "type": "function"
    },
    {
      "inputs": [
        {
          "internalType": "string",
          "name": "schainName",
          "type": "string"
        }
      ],
      "name": "hasTokenManager",
      "outputs": [
        {
          "internalType": "bool",
          "name": "",
          "type": "bool"
        }
      ],
      "stateMutability": "view",
      "type": "function"
    },
    {
      "inputs": [
        {
          "internalType": "string",
          "name": "newChainName",
          "type": "string"
        },
        {
          "internalType": "contract IMessageProxyForSchain",
          "name": "newMessageProxy",
          "type": "address"
        },
        {
          "internalType": "contract ITokenManagerLinker",
          "name": "newIMALinker",
          "type": "address"
        },
        {
          "internalType": "contract ICommunityLocker",
          "name": "newCommunityLocker",
          "type": "address"
        },
        {
          "internalType": "address",
          "name": "newDepositBox",
          "type": "address"
        }
      ],
      "name": "initialize",
      "outputs": [],
      "stateMutability": "nonpayable",
      "type": "function"
    },
    {
      "inputs": [
        {
          "internalType": "string",
          "name": "newSchainName",
          "type": "string"
        },
        {
          "internalType": "contract IMessageProxyForSchain",
          "name": "newMessageProxy",
          "type": "address"
        },
        {
          "internalType": "contract ITokenManagerLinker",
          "name": "newIMALinker",
          "type": "address"
        },
        {
          "internalType": "contract ICommunityLocker",
          "name": "newCommunityLocker",
          "type": "address"
        },
        {
          "internalType": "address",
          "name": "newDepositBox",
          "type": "address"
        }
      ],
      "name": "initializeTokenManager",
      "outputs": [],
      "stateMutability": "nonpayable",
      "type": "function"
    },
    {
      "inputs": [],
      "name": "messageProxy",
      "outputs": [
        {
          "internalType": "contract IMessageProxyForSchain",
          "name": "",
          "type": "address"
        }
      ],
      "stateMutability": "view",
      "type": "function"
    },
    {
      "inputs": [
        {
          "internalType": "address",
          "name": "operator",
          "type": "address"
        },
        {
          "internalType": "address",
          "name": "",
          "type": "address"
        },
        {
          "internalType": "uint256[]",
          "name": "",
          "type": "uint256[]"
        },
        {
          "internalType": "uint256[]",
          "name": "",
          "type": "uint256[]"
        },
        {
          "internalType": "bytes",
          "name": "",
          "type": "bytes"
        }
      ],
      "name": "onERC1155BatchReceived",
      "outputs": [
        {
          "internalType": "bytes4",
          "name": "",
          "type": "bytes4"
        }
      ],
      "stateMutability": "view",
      "type": "function"
    },
    {
      "inputs": [
        {
          "internalType": "address",
          "name": "operator",
          "type": "address"
        },
        {
          "internalType": "address",
          "name": "",
          "type": "address"
        },
        {
          "internalType": "uint256",
          "name": "",
          "type": "uint256"
        },
        {
          "internalType": "uint256",
          "name": "",
          "type": "uint256"
        },
        {
          "internalType": "bytes",
          "name": "",
          "type": "bytes"
        }
      ],
      "name": "onERC1155Received",
      "outputs": [
        {
          "internalType": "bytes4",
          "name": "",
          "type": "bytes4"
        }
      ],
      "stateMutability": "view",
      "type": "function"
    },
    {
      "inputs": [
        {
          "internalType": "bytes32",
          "name": "fromChainHash",
          "type": "bytes32"
        },
        {
          "internalType": "address",
          "name": "sender",
          "type": "address"
        },
        {
          "internalType": "bytes",
          "name": "data",
          "type": "bytes"
        }
      ],
      "name": "postMessage",
      "outputs": [],
      "stateMutability": "nonpayable",
      "type": "function"
    },
    {
      "inputs": [
        {
          "internalType": "string",
          "name": "schainName",
          "type": "string"
        }
      ],
      "name": "removeTokenManager",
      "outputs": [],
      "stateMutability": "nonpayable",
      "type": "function"
    },
    {
      "inputs": [
        {
          "internalType": "bytes32",
          "name": "role",
          "type": "bytes32"
        },
        {
          "internalType": "address",
          "name": "account",
          "type": "address"
        }
      ],
      "name": "renounceRole",
      "outputs": [],
      "stateMutability": "nonpayable",
      "type": "function"
    },
    {
      "inputs": [
        {
          "internalType": "bytes32",
          "name": "role",
          "type": "bytes32"
        },
        {
          "internalType": "address",
          "name": "account",
          "type": "address"
        }
      ],
      "name": "revokeRole",
      "outputs": [],
      "stateMutability": "nonpayable",
      "type": "function"
    },
    {
      "inputs": [],
      "name": "schainHash",
      "outputs": [
        {
          "internalType": "bytes32",
          "name": "",
          "type": "bytes32"
        }
      ],
      "stateMutability": "view",
      "type": "function"
    },
    {
      "inputs": [
        {
          "internalType": "bytes4",
          "name": "interfaceId",
          "type": "bytes4"
        }
      ],
      "name": "supportsInterface",
      "outputs": [
        {
          "internalType": "bool",
          "name": "",
          "type": "bool"
        }
      ],
      "stateMutability": "view",
      "type": "function"
    },
    {
      "inputs": [],
      "name": "tokenManagerLinker",
      "outputs": [
        {
          "internalType": "contract ITokenManagerLinker",
          "name": "",
          "type": "address"
        }
      ],
      "stateMutability": "view",
      "type": "function"
    },
    {
      "inputs": [
        {
          "internalType": "bytes32",
          "name": "",
          "type": "bytes32"
        }
      ],
      "name": "tokenManagers",
      "outputs": [
        {
          "internalType": "address",
          "name": "",
          "type": "address"
        }
      ],
      "stateMutability": "view",
      "type": "function"
    },
    {
      "inputs": [
        {
          "internalType": "string",
          "name": "targetSchainName",
          "type": "string"
        },
        {
          "internalType": "address",
          "name": "contractOnMainnet",
          "type": "address"
        },
        {
          "internalType": "uint256",
          "name": "id",
          "type": "uint256"
        },
        {
          "internalType": "uint256",
          "name": "amount",
          "type": "uint256"
        }
      ],
      "name": "transferToSchainERC1155",
      "outputs": [],
      "stateMutability": "nonpayable",
      "type": "function"
    },
    {
      "inputs": [
        {
          "internalType": "string",
          "name": "targetSchainName",
          "type": "string"
        },
        {
          "internalType": "address",
          "name": "contractOnMainnet",
          "type": "address"
        },
        {
          "internalType": "uint256[]",
          "name": "ids",
          "type": "uint256[]"
        },
        {
          "internalType": "uint256[]",
          "name": "amounts",
          "type": "uint256[]"
        }
      ],
      "name": "transferToSchainERC1155Batch",
      "outputs": [],
      "stateMutability": "nonpayable",
      "type": "function"
    },
    {
      "inputs": [
        {
          "internalType": "bytes32",
          "name": "",
          "type": "bytes32"
        },
        {
          "internalType": "address",
          "name": "",
          "type": "address"
        },
        {
          "internalType": "uint256",
          "name": "",
          "type": "uint256"
        }
      ],
      "name": "transferredAmount",
      "outputs": [
        {
          "internalType": "uint256",
          "name": "",
          "type": "uint256"
        }
      ],
      "stateMutability": "view",
      "type": "function"
    }
  ],
  "bytecode": "0x608060405234801561001057600080fd5b5061822580620000216000396000f3fe60806040523480156200001157600080fd5b5060043610620002795760003560e01c80636d6c68e61162000155578063c5d7666411620000c7578063dec2deb61162000086578063dec2deb6146200064e578063e3e50fa41462000663578063edcc12b5146200068f578063f23a6e6114620006a6578063f5b52e1f14620006bd57600080fd5b8063c5d7666414620005ca578063ca15c87314620005e1578063cb703bff14620005f8578063cc5b715b146200060f578063d547741f146200063757600080fd5b8063a217fddf1162000114578063a217fddf1462000549578063aebaaca91462000552578063b9581c501462000578578063bc197c811462000582578063c0e312dc14620005b357600080fd5b80636d6c68e614620004d95780638369091714620004ed578063884cee5a14620005045780639010d07c146200051b57806391d14854146200053257600080fd5b80632f2ff15d11620001ef57806350f4428011620001ae57806350f44280146200044d5780635573b8b6146200048357806357157cd914620004975780636ce681d214620004ae5780636d61128614620004c557600080fd5b80632f2ff15d14620003e757806336568abe14620003fe57806339927cf914620004155780633b690b6b146200042c5780633fa194ce146200043657600080fd5b806315ecfe5e116200023c57806315ecfe5e1462000355578063248a9ca3146200038c57806328c5e18214620003b25780632d32926214620003bc5780632dc151de14620003d357600080fd5b806301ffc9a7146200027e578063029996b814620002aa5780630b885ac314620002b65780630f1a8f7414620002cd5780631420de3f1462000312575b600080fd5b620002956200028f36600462003e6a565b620006d4565b60405190151581526020015b60405180910390f35b620002b462000702565b005b620002b4620002c736600462003ff0565b6200075a565b620002f9620002de36600462004085565b60ce602052600090815260409020546001600160a01b031681565b6040516001600160a01b039091168152602001620002a1565b62000346620003233660046200409f565b60d260209081526000938452604080852082529284528284209052825290205481565b604051908152602001620002a1565b620002f962000366366004620040da565b60d16020908152600092835260408084209091529082529020546001600160a01b031681565b620003466200039d36600462004085565b60009081526065602052604090206001015490565b6200034662000839565b620002b4620003cd36600462004158565b62000884565b60ca54620002f9906001600160a01b031681565b620002b4620003f8366004620040da565b62000a3c565b620002b46200040f366004620040da565b62000a6a565b6200029562000426366004620041c4565b62000aec565b6200034660cc5481565b62000346600080516020620081d083398151915281565b620004746040518060400160405280600781526020016613585a5b9b995d60ca1b81525081565b604051620002a191906200425d565b60c954620002f9906001600160a01b031681565b620002b4620004a8366004620042b9565b62000b49565b620002b4620004bf36600462003ff0565b62000d05565b60cd54620002f9906001600160a01b031681565b60cb54620002f9906001600160a01b031681565b620002b4620004fe36600462004373565b62000f28565b620002b462000515366004620043fe565b62000ff4565b620002f96200052c3660046200445f565b620011b6565b6200029562000543366004620040da565b620011d7565b62000346600081565b620002956200056336600462004482565b60d06020526000908152604090205460ff1681565b620002b462001202565b6200059962000593366004620044a2565b6200124b565b6040516001600160e01b03199091168152602001620002a1565b620002b4620005c4366004620041c4565b620012d5565b620002b4620005db3660046200456e565b620013f3565b62000346620005f236600462004085565b6200170c565b620002b462000609366004620045dd565b62001725565b620003467ffda70c2cc66a36c14884ee85424961f51b1d92b4494751699b6d105b3bcbcba881565b620002b462000648366004620040da565b6200187d565b60cd546200029590600160a01b900460ff1681565b620002f96200067436600462004482565b60cf602052600090815260409020546001600160a01b031681565b620002b4620006a036600462004482565b620018a6565b62000599620006b736600462004639565b620019c2565b620002b4620006ce366004620046bc565b62001a4a565b60006001600160e01b0319821663112fc36360e01b1480620006fc5750620006fc8262001b0d565b92915050565b6200071d600080516020620081d083398151915233620011d7565b620007455760405162461bcd60e51b81526004016200073c90620046f4565b60405180910390fd5b60cd805460ff60a01b1916600160a01b179055565b600054610100900460ff16158080156200077b5750600054600160ff909116105b80620007975750303b15801562000797575060005460ff166001145b620007b65760405162461bcd60e51b81526004016200073c9062004735565b6000805460ff191660011790558015620007da576000805461ff0019166101001790555b620007e9868686868662000d05565b801562000831576000805461ff0019169055604051600181527f7f26b83ff96e1f2b6a682f133852f6798a09c465da95921460cefb3847402498906020015b60405180910390a15b505050505050565b6040518060400160405280600781526020016613585a5b9b995d60ca1b8152506040516020016200086b919062004783565b6040516020818303038152906040528051906020012081565b84848080601f0160208091040260200160405190810160405280939291908181526020018383808284376000920182905250604051339450909250620008d09150849060200162004783565b60408051601f1981840301815282825280516020918201208383018352600784526613585a5b9b995d60ca1b8483015291519193506200091292910162004783565b604051602081830303815290604052805190602001208103620009495760405162461bcd60e51b81526004016200073c90620047a1565b6001600160a01b038216620009a15760405162461bcd60e51b815260206004820152601a60248201527f496e636f7272656374207265636569766572206164647265737300000000000060448201526064016200073c565b600081815260ce60205260409020546001600160a01b0316620009d85760405162461bcd60e51b81526004016200073c90620047f1565b60008888604051602001620009ef92919062004828565b60408051601f198184030181529181528151602092830120600081815260ce90935291205490915062000a319082906001600160a01b031689338a8a62001b35565b505050505050505050565b60008281526065602052604090206001015462000a598162001eb4565b62000a65838362001ec3565b505050565b6001600160a01b038116331462000adc5760405162461bcd60e51b815260206004820152602f60248201527f416363657373436f6e74726f6c3a2063616e206f6e6c792072656e6f756e636560448201526e103937b632b9903337b91039b2b63360891b60648201526084016200073c565b62000ae8828262001ee9565b5050565b6000806001600160a01b031660ce6000858560405160200162000b1192919062004828565b60408051808303601f19018152918152815160209283012083529082019290925201600020546001600160a01b031614159392505050565b86868080601f016020809104026020016040519081016040528093929190818152602001838380828437600092018290525060405133945090925062000b959150849060200162004783565b60408051601f1981840301815282825280516020918201208383018352600784526613585a5b9b995d60ca1b84830152915191935062000bd792910162004783565b60405160208183030381529060405280519060200120810362000c0e5760405162461bcd60e51b81526004016200073c90620047a1565b6001600160a01b03821662000c665760405162461bcd60e51b815260206004820152601a60248201527f496e636f7272656374207265636569766572206164647265737300000000000060448201526064016200073c565b600081815260ce60205260409020546001600160a01b031662000c9d5760405162461bcd60e51b81526004016200073c90620047f1565b60008a8a60405160200162000cb492919062004828565b60408051601f198184030181529181528151602092830120600081815260ce90935291205490915062000cf89082906001600160a01b03168b338c8c8c8c62001f0f565b5050505050505050505050565b600054610100900460ff161580801562000d265750600054600160ff909116105b8062000d425750303b15801562000d42575060005460ff166001145b62000d615760405162461bcd60e51b81526004016200073c9062004735565b6000805460ff19166001179055801562000d85576000805461ff0019166101001790555b6001600160a01b03821662000ddd5760405162461bcd60e51b815260206004820181905260248201527f4465706f736974426f7820616464726573732068617320746f2062652073657460448201526064016200073c565b62000de762002349565b62000df4600033620023b8565b62000e0f600080516020620081d083398151915233620023b8565b62000e3b7ffda70c2cc66a36c14884ee85424961f51b1d92b4494751699b6d105b3bcbcba833620023b8565b8560405160200162000e4e919062004783565b60408051601f19818403018152828252805160209182012060cc5560c980546001600160a01b038a81166001600160a01b03199283161790925560ca80548a841690831617905560cb805489841690831617905560cd8054928816929091168217905560008452908301527fc968af77923193016f61d74ba6827296db5e1f37ec4fab3ad1ef20e193395e59910160405180910390a1801562000831576000805461ff0019169055604051600181527f7f26b83ff96e1f2b6a682f133852f6798a09c465da95921460cefb38474024989060200162000828565b60cb546040516311be333d60e11b81523360048201526001600160a01b039091169063237c667a90602401600060405180830381600087803b15801562000f6e57600080fd5b505af115801562000f83573d6000803e3d6000fd5b5050505062000fed6040518060400160405280600781526020016613585a5b9b995d60ca1b81525060405160200162000fbd919062004783565b60408051601f19818403018152919052805160209091012060cd546001600160a01b031687338888888862001f0f565b5050505050565b60c9546001600160a01b03163314620010505760405162461bcd60e51b815260206004820152601c60248201527f53656e646572206973206e6f742061204d65737361676550726f78790000000060448201526064016200073c565b838360cc5482141580156200106c57506200106c8282620023c4565b620010ba5760405162461bcd60e51b815260206004820152601b60248201527f526563656976657220636861696e20697320696e636f7272656374000000000060448201526064016200073c565b6000620010c885856200244f565b90506000600982600e811115620010e357620010e362004838565b1480620011045750600a82600e81111562001102576200110262004838565b145b156200111f5762001117888787620024a6565b9050620011ac565b600b82600e81111562001136576200113662004838565b1480620011575750600c82600e81111562001155576200115562004838565b145b156200116a576200111788878762002950565b60405162461bcd60e51b815260206004820152601660248201527526b2b9b9b0b3b2aa3cb8329034b9903ab735b737bbb760511b60448201526064016200073c565b5050505050505050565b6000828152609760205260408120620011d0908362002d95565b9392505050565b60009182526065602090815260408084206001600160a01b0393909316845291905290205460ff1690565b6200121d600080516020620081d083398151915233620011d7565b6200123c5760405162461bcd60e51b81526004016200073c90620046f4565b60cd805460ff60a01b19169055565b60006001600160a01b0389163014620012a75760405162461bcd60e51b815260206004820152601d60248201527f5265766572742045524331313535206261746368207472616e7366657200000060448201526064016200073c565b507fbc197c819b3e337a6f9652dd10becd7eef83032af3b9d958d3d42f669414662198975050505050505050565b60ca546001600160a01b0316331480620012f75750620012f7600033620011d7565b6200133d5760405162461bcd60e51b81526020600482015260156024820152742737ba1030baba3437b934bd32b21031b0b63632b960591b60448201526064016200073c565b600082826040516020016200135492919062004828565b60408051601f198184030181529181528151602092830120600081815260ce9093529120549091506001600160a01b0316620013d35760405162461bcd60e51b815260206004820152601860248201527f546f6b656e204d616e61676572206973206e6f7420736574000000000000000060448201526064016200073c565b600090815260ce6020526040902080546001600160a01b03191690555050565b6200141f7ffda70c2cc66a36c14884ee85424961f51b1d92b4494751699b6d105b3bcbcba833620011d7565b6200146d5760405162461bcd60e51b815260206004820181905260248201527f544f4b454e5f5245474953545241525f524f4c4520697320726571756972656460448201526064016200073c565b60c954604051634ccd5cd560e11b81526001600160a01b039091169063999ab9aa90620014a190879087906004016200484e565b602060405180830381865afa158015620014bf573d6000803e3d6000fd5b505050506040513d601f19601f82011682018060405250810190620014e591906200487d565b6200152c5760405162461bcd60e51b815260206004820152601660248201527510da185a5b881a5cc81b9bdd0818dbdb9b9958dd195960521b60448201526064016200073c565b6001600160a01b0381163b620015855760405162461bcd60e51b815260206004820152601f60248201527f476976656e2061646472657373206973206e6f74206120636f6e74726163740060448201526064016200073c565b600084846040516020016200159c92919062004828565b60408051601f198184030181529181528151602092830120600081815260d184528281206001600160a01b038881168352945291909120549092501615620016205760405162461bcd60e51b8152602060048201526016602482015275436f756c64206e6f742072656c696e6b20636c6f6e6560501b60448201526064016200073c565b6001600160a01b038216600090815260d0602052604090205460ff16156200168b5760405162461bcd60e51b815260206004820152601760248201527f436c6f6e652077617320616c726561647920616464656400000000000000000060448201526064016200073c565b600081815260d1602090815260408083206001600160a01b0387811680865291845282852080546001600160a01b031916918816918217905580855260d0909352818420805460ff1916600117905590519192909184917ff86f4b9b158b421a62f31d8b430c86afba56c6bb611fb82bc115dd030903d36a91a45050505050565b6000818152609760205260408120620006fc9062002da3565b60ca546001600160a01b031633148062001747575062001747600033620011d7565b6200178d5760405162461bcd60e51b81526020600482015260156024820152742737ba1030baba3437b934bd32b21031b0b63632b960591b60448201526064016200073c565b60008383604051602001620017a492919062004828565b60408051601f198184030181529181528151602092830120600081815260ce9093529120549091506001600160a01b031615620018245760405162461bcd60e51b815260206004820152601c60248201527f546f6b656e204d616e6167657220697320616c7265616479207365740000000060448201526064016200073c565b6001600160a01b0382166200184d5760405162461bcd60e51b81526004016200073c90620047f1565b600090815260ce6020526040902080546001600160a01b0319166001600160a01b03929092169190911790555050565b6000828152606560205260409020600101546200189a8162001eb4565b62000a65838362001ee9565b620018b3600033620011d7565b620019015760405162461bcd60e51b815260206004820152601e60248201527f44454641554c545f41444d494e5f524f4c45206973207265717569726564000060448201526064016200073c565b6001600160a01b038116620019595760405162461bcd60e51b815260206004820181905260248201527f4465706f736974426f7820616464726573732068617320746f2062652073657460448201526064016200073c565b60cd54604080516001600160a01b03928316815291831660208301527fc968af77923193016f61d74ba6827296db5e1f37ec4fab3ad1ef20e193395e59910160405180910390a160cd80546001600160a01b0319166001600160a01b0392909216919091179055565b60006001600160a01b038716301462001a1e5760405162461bcd60e51b815260206004820152601760248201527f5265766572742045524331313535207472616e7366657200000000000000000060448201526064016200073c565b507ff23a6e612e1ff4830e658fe43f4e3cb4a5f8170bd5d9e69fb5d7a7fa9e4fdf979695505050505050565b60cb546040516311be333d60e11b81523360048201526001600160a01b039091169063237c667a90602401600060405180830381600087803b15801562001a9057600080fd5b505af115801562001aa5573d6000803e3d6000fd5b5050505062000a656040518060400160405280600781526020016613585a5b9b995d60ca1b81525060405160200162001adf919062004783565b60408051601f19818403018152919052805160209091012060cd546001600160a01b03168533868662001b35565b60006001600160e01b03198216630271189760e51b1480620006fc5750620006fc8262002dae565b600086815260d1602090815260408083206001600160a01b0380891685529252822054168062001ba357506001600160a01b038516600090815260d06020526040902054859060ff161562001b9e5760405162461bcd60e51b81526004016200073c90620048a1565b600191505b6001600160a01b0381163b62001bf75760405162461bcd60e51b81526020600482015260186024820152772737903a37b5b2b71031b637b7329037b71039b1b430b4b760411b60448201526064016200073c565b60405163e985e9c560e01b81523360048201523060248201526001600160a01b0382169063e985e9c590604401602060405180830381865afa15801562001c42573d6000803e3d6000fd5b505050506040513d601f19601f8201168201806040525081019062001c6891906200487d565b62001cb25760405162461bcd60e51b81526020600482015260196024820152782737ba1030b63637bbb2b21022a92198989a9a902a37b5b2b760391b60448201526064016200073c565b600062001cc28787878762002dd6565b9050821562001dd5576040518060400160405280600781526020016613585a5b9b995d60ca1b81525060405160200162001cfd919062004783565b60405160208183030381529060405280519060200120890362001d345760405162461bcd60e51b81526004016200073c90620048d8565b62001d43898333888862002e3f565b905062001d67898362001d568862002f07565b62001d618862002f07565b62002f51565b604051637921219560e11b81526001600160a01b0383169063f242432a9062001d9b90339030908a908a906004016200492b565b600060405180830381600087803b15801562001db657600080fd5b505af115801562001dcb573d6000803e3d6000fd5b5050505062001e3f565b604051637a94c56560e11b815233600482015260248101869052604481018590526001600160a01b0383169063f5298aca90606401600060405180830381600087803b15801562001e2557600080fd5b505af115801562001e3a573d6000803e3d6000fd5b505050505b60c954604051634a24490160e11b81526001600160a01b039091169063944892029062001e75908c908c90869060040162004963565b600060405180830381600087803b15801562001e9057600080fd5b505af115801562001ea5573d6000803e3d6000fd5b50505050505050505050505050565b62001ec081336200305d565b50565b62001ecf8282620030cc565b600082815260976020526040902062000a65908262003156565b62001ef582826200316d565b600082815260976020526040902062000a659082620031d7565b600088815260d1602090815260408083206001600160a01b03808b1685529252822054168062001f7d57506001600160a01b038716600090815260d06020526040902054879060ff161562001f785760405162461bcd60e51b81526004016200073c90620048a1565b600191505b6001600160a01b0381163b62001fd15760405162461bcd60e51b81526020600482015260186024820152772737903a37b5b2b71031b637b7329037b71039b1b430b4b760411b60448201526064016200073c565b60405163e985e9c560e01b81523360048201523060248201526001600160a01b0382169063e985e9c590604401602060405180830381865afa1580156200201c573d6000803e3d6000fd5b505050506040513d601f19601f820116820180604052508101906200204291906200487d565b6200208c5760405162461bcd60e51b81526020600482015260196024820152782737ba1030b63637bbb2b21022a92198989a9a902a37b5b2b760391b60448201526064016200073c565b6000620020ff898989898080602002602001604051908101604052809392919081815260200183836020028082843760009201919091525050604080516020808d0282810182019093528c82529093508c92508b918291850190849080828437600092019190915250620031ee92505050565b9050821562002267576040518060400160405280600781526020016613585a5b9b995d60ca1b8152506040516020016200213a919062004783565b604051602081830303815290604052805190602001208b03620021715760405162461bcd60e51b81526004016200073c90620048d8565b620021828b83338a8a8a8a6200323d565b9050620021f58b8389898080602002602001604051908101604052809392919081815260200183836020028082843760009201919091525050604080516020808d0282810182019093528c82529093508c92508b91829185019084908082843760009201919091525062002f5192505050565b604051631759616b60e11b81526001600160a01b03831690632eb2c2d6906200222d90339030908c908c908c908c90600401620049cb565b600060405180830381600087803b1580156200224857600080fd5b505af11580156200225d573d6000803e3d6000fd5b50505050620022d2565b604051631ac8311560e21b81526001600160a01b03831690636b20c454906200229d9033908b908b908b908b9060040162004a2e565b600060405180830381600087803b158015620022b857600080fd5b505af1158015620022cd573d6000803e3d6000fd5b505050505b60c954604051634a24490160e11b81526001600160a01b039091169063944892029062002308908e908e90869060040162004963565b600060405180830381600087803b1580156200232357600080fd5b505af115801562002338573d6000803e3d6000fd5b505050505050505050505050505050565b600054610100900460ff16620023b65760405162461bcd60e51b815260206004820152602b60248201527f496e697469616c697a61626c653a20636f6e7472616374206973206e6f74206960448201526a6e697469616c697a696e6760a81b60648201526084016200073c565b565b62000ae8828262001ec3565b60006040518060400160405280600781526020016613585a5b9b995d60ca1b815250604051602001620023f8919062004783565b6040516020818303038152906040528051906020012083146200243857600083815260ce60205260409020546001600160a01b03838116911614620011d0565b5060cd546001600160a01b03908116911614919050565b600080620024608385018562004085565b90506200246f60208262004a76565b60000362002498576200248f620024898483818862004a99565b6200244f565b915050620006fc565b6200248f8385018562004ada565b600080620024b584846200244f565b9050600080808080600986600e811115620024d457620024d462004838565b0362002559576000620024e88a8a620033bf565b90508060400151955080602001519450806060015193508060800151925060d160008c81526020019081526020016000206000866001600160a01b03166001600160a01b0316815260200190815260200160002060009054906101000a90046001600160a01b031691505062002716565b6000620025678a8a6200347b565b9050806000015160400151955080600001516020015194508060000151606001519350806000015160800151925060d160008c81526020019081526020016000206000866001600160a01b03166001600160a01b0316815260200190815260200160002060009054906101000a90046001600160a01b0316915060006001600160a01b0316826001600160a01b031603620027145760cd54600160a01b900460ff16620026575760405162461bcd60e51b815260206004820152601c60248201527f4175746f6d61746963206465706c6f792069732064697361626c65640000000060448201526064016200073c565b6020810151516040516200266b9062003dc4565b6200267791906200425d565b604051809103906000f08015801562002694573d6000803e3d6000fd5b5060008c815260d1602090815260408083206001600160a01b038a811680865291845282852080546001600160a01b031916918716918217905580855260d0909352818420805460ff191660011790559051939550909290918e917fae5aabebaedd1b95e68d95d1bc05734a63a8e451f94b37864515b78c532247d99190a45b505b600986600e8111156200272d576200272d62004838565b1480156200278257506040518060400160405280600781526020016613585a5b9b995d60ca1b81525060405160200162002768919062004783565b604051602081830303815290604052805190602001208a14155b8015620027a4575060008a815260d360205260409020620027a490856200351d565b1562002864576001600160a01b0384163b620027d45760405162461bcd60e51b81526004016200073c90620048a1565b620027f68a85620027e58662002f07565b620027f08662002f07565b62003540565b604051637921219560e11b81526001600160a01b0385169063f242432a906200282a9030908990889088906004016200492b565b600060405180830381600087803b1580156200284557600080fd5b505af11580156200285a573d6000803e3d6000fd5b50505050620028de565b60405163731133e960e01b81526001600160a01b0386811660048301526024820185905260448201849052608060648301526000608483015282169063731133e99060a401600060405180830381600087803b158015620028c457600080fd5b505af1158015620028d9573d6000803e3d6000fd5b505050505b806001600160a01b0316846001600160a01b03168b7f2349a6dafaf84dd371a44cd78bd587d9e750c3dfa1137d21f34f00e0d4babcb26200291f8762002f07565b6200292a8762002f07565b6040516200293a92919062004b35565b60405180910390a4509298975050505050505050565b6000806200295f84846200244f565b905060008060608082600b86600e8111156200297f576200297f62004838565b0362002a04576000620029938a8a6200364c565b90508060400151955080602001519450806060015193508060800151925060d160008c81526020019081526020016000206000866001600160a01b03166001600160a01b0316815260200190815260200160002060009054906101000a90046001600160a01b031691505062002bac565b600062002a128a8a6200370d565b9050806000015160400151955080600001516020015194508060000151606001519350806000015160800151925060d160008c81526020019081526020016000206000866001600160a01b03166001600160a01b0316815260200190815260200160002060009054906101000a90046001600160a01b0316915060006001600160a01b0316826001600160a01b03160362002baa5760cd54600160a01b900460ff1662002b025760405162461bcd60e51b815260206004820152601c60248201527f4175746f6d61746963206465706c6f792069732064697361626c65640000000060448201526064016200073c565b60208101515160405162002b169062003dc4565b62002b2291906200425d565b604051809103906000f08015801562002b3f573d6000803e3d6000fd5b5060008c815260d1602090815260408083206001600160a01b038a81168086529190935281842080546001600160a01b03191693861693841790559051939550909290918e917fae5aabebaedd1b95e68d95d1bc05734a63a8e451f94b37864515b78c532247d99190a45b505b600b86600e81111562002bc35762002bc362004838565b14801562002c1857506040518060400160405280600781526020016613585a5b9b995d60ca1b81525060405160200162002bfe919062004783565b604051602081830303815290604052805190602001208a14155b801562002c3a575060008a815260d36020526040902062002c3a90856200351d565b1562002ce6576001600160a01b0384163b62002c6a5760405162461bcd60e51b81526004016200073c90620048a1565b62002c788a85858562003540565b604051631759616b60e11b81526001600160a01b03851690632eb2c2d69062002cac90309089908890889060040162004b5e565b600060405180830381600087803b15801562002cc757600080fd5b505af115801562002cdc573d6000803e3d6000fd5b5050505062002d4d565b604051630fbfeffd60e11b81526001600160a01b03821690631f7fdffa9062002d189088908790879060040162004bbd565b600060405180830381600087803b15801562002d3357600080fd5b505af115801562002d48573d6000803e3d6000fd5b505050505b806001600160a01b0316846001600160a01b03168b7f2349a6dafaf84dd371a44cd78bd587d9e750c3dfa1137d21f34f00e0d4babcb286866040516200293a92919062004b35565b6000620011d08383620037b4565b6000620006fc825490565b60006001600160e01b03198216635a05180f60e01b1480620006fc5750620006fc82620037e1565b6040805160c081018252600960a0820190815281526001600160a01b0380871660208084019190915290861682840152606080830186905260808301859052925162002e259183910162004c81565b604051602081830303815290604052915050949350505050565b600085815260d3602052604081206060919062002e5d90876200351d565b90508062002e925762002e71878762003818565b62002e8a8686868662002e848b62003931565b620039c2565b915062002ea3565b62002ea08686868662002dd6565b91505b856001600160a01b0316877f601046fc8dbb772c2b88d30850532ffec5253f2e73c855af1c5f318a7a4562b062002eda8762002f07565b62002ee58762002f07565b60405162002ef592919062004b35565b60405180910390a35095945050505050565b60408051600180825281830190925260609160208083019080368337019050509050818160008151811062002f405762002f4062004c91565b602002602001018181525050919050565b805182511462002fa45760405162461bcd60e51b815260206004820152601a60248201527f496e636f7272656374206c656e677468206f662061727261797300000000000060448201526064016200073c565b60005b825181101562000fed5781818151811062002fc65762002fc662004c91565b602002602001015160d260008781526020019081526020016000206000866001600160a01b03166001600160a01b0316815260200190815260200160002060008584815181106200301b576200301b62004c91565b60200260200101518152602001908152602001600020600082825462003042919062004cbd565b90915550819050620030548162004cd3565b91505062002fa7565b620030698282620011d7565b62000ae85762003084816001600160a01b0316601462003a49565b6200309183602062003a49565b604051602001620030a492919062004cef565b60408051601f198184030181529082905262461bcd60e51b82526200073c916004016200425d565b620030d88282620011d7565b62000ae85760008281526065602090815260408083206001600160a01b03851684529091529020805460ff19166001179055620031123390565b6001600160a01b0316816001600160a01b0316837f2f8788117e7eff1d82e926ec794901d17c78024a50270940304540a733656f0d60405160405180910390a45050565b6000620011d0836001600160a01b03841662003c02565b620031798282620011d7565b1562000ae85760008281526065602090815260408083206001600160a01b0385168085529252808320805460ff1916905551339285917ff6391f5c32d9c69d2a47ea670b442974b53935d1edc7fd64eb21e047a839171b9190a45050565b6000620011d0836001600160a01b03841662003c54565b6040805160c081018252600b60a0820190815281526001600160a01b0380871660208084019190915290861682840152606080830186905260808301859052925162002e259183910162004dcf565b600087815260d360205260408120606091906200325b90896200351d565b905080620032f5576200326f898962003818565b620032ed888888888080602002602001604051908101604052809392919081815260200183836020028082843760009201919091525050604080516020808c0282810182019093528b82529093508b92508a918291850190849080828437600092019190915250620032e792508f9150620039319050565b62003d58565b915062003369565b62003366888888888080602002602001604051908101604052809392919081815260200183836020028082843760009201919091525050604080516020808c0282810182019093528b82529093508b92508a918291850190849080828437600092019190915250620031ee92505050565b91505b876001600160a01b0316897f601046fc8dbb772c2b88d30850532ffec5253f2e73c855af1c5f318a7a4562b088888888604051620033ab949392919062004de4565b60405180910390a350979650505050505050565b6040805160c081018252600060a082018181528252602082018190529181018290526060810182905260808101919091526009620033fe84846200244f565b600e81111562003412576200341262004838565b146200346d5760405162461bcd60e51b8152602060048201526024808201527f4d6573736167652074797065206973206e6f742045524331313535207472616e60448201526339b332b960e11b60648201526084016200073c565b620011d08284018462004ebf565b6200348562003dd2565b600a6200349384846200244f565b600e811115620034a757620034a762004838565b146200350f5760405162461bcd60e51b815260206004820152603060248201527f4d6573736167652074797065206973206e6f742045524331313535416e64546f60448201526f35b2b724b73337903a3930b739b332b960811b60648201526084016200073c565b620011d08284018462004f2b565b6001600160a01b03811660009081526001830160205260408120541515620011d0565b8051825114620035935760405162461bcd60e51b815260206004820152601a60248201527f496e636f7272656374206c656e677468206f662061727261797300000000000060448201526064016200073c565b60005b825181101562000fed57818181518110620035b557620035b562004c91565b602002602001015160d260008781526020019081526020016000206000866001600160a01b03166001600160a01b0316815260200190815260200160002060008584815181106200360a576200360a62004c91565b60200260200101518152602001908152602001600020600082825462003631919062004fb3565b90915550819050620036438162004cd3565b91505062003596565b6040805160c081018252600060a082018181528252602082018190529181019190915260608082018190526080820152600b6200368a84846200244f565b600e8111156200369e576200369e62004838565b14620036ff5760405162461bcd60e51b815260206004820152602960248201527f4d6573736167652074797065206973206e6f7420455243313135354261746368604482015268103a3930b739b332b960b91b60648201526084016200073c565b620011d082840184620050fb565b6200371762003e2b565b600c6200372584846200244f565b600e81111562003739576200373962004838565b14620037a65760405162461bcd60e51b815260206004820152603560248201527f4d6573736167652074797065206973206e6f742045524331313535426174636860448201527420b7322a37b5b2b724b73337903a3930b739b332b960591b60648201526084016200073c565b620011d0828401846200513b565b6000826000018281548110620037ce57620037ce62004c91565b9060005260206000200154905092915050565b60006001600160e01b03198216637965db0b60e01b1480620006fc57506301ffc9a760e01b6001600160e01b0319831614620006fc565b6001600160a01b0381163b620038715760405162461bcd60e51b815260206004820152601f60248201527f476976656e2061646472657373206973206e6f74206120636f6e74726163740060448201526064016200073c565b600082815260d3602052604090206200388b90826200351d565b15620038da5760405162461bcd60e51b815260206004820152601f60248201527f4552433131353520546f6b656e2077617320616c72656164792061646465640060448201526064016200073c565b600082815260d360205260409020620038f4908262003156565b506040516000906001600160a01b0383169084907ff86f4b9b158b421a62f31d8b430c86afba56c6bb611fb82bc115dd030903d36a908490a45050565b6040805160208101909152606081526040805160208101918290526303a24d0760e21b90915260006024820152806001600160a01b038416630e89341c60448301600060405180830381865afa15801562003990573d6000803e3d6000fd5b505050506040513d6000823e601f3d908101601f19168201604052620039ba9190810190620051b9565b905292915050565b604080516101008101825260609160009190819081018060e0830180600a81525081526020018a6001600160a01b03168152602001896001600160a01b031681526020018881526020018781525081526020018481525090508060405160200162003a2e91906200522f565b60405160208183030381529060405291505095945050505050565b6060600062003a5a8360026200526b565b62003a6790600262004cbd565b6001600160401b0381111562003a815762003a8162003e96565b6040519080825280601f01601f19166020018201604052801562003aac576020820181803683370190505b509050600360fc1b8160008151811062003aca5762003aca62004c91565b60200101906001600160f81b031916908160001a905350600f60fb1b8160018151811062003afc5762003afc62004c91565b60200101906001600160f81b031916908160001a905350600062003b228460026200526b565b62003b2f90600162004cbd565b90505b600181111562003bb1576f181899199a1a9b1b9c1cb0b131b232b360811b85600f166010811062003b675762003b6762004c91565b1a60f81b82828151811062003b805762003b8062004c91565b60200101906001600160f81b031916908160001a90535060049490941c9362003ba9816200528d565b905062003b32565b508315620011d05760405162461bcd60e51b815260206004820181905260248201527f537472696e67733a20686578206c656e67746820696e73756666696369656e7460448201526064016200073c565b600081815260018301602052604081205462003c4b57508154600181810184556000848152602080822090930184905584548482528286019093526040902091909155620006fc565b506000620006fc565b6000818152600183016020526040812054801562003d4d57600062003c7b60018362004fb3565b855490915060009062003c919060019062004fb3565b905081811462003cfd57600086600001828154811062003cb55762003cb562004c91565b906000526020600020015490508087600001848154811062003cdb5762003cdb62004c91565b6000918252602080832090910192909255918252600188019052604090208390555b855486908062003d115762003d11620052a7565b600190038181906000526020600020016000905590558560010160008681526020019081526020016000206000905560019350505050620006fc565b6000915050620006fc565b604080516101008101825260609160009190819081018060e0830180600c81525081526020018a6001600160a01b03168152602001896001600160a01b031681526020018881526020018781525081526020018481525090508060405160200162003a2e9190620052bd565b612ecd806200530383390190565b6040805161010081018252600060e08201818152928201928352606082018190526080820181905260a0820181905260c08201529081905b815260200162003e266040518060200160405280606081525090565b905290565b6040805161010081018252600060e082018181529282019283526060808301829052608083019190915260a0820181905260c082015290819062003e0a565b60006020828403121562003e7d57600080fd5b81356001600160e01b031981168114620011d057600080fd5b634e487b7160e01b600052604160045260246000fd5b604051602081016001600160401b038111828210171562003ed15762003ed162003e96565b60405290565b60405160a081016001600160401b038111828210171562003ed15762003ed162003e96565b604080519081016001600160401b038111828210171562003ed15762003ed162003e96565b604051601f8201601f191681016001600160401b038111828210171562003f4c5762003f4c62003e96565b604052919050565b60006001600160401b0382111562003f705762003f7062003e96565b50601f01601f191660200190565b600082601f83011262003f9057600080fd5b813562003fa762003fa18262003f54565b62003f21565b81815284602083860101111562003fbd57600080fd5b816020850160208301376000918101602001919091529392505050565b6001600160a01b038116811462001ec057600080fd5b600080600080600060a086880312156200400957600080fd5b85356001600160401b038111156200402057600080fd5b6200402e8882890162003f7e565b9550506020860135620040418162003fda565b93506040860135620040538162003fda565b92506060860135620040658162003fda565b91506080860135620040778162003fda565b809150509295509295909350565b6000602082840312156200409857600080fd5b5035919050565b600080600060608486031215620040b557600080fd5b833592506020840135620040c98162003fda565b929592945050506040919091013590565b60008060408385031215620040ee57600080fd5b823591506020830135620041028162003fda565b809150509250929050565b60008083601f8401126200412057600080fd5b5081356001600160401b038111156200413857600080fd5b6020830191508360208285010111156200415157600080fd5b9250929050565b6000806000806000608086880312156200417157600080fd5b85356001600160401b038111156200418857600080fd5b62004196888289016200410d565b9096509450506020860135620041ac8162003fda565b94979396509394604081013594506060013592915050565b60008060208385031215620041d857600080fd5b82356001600160401b03811115620041ef57600080fd5b620041fd858286016200410d565b90969095509350505050565b60005b83811015620042265781810151838201526020016200420c565b50506000910152565b600081518084526200424981602086016020860162004209565b601f01601f19169290920160200192915050565b602081526000620011d060208301846200422f565b60008083601f8401126200428557600080fd5b5081356001600160401b038111156200429d57600080fd5b6020830191508360208260051b85010111156200415157600080fd5b60008060008060008060006080888a031215620042d557600080fd5b87356001600160401b0380821115620042ed57600080fd5b620042fb8b838c016200410d565b909950975060208a01359150620043128262003fda565b909550604089013590808211156200432957600080fd5b620043378b838c0162004272565b909650945060608a01359150808211156200435157600080fd5b50620043608a828b0162004272565b989b979a50959850939692959293505050565b6000806000806000606086880312156200438c57600080fd5b8535620043998162003fda565b945060208601356001600160401b0380821115620043b657600080fd5b620043c489838a0162004272565b90965094506040880135915080821115620043de57600080fd5b50620043ed8882890162004272565b969995985093965092949392505050565b600080600080606085870312156200441557600080fd5b843593506020850135620044298162003fda565b925060408501356001600160401b038111156200444557600080fd5b62004453878288016200410d565b95989497509550505050565b600080604083850312156200447357600080fd5b50508035926020909101359150565b6000602082840312156200449557600080fd5b8135620011d08162003fda565b60008060008060008060008060a0898b031215620044bf57600080fd5b8835620044cc8162003fda565b97506020890135620044de8162003fda565b965060408901356001600160401b0380821115620044fb57600080fd5b620045098c838d0162004272565b909850965060608b01359150808211156200452357600080fd5b620045318c838d0162004272565b909650945060808b01359150808211156200454b57600080fd5b506200455a8b828c016200410d565b999c989b5096995094979396929594505050565b600080600080606085870312156200458557600080fd5b84356001600160401b038111156200459c57600080fd5b620045aa878288016200410d565b9095509350506020850135620045c08162003fda565b91506040850135620045d28162003fda565b939692955090935050565b600080600060408486031215620045f357600080fd5b83356001600160401b038111156200460a57600080fd5b62004618868287016200410d565b90945092505060208401356200462e8162003fda565b809150509250925092565b60008060008060008060a087890312156200465357600080fd5b8635620046608162003fda565b95506020870135620046728162003fda565b9450604087013593506060870135925060808701356001600160401b038111156200469c57600080fd5b620046aa89828a016200410d565b979a9699509497509295939492505050565b600080600060608486031215620046d257600080fd5b8335620046df8162003fda565b95602085013595506040909401359392505050565b60208082526021908201527f4155544f4d415449435f4445504c4f595f524f4c4520697320726571756972656040820152601960fa1b606082015260800190565b6020808252602e908201527f496e697469616c697a61626c653a20636f6e747261637420697320616c72656160408201526d191e481a5b9a5d1a585b1a5e995960921b606082015260800190565b600082516200479781846020870162004209565b9190910192915050565b60208082526030908201527f546869732066756e6374696f6e206973206e6f7420666f72207472616e73666560408201526f1c9c9a5b99c81d1bc813585a5b9b995d60821b606082015260800190565b6020808252601f908201527f496e636f727265637420546f6b656e204d616e61676572206164647265737300604082015260600190565b8183823760009101908152919050565b634e487b7160e01b600052602160045260246000fd5b60208152816020820152818360408301376000818301604090810191909152601f909201601f19160101919050565b6000602082840312156200489057600080fd5b81518015158114620011d057600080fd5b6020808252601a908201527f496e636f7272656374206d61696e20636861696e20746f6b656e000000000000604082015260600190565b60208082526033908201527f4d61696e20636861696e20746f6b656e20636f756c64206e6f74206265207472604082015272185b9cd9995c9959081d1bc813585a5b9b995d606a1b606082015260800190565b6001600160a01b0394851681529290931660208301526040820152606081019190915260a06080820181905260009082015260c00190565b8381526001600160a01b03831660208201526060604082018190526000906200498f908301846200422f565b95945050505050565b81835260006001600160fb1b03831115620049b257600080fd5b8260051b80836020870137939093016020019392505050565b6001600160a01b0387811682528616602082015260a060408201819052600090620049fa908301868862004998565b828103606084015262004a0f81858762004998565b8381036080909401939093525050600081526020019695505050505050565b6001600160a01b038616815260606020820181905260009062004a55908301868862004998565b828103604084015262004a6a81858762004998565b98975050505050505050565b60008262004a9457634e487b7160e01b600052601260045260246000fd5b500690565b6000808585111562004aaa57600080fd5b8386111562004ab857600080fd5b5050820193919092039150565b8035600f811062004ad557600080fd5b919050565b60006020828403121562004aed57600080fd5b620011d08262004ac5565b600081518084526020808501945080840160005b8381101562004b2a5781518752958201959082019060010162004b0c565b509495945050505050565b60408152600062004b4a604083018562004af8565b82810360208401526200498f818562004af8565b6001600160a01b0385811682528416602082015260a06040820181905260009062004b8c9083018562004af8565b828103606084015262004ba0818562004af8565b838103608090940193909352505060008152602001949350505050565b6001600160a01b038416815260806020820181905260009062004be39083018562004af8565b828103604084015262004bf7818562004af8565b8381036060909401939093525050600081526020019392505050565b8051600f811062004c3457634e487b7160e01b600052602160045260246000fd5b90915250565b62004c4782825162004c13565b6020818101516001600160a01b03908116918401919091526040808301519091169083015260608082015190830152608090810151910152565b60a08101620006fc828462004c3a565b634e487b7160e01b600052603260045260246000fd5b634e487b7160e01b600052601160045260246000fd5b80820180821115620006fc57620006fc62004ca7565b60006001820162004ce85762004ce862004ca7565b5060010190565b7f416363657373436f6e74726f6c3a206163636f756e742000000000000000000081526000835162004d2981601785016020880162004209565b7001034b99036b4b9b9b4b733903937b6329607d1b601791840191820152835162004d5c81602884016020880162004209565b01602801949350505050565b62004d7582825162004c13565b6000602082015160018060a01b0380821660208601528060408501511660408601525050606082015160a0606085015262004db460a085018262004af8565b9050608083015184820360808601526200498f828262004af8565b602081526000620011d0602083018462004d68565b60408152600062004dfa60408301868862004998565b828103602084015262004e0f81858762004998565b979650505050505050565b60006020828403121562004e2d57600080fd5b62004e3762003eac565b905062004e448262004ac5565b815292915050565b600060a0828403121562004e5f57600080fd5b62004e6962003ed7565b905062004e77838362004e1a565b8152602082013562004e898162003fda565b6020820152604082013562004e9e8162003fda565b80604083015250606082013560608201526080820135608082015292915050565b600060a0828403121562004ed257600080fd5b620011d0838362004e4c565b60006020828403121562004ef157600080fd5b62004efb62003eac565b905081356001600160401b0381111562004f1457600080fd5b62004f228482850162003f7e565b82525092915050565b60006020828403121562004f3e57600080fd5b81356001600160401b038082111562004f5657600080fd5b9083019060c0828603121562004f6b57600080fd5b62004f7562003efc565b62004f81868462004e4c565b815260a08301358281111562004f9657600080fd5b62004fa48782860162004ede565b60208301525095945050505050565b81810381811115620006fc57620006fc62004ca7565b600082601f83011262004fdb57600080fd5b813560206001600160401b0382111562004ff95762004ff962003e96565b8160051b6200500a82820162003f21565b92835284810182019282810190878511156200502557600080fd5b83870192505b8483101562004e0f578235825291830191908301906200502b565b600060a082840312156200505957600080fd5b6200506362003ed7565b905062005071838362004e1a565b81526020820135620050838162003fda565b60208201526040820135620050988162003fda565b604082015260608201356001600160401b0380821115620050b857600080fd5b620050c68583860162004fc9565b60608401526080840135915080821115620050e057600080fd5b50620050ef8482850162004fc9565b60808301525092915050565b6000602082840312156200510e57600080fd5b81356001600160401b038111156200512557600080fd5b620051338482850162005046565b949350505050565b6000602082840312156200514e57600080fd5b81356001600160401b03808211156200516657600080fd5b90830190604082860312156200517b57600080fd5b6200518562003efc565b8235828111156200519557600080fd5b620051a38782860162005046565b82525060208301358281111562004f9657600080fd5b600060208284031215620051cc57600080fd5b81516001600160401b03811115620051e357600080fd5b8201601f81018413620051f557600080fd5b80516200520662003fa18262003f54565b8181528560208385010111156200521c57600080fd5b6200498f82602083016020860162004209565b602081526200524360208201835162004c3a565b6000602083015160c08084015280519050602060e0840152620051336101008401826200422f565b600081600019048311821515161562005288576200528862004ca7565b500290565b6000816200529f576200529f62004ca7565b506000190190565b634e487b7160e01b600052603160045260246000fd5b602081526000825160406020840152620052db606084018262004d68565b602085810151858303601f19016040870152518183529192506200498f908301826200422f56fe60806040523480156200001157600080fd5b5060405162002ecd38038062002ecd8339810160408190526200003491620004ed565b600054610100900460ff1615808015620000555750600054600160ff909116105b806200008557506200007230620001d760201b620009121760201c565b15801562000085575060005460ff166001145b620000ee5760405162461bcd60e51b815260206004820152602e60248201527f496e697469616c697a61626c653a20636f6e747261637420697320616c72656160448201526d191e481a5b9a5d1a585b1a5e995960921b60648201526084015b60405180910390fd5b6000805460ff19166001179055801562000112576000805461ff0019166101001790555b62000127620001e660201b620009211760201c565b6200013d826200024460201b6200094a1760201c565b62000152620001e660201b620009211760201c565b6200016d60008051602062002ead83398151915280620002ae565b6200018860008051602062002ead83398151915233620002f9565b8015620001cf576000805461ff0019169055604051600181527f7f26b83ff96e1f2b6a682f133852f6798a09c465da95921460cefb38474024989060200160405180910390a15b50506200071c565b6001600160a01b03163b151590565b600054610100900460ff16620002425760405162461bcd60e51b815260206004820152602b602482015260008051602062002e8d83398151915260448201526a6e697469616c697a696e6760a81b6064820152608401620000e5565b565b600054610100900460ff16620002a05760405162461bcd60e51b815260206004820152602b602482015260008051602062002e8d83398151915260448201526a6e697469616c697a696e6760a81b6064820152608401620000e5565b620002ab8162000309565b50565b600082815260656020526040808220600101805490849055905190918391839186917fbd79b86ffe0ab8e8776151514217cd7cacd52c909f66475c3af44e129f0b00ff9190a4505050565b62000305828262000370565b5050565b600054610100900460ff16620003655760405162461bcd60e51b815260206004820152602b602482015260008051602062002e8d83398151915260448201526a6e697469616c697a696e6760a81b6064820152608401620000e5565b620002ab81620003b3565b620003878282620003c160201b6200097d1760201c565b6000828152609760209081526040909120620003ae91839062000a0362000465821b17901c565b505050565b60cb62000305828262000650565b60008281526065602090815260408083206001600160a01b038516845290915290205460ff16620003055760008281526065602090815260408083206001600160a01b03851684529091529020805460ff19166001179055620004213390565b6001600160a01b0316816001600160a01b0316837f2f8788117e7eff1d82e926ec794901d17c78024a50270940304540a733656f0d60405160405180910390a45050565b60006200047c836001600160a01b03841662000485565b90505b92915050565b6000818152600183016020526040812054620004ce575081546001818101845560008481526020808220909301849055845484825282860190935260409020919091556200047f565b5060006200047f565b634e487b7160e01b600052604160045260246000fd5b600060208083850312156200050157600080fd5b82516001600160401b03808211156200051957600080fd5b818501915085601f8301126200052e57600080fd5b815181811115620005435762000543620004d7565b604051601f8201601f19908116603f011681019083821181831017156200056e576200056e620004d7565b8160405282815288868487010111156200058757600080fd5b600093505b82841015620005ab57848401860151818501870152928501926200058c565b600086848301015280965050505050505092915050565b600181811c90821680620005d757607f821691505b602082108103620005f857634e487b7160e01b600052602260045260246000fd5b50919050565b601f821115620003ae57600081815260208120601f850160051c81016020861015620006275750805b601f850160051c820191505b81811015620006485782815560010162000633565b505050505050565b81516001600160401b038111156200066c576200066c620004d7565b62000684816200067d8454620005c2565b84620005fe565b602080601f831160018114620006bc5760008415620006a35750858301515b600019600386901b1c1916600185901b17855562000648565b600085815260208120601f198616915b82811015620006ed57888601518255948401946001909101908401620006cc565b50858210156200070c5787850151600019600388901b60f8161c191681555b5050505050600190811b01905550565b612761806200072c6000396000f3fe608060405234801561001057600080fd5b50600436106101365760003560e01c8063731133e9116100b8578063ca15c8731161007c578063ca15c873146102b4578063d5391393146102c7578063d547741f146102ee578063e985e9c514610301578063f242432a1461033d578063f5298aca1461035057600080fd5b8063731133e9146102485780639010d07c1461025b57806391d1485414610286578063a217fddf14610299578063a22cb465146102a157600080fd5b80632eb2c2d6116100ff5780632eb2c2d6146101dc5780632f2ff15d146101ef57806336568abe146102025780634e1273f4146102155780636b20c4541461023557600080fd5b8062fdd58e1461013b57806301ffc9a7146101615780630e89341c146101845780631f7fdffa146101a4578063248a9ca3146101b9575b600080fd5b61014e610149366004611a1f565b610363565b6040519081526020015b60405180910390f35b61017461016f366004611a5f565b6103fe565b6040519015158152602001610158565b610197610192366004611a7c565b610409565b6040516101589190611ae5565b6101b76101b2366004611c41565b61049d565b005b61014e6101c7366004611a7c565b60009081526065602052604090206001015490565b6101b76101ea366004611cd9565b61051e565b6101b76101fd366004611d82565b61056a565b6101b7610210366004611d82565b610594565b610228610223366004611dae565b610612565b6040516101589190611eb3565b6101b7610243366004611ec6565b61073b565b6101b7610256366004611f39565b61077e565b61026e610269366004611f8d565b6107f9565b6040516001600160a01b039091168152602001610158565b610174610294366004611d82565b610818565b61014e600081565b6101b76102af366004611faf565b610843565b61014e6102c2366004611a7c565b61084e565b61014e7f9f2df0fed2c77648de5860a4cc508cd0818c85b8b8a1ab4ceeef8d981c8956a681565b6101b76102fc366004611d82565b610865565b61017461030f366004611feb565b6001600160a01b03918216600090815260ca6020908152604080832093909416825291909152205460ff1690565b6101b761034b366004612015565b61088a565b6101b761035e366004612079565b6108cf565b60006001600160a01b0383166103d35760405162461bcd60e51b815260206004820152602a60248201527f455243313135353a2061646472657373207a65726f206973206e6f742061207660448201526930b634b21037bbb732b960b11b60648201526084015b60405180910390fd5b50600081815260c9602090815260408083206001600160a01b03861684529091529020545b92915050565b60006103f882610a18565b606060cb8054610418906120ac565b80601f0160208091040260200160405190810160405280929190818152602001828054610444906120ac565b80156104915780601f1061046657610100808354040283529160200191610491565b820191906000526020600020905b81548152906001019060200180831161047457829003601f168201915b50505050509050919050565b6104c77f9f2df0fed2c77648de5860a4cc508cd0818c85b8b8a1ab4ceeef8d981c8956a633610818565b61050c5760405162461bcd60e51b815260206004820152601660248201527529b2b73232b91034b9903737ba10309026b4b73a32b960511b60448201526064016103ca565b61051884848484610a58565b50505050565b6001600160a01b03851633148061053a575061053a853361030f565b6105565760405162461bcd60e51b81526004016103ca906120e6565b6105638585858585610ba4565b5050505050565b60008281526065602052604090206001015461058581610d43565b61058f8383610d4d565b505050565b6001600160a01b03811633146106045760405162461bcd60e51b815260206004820152602f60248201527f416363657373436f6e74726f6c3a2063616e206f6e6c792072656e6f756e636560448201526e103937b632b9903337b91039b2b63360891b60648201526084016103ca565b61060e8282610d6f565b5050565b606081518351146106775760405162461bcd60e51b815260206004820152602960248201527f455243313135353a206163636f756e747320616e6420696473206c656e677468604482015268040dad2e6dac2e8c6d60bb1b60648201526084016103ca565b600083516001600160401b0381111561069257610692611af8565b6040519080825280602002602001820160405280156106bb578160200160208202803683370190505b50905060005b8451811015610733576107068582815181106106df576106df612135565b60200260200101518583815181106106f9576106f9612135565b6020026020010151610363565b82828151811061071857610718612135565b602090810291909101015261072c81612161565b90506106c1565b509392505050565b6001600160a01b0383163314806107575750610757833361030f565b6107735760405162461bcd60e51b81526004016103ca906120e6565b61058f838383610d91565b6107a87f9f2df0fed2c77648de5860a4cc508cd0818c85b8b8a1ab4ceeef8d981c8956a633610818565b6107ed5760405162461bcd60e51b815260206004820152601660248201527529b2b73232b91034b9903737ba10309026b4b73a32b960511b60448201526064016103ca565b61051884848484610f1e565b60008281526097602052604081206108119083610ffa565b9392505050565b60009182526065602090815260408084206001600160a01b0393909316845291905290205460ff1690565b61060e338383611006565b60008181526097602052604081206103f8906110e6565b60008281526065602052604090206001015461088081610d43565b61058f8383610d6f565b6001600160a01b0385163314806108a657506108a6853361030f565b6108c25760405162461bcd60e51b81526004016103ca906120e6565b61056385858585856110f0565b6001600160a01b0383163314806108eb57506108eb833361030f565b6109075760405162461bcd60e51b81526004016103ca906120e6565b61058f83838361121e565b6001600160a01b03163b151590565b600054610100900460ff166109485760405162461bcd60e51b81526004016103ca9061217a565b565b600054610100900460ff166109715760405162461bcd60e51b81526004016103ca9061217a565b61097a81611325565b50565b6109878282610818565b61060e5760008281526065602090815260408083206001600160a01b03851684529091529020805460ff191660011790556109bf3390565b6001600160a01b0316816001600160a01b0316837f2f8788117e7eff1d82e926ec794901d17c78024a50270940304540a733656f0d60405160405180910390a45050565b6000610811836001600160a01b038416611355565b60006001600160e01b03198216636cdb3d1360e11b1480610a4957506001600160e01b031982166303a24d0760e21b145b806103f857506103f8826113a4565b6001600160a01b038416610a7e5760405162461bcd60e51b81526004016103ca906121c5565b8151835114610a9f5760405162461bcd60e51b81526004016103ca90612206565b3360005b8451811015610b3c57838181518110610abe57610abe612135565b602002602001015160c96000878481518110610adc57610adc612135565b602002602001015181526020019081526020016000206000886001600160a01b03166001600160a01b031681526020019081526020016000206000828254610b24919061224e565b90915550819050610b3481612161565b915050610aa3565b50846001600160a01b031660006001600160a01b0316826001600160a01b03167f4a39dc06d4c0dbc64b70af90fd698a233a518aa5d07e595d983b8c0526c8f7fb8787604051610b8d929190612261565b60405180910390a4610563816000878787876113c9565b8151835114610bc55760405162461bcd60e51b81526004016103ca90612206565b6001600160a01b038416610beb5760405162461bcd60e51b81526004016103ca9061228f565b3360005b8451811015610cd5576000858281518110610c0c57610c0c612135565b602002602001015190506000858381518110610c2a57610c2a612135565b602090810291909101810151600084815260c9835260408082206001600160a01b038e168352909352919091205490915081811015610c7b5760405162461bcd60e51b81526004016103ca906122d4565b600083815260c9602090815260408083206001600160a01b038e8116855292528083208585039055908b16825281208054849290610cba90849061224e565b9250508190555050505080610cce90612161565b9050610bef565b50846001600160a01b0316866001600160a01b0316826001600160a01b03167f4a39dc06d4c0dbc64b70af90fd698a233a518aa5d07e595d983b8c0526c8f7fb8787604051610d25929190612261565b60405180910390a4610d3b8187878787876113c9565b505050505050565b61097a8133611524565b610d57828261097d565b600082815260976020526040902061058f9082610a03565b610d798282611588565b600082815260976020526040902061058f90826115ef565b6001600160a01b038316610db75760405162461bcd60e51b81526004016103ca9061231e565b8051825114610dd85760405162461bcd60e51b81526004016103ca90612206565b604080516020810190915260009081905233905b8351811015610eb1576000848281518110610e0957610e09612135565b602002602001015190506000848381518110610e2757610e27612135565b602090810291909101810151600084815260c9835260408082206001600160a01b038c168352909352919091205490915081811015610e785760405162461bcd60e51b81526004016103ca90612361565b600092835260c9602090815260408085206001600160a01b038b1686529091529092209103905580610ea981612161565b915050610dec565b5060006001600160a01b0316846001600160a01b0316826001600160a01b03167f4a39dc06d4c0dbc64b70af90fd698a233a518aa5d07e595d983b8c0526c8f7fb8686604051610f02929190612261565b60405180910390a4604080516020810190915260009052610518565b6001600160a01b038416610f445760405162461bcd60e51b81526004016103ca906121c5565b336000610f5085611604565b90506000610f5d85611604565b9050600086815260c9602090815260408083206001600160a01b038b16845290915281208054879290610f9190849061224e565b909155505060408051878152602081018790526001600160a01b03808a1692600092918716917fc3d58168c5ae7397731d063d5bbf3d657854427343f4c083240f7aacaa2d0f62910160405180910390a4610ff18360008989898961164f565b50505050505050565b6000610811838361170a565b816001600160a01b0316836001600160a01b0316036110795760405162461bcd60e51b815260206004820152602960248201527f455243313135353a2073657474696e6720617070726f76616c20737461747573604482015268103337b91039b2b63360b91b60648201526084016103ca565b6001600160a01b03838116600081815260ca6020908152604080832094871680845294825291829020805460ff191686151590811790915591519182527f17307eab39ab6107e8899845ad3d59bd9653f200f220920489ca2b5937696c31910160405180910390a3505050565b60006103f8825490565b6001600160a01b0384166111165760405162461bcd60e51b81526004016103ca9061228f565b33600061112285611604565b9050600061112f85611604565b9050600086815260c9602090815260408083206001600160a01b038c168452909152902054858110156111745760405162461bcd60e51b81526004016103ca906122d4565b600087815260c9602090815260408083206001600160a01b038d8116855292528083208985039055908a168252812080548892906111b390849061224e565b909155505060408051888152602081018890526001600160a01b03808b16928c821692918816917fc3d58168c5ae7397731d063d5bbf3d657854427343f4c083240f7aacaa2d0f62910160405180910390a4611213848a8a8a8a8a61164f565b505050505050505050565b6001600160a01b0383166112445760405162461bcd60e51b81526004016103ca9061231e565b33600061125084611604565b9050600061125d84611604565b604080516020808201835260009182905288825260c981528282206001600160a01b038b16835290522054909150848110156112ab5760405162461bcd60e51b81526004016103ca90612361565b600086815260c9602090815260408083206001600160a01b038b81168086529184528285208a8703905582518b81529384018a90529092908816917fc3d58168c5ae7397731d063d5bbf3d657854427343f4c083240f7aacaa2d0f62910160405180910390a4604080516020810190915260009052610ff1565b600054610100900460ff1661134c5760405162461bcd60e51b81526004016103ca9061217a565b61097a81611734565b600081815260018301602052604081205461139c575081546001818101845560008481526020808220909301849055845484825282860190935260409020919091556103f8565b5060006103f8565b60006001600160e01b03198216635a05180f60e01b14806103f857506103f882611740565b6001600160a01b0384163b15610d3b5760405163bc197c8160e01b81526001600160a01b0385169063bc197c819061140d90899089908890889088906004016123a5565b6020604051808303816000875af1925050508015611448575060408051601f3d908101601f1916820190925261144591810190612403565b60015b6114f457611454612420565b806308c379a00361148d575061146861243c565b80611473575061148f565b8060405162461bcd60e51b81526004016103ca9190611ae5565b505b60405162461bcd60e51b815260206004820152603460248201527f455243313135353a207472616e7366657220746f206e6f6e20455243313135356044820152732932b1b2b4bb32b91034b6b83632b6b2b73a32b960611b60648201526084016103ca565b6001600160e01b0319811663bc197c8160e01b14610ff15760405162461bcd60e51b81526004016103ca906124c5565b61152e8282610818565b61060e57611546816001600160a01b03166014611775565b611551836020611775565b60405160200161156292919061250d565b60408051601f198184030181529082905262461bcd60e51b82526103ca91600401611ae5565b6115928282610818565b1561060e5760008281526065602090815260408083206001600160a01b0385168085529252808320805460ff1916905551339285917ff6391f5c32d9c69d2a47ea670b442974b53935d1edc7fd64eb21e047a839171b9190a45050565b6000610811836001600160a01b038416611910565b6040805160018082528183019092526060916000919060208083019080368337019050509050828160008151811061163e5761163e612135565b602090810291909101015292915050565b6001600160a01b0384163b15610d3b5760405163f23a6e6160e01b81526001600160a01b0385169063f23a6e61906116939089908990889088908890600401612582565b6020604051808303816000875af19250505080156116ce575060408051601f3d908101601f191682019092526116cb91810190612403565b60015b6116da57611454612420565b6001600160e01b0319811663f23a6e6160e01b14610ff15760405162461bcd60e51b81526004016103ca906124c5565b600082600001828154811061172157611721612135565b9060005260206000200154905092915050565b60cb61060e828261260d565b60006001600160e01b03198216637965db0b60e01b14806103f857506301ffc9a760e01b6001600160e01b03198316146103f8565b606060006117848360026126cc565b61178f90600261224e565b6001600160401b038111156117a6576117a6611af8565b6040519080825280601f01601f1916602001820160405280156117d0576020820181803683370190505b509050600360fc1b816000815181106117eb576117eb612135565b60200101906001600160f81b031916908160001a905350600f60fb1b8160018151811061181a5761181a612135565b60200101906001600160f81b031916908160001a905350600061183e8460026126cc565b61184990600161224e565b90505b60018111156118c1576f181899199a1a9b1b9c1cb0b131b232b360811b85600f166010811061187d5761187d612135565b1a60f81b82828151811061189357611893612135565b60200101906001600160f81b031916908160001a90535060049490941c936118ba816126eb565b905061184c565b5083156108115760405162461bcd60e51b815260206004820181905260248201527f537472696e67733a20686578206c656e67746820696e73756666696369656e7460448201526064016103ca565b600081815260018301602052604081205480156119f9576000611934600183612702565b855490915060009061194890600190612702565b90508181146119ad57600086600001828154811061196857611968612135565b906000526020600020015490508087600001848154811061198b5761198b612135565b6000918252602080832090910192909255918252600188019052604090208390555b85548690806119be576119be612715565b6001900381819060005260206000200160009055905585600101600086815260200190815260200160002060009055600193505050506103f8565b60009150506103f8565b80356001600160a01b0381168114611a1a57600080fd5b919050565b60008060408385031215611a3257600080fd5b611a3b83611a03565b946020939093013593505050565b6001600160e01b03198116811461097a57600080fd5b600060208284031215611a7157600080fd5b813561081181611a49565b600060208284031215611a8e57600080fd5b5035919050565b60005b83811015611ab0578181015183820152602001611a98565b50506000910152565b60008151808452611ad1816020860160208601611a95565b601f01601f19169290920160200192915050565b6020815260006108116020830184611ab9565b634e487b7160e01b600052604160045260246000fd5b601f8201601f191681016001600160401b0381118282101715611b3357611b33611af8565b6040525050565b60006001600160401b03821115611b5357611b53611af8565b5060051b60200190565b600082601f830112611b6e57600080fd5b81356020611b7b82611b3a565b604051611b888282611b0e565b83815260059390931b8501820192828101915086841115611ba857600080fd5b8286015b84811015611bc35780358352918301918301611bac565b509695505050505050565b600082601f830112611bdf57600080fd5b81356001600160401b03811115611bf857611bf8611af8565b604051611c0f601f8301601f191660200182611b0e565b818152846020838601011115611c2457600080fd5b816020850160208301376000918101602001919091529392505050565b60008060008060808587031215611c5757600080fd5b611c6085611a03565b935060208501356001600160401b0380821115611c7c57600080fd5b611c8888838901611b5d565b94506040870135915080821115611c9e57600080fd5b611caa88838901611b5d565b93506060870135915080821115611cc057600080fd5b50611ccd87828801611bce565b91505092959194509250565b600080600080600060a08688031215611cf157600080fd5b611cfa86611a03565b9450611d0860208701611a03565b935060408601356001600160401b0380821115611d2457600080fd5b611d3089838a01611b5d565b94506060880135915080821115611d4657600080fd5b611d5289838a01611b5d565b93506080880135915080821115611d6857600080fd5b50611d7588828901611bce565b9150509295509295909350565b60008060408385031215611d9557600080fd5b82359150611da560208401611a03565b90509250929050565b60008060408385031215611dc157600080fd5b82356001600160401b0380821115611dd857600080fd5b818501915085601f830112611dec57600080fd5b81356020611df982611b3a565b604051611e068282611b0e565b83815260059390931b8501820192828101915089841115611e2657600080fd5b948201945b83861015611e4b57611e3c86611a03565b82529482019490820190611e2b565b96505086013592505080821115611e6157600080fd5b50611e6e85828601611b5d565b9150509250929050565b600081518084526020808501945080840160005b83811015611ea857815187529582019590820190600101611e8c565b509495945050505050565b6020815260006108116020830184611e78565b600080600060608486031215611edb57600080fd5b611ee484611a03565b925060208401356001600160401b0380821115611f0057600080fd5b611f0c87838801611b5d565b93506040860135915080821115611f2257600080fd5b50611f2f86828701611b5d565b9150509250925092565b60008060008060808587031215611f4f57600080fd5b611f5885611a03565b9350602085013592506040850135915060608501356001600160401b03811115611f8157600080fd5b611ccd87828801611bce565b60008060408385031215611fa057600080fd5b50508035926020909101359150565b60008060408385031215611fc257600080fd5b611fcb83611a03565b915060208301358015158114611fe057600080fd5b809150509250929050565b60008060408385031215611ffe57600080fd5b61200783611a03565b9150611da560208401611a03565b600080600080600060a0868803121561202d57600080fd5b61203686611a03565b945061204460208701611a03565b9350604086013592506060860135915060808601356001600160401b0381111561206d57600080fd5b611d7588828901611bce565b60008060006060848603121561208e57600080fd5b61209784611a03565b95602085013595506040909401359392505050565b600181811c908216806120c057607f821691505b6020821081036120e057634e487b7160e01b600052602260045260246000fd5b50919050565b6020808252602f908201527f455243313135353a2063616c6c6572206973206e6f7420746f6b656e206f776e60408201526e195c881b9bdc88185c1c1c9bdd9959608a1b606082015260800190565b634e487b7160e01b600052603260045260246000fd5b634e487b7160e01b600052601160045260246000fd5b6000600182016121735761217361214b565b5060010190565b6020808252602b908201527f496e697469616c697a61626c653a20636f6e7472616374206973206e6f74206960408201526a6e697469616c697a696e6760a81b606082015260800190565b60208082526021908201527f455243313135353a206d696e7420746f20746865207a65726f206164647265736040820152607360f81b606082015260800190565b60208082526028908201527f455243313135353a2069647320616e6420616d6f756e7473206c656e677468206040820152670dad2e6dac2e8c6d60c31b606082015260800190565b808201808211156103f8576103f861214b565b6040815260006122746040830185611e78565b82810360208401526122868185611e78565b95945050505050565b60208082526025908201527f455243313135353a207472616e7366657220746f20746865207a65726f206164604082015264647265737360d81b606082015260800190565b6020808252602a908201527f455243313135353a20696e73756666696369656e742062616c616e636520666f60408201526939103a3930b739b332b960b11b606082015260800190565b60208082526023908201527f455243313135353a206275726e2066726f6d20746865207a65726f206164647260408201526265737360e81b606082015260800190565b60208082526024908201527f455243313135353a206275726e20616d6f756e7420657863656564732062616c604082015263616e636560e01b606082015260800190565b6001600160a01b0386811682528516602082015260a0604082018190526000906123d190830186611e78565b82810360608401526123e38186611e78565b905082810360808401526123f78185611ab9565b98975050505050505050565b60006020828403121561241557600080fd5b815161081181611a49565b600060033d11156124395760046000803e5060005160e01c5b90565b600060443d101561244a5790565b6040516003193d81016004833e81513d6001600160401b03816024840111818411171561247957505050505090565b82850191508151818111156124915750505050505090565b843d87010160208285010111156124ab5750505050505090565b6124ba60208286010187611b0e565b509095945050505050565b60208082526028908201527f455243313135353a204552433131353552656365697665722072656a656374656040820152676420746f6b656e7360c01b606082015260800190565b7f416363657373436f6e74726f6c3a206163636f756e7420000000000000000000815260008351612545816017850160208801611a95565b7001034b99036b4b9b9b4b733903937b6329607d1b6017918401918201528351612576816028840160208801611a95565b01602801949350505050565b6001600160a01b03868116825285166020820152604081018490526060810183905260a0608082018190526000906125bc90830184611ab9565b979650505050505050565b601f82111561058f57600081815260208120601f850160051c810160208610156125ee5750805b601f850160051c820191505b81811015610d3b578281556001016125fa565b81516001600160401b0381111561262657612626611af8565b61263a8161263484546120ac565b846125c7565b602080601f83116001811461266f57600084156126575750858301515b600019600386901b1c1916600185901b178555610d3b565b600085815260208120601f198616915b8281101561269e5788860151825594840194600190910190840161267f565b50858210156126bc5787850151600019600388901b60f8161c191681555b5050505050600190811b01905550565b60008160001904831182151516156126e6576126e661214b565b500290565b6000816126fa576126fa61214b565b506000190190565b818103818111156103f8576103f861214b565b634e487b7160e01b600052603160045260246000fdfea2646970667358221220d84f746f173a737e6816e4123648488df6b8e119ec4b4fc93237fc9c098d976b64736f6c63430008100033496e697469616c697a61626c653a20636f6e7472616374206973206e6f7420699f2df0fed2c77648de5860a4cc508cd0818c85b8b8a1ab4ceeef8d981c8956a67164765a3c8bd2513bdfa0c90f1bee9606e920fbf2c9071f310263fbd818684ba2646970667358221220646ec8765e38d3d28129008f6ffe37246664c3ad5b39eaef4a01c5112aa73bbe64736f6c63430008100033",
  "linkReferences": {},
  "deployedLinkReferences": {}
}