{
  "_format": "hh-sol-artifact-1",
  "contractName": "CommunityLocker",
  "sourceName": "contracts/schain/CommunityLocker.sol",
  "abi": [
    {
      "anonymous": false,
      "inputs": [
        {
          "indexed": false,
          "internalType": "bytes32",
          "name": "schainHash",
          "type": "bytes32"
        },
        {
          "indexed": false,
          "internalType": "address",
          "name": "user",
          "type": "address"
        }
      ],
      "name": "ActivateUser",
      "type": "event"
    },
    {
      "anonymous": false,
      "inputs": [
        {
          "indexed": true,
          "internalType": "bytes32",
          "name": "constantHash",
          "type": "bytes32"
        },
        {
          "indexed": false,
          "internalType": "uint256",
          "name": "previousValue",
          "type": "uint256"
        },
        {
          "indexed": false,
          "internalType": "uint256",
          "name": "newValue",
          "type": "uint256"
        }
      ],
      "name": "ConstantUpdated",
      "type": "event"
    },
    {
      "anonymous": false,
      "inputs": [
        {
          "indexed": false,
          "internalType": "uint8",
          "name": "version",
          "type": "uint8"
        }
      ],
      "name": "Initialized",
      "type": "event"
    },
    {
      "anonymous": false,
      "inputs": [
        {
          "indexed": false,
          "internalType": "bytes32",
          "name": "schainHash",
          "type": "bytes32"
        },
        {
          "indexed": false,
          "internalType": "address",
          "name": "user",
          "type": "address"
        }
      ],
      "name": "LockUser",
      "type": "event"
    },
    {
      "anonymous": false,
      "inputs": [
        {
          "indexed": true,
          "internalType": "bytes32",
          "name": "role",
          "type": "bytes32"
        },
        {
          "indexed": true,
          "internalType": "bytes32",
          "name": "previousAdminRole",
          "type": "bytes32"
        },
        {
          "indexed": true,
          "internalType": "bytes32",
          "name": "newAdminRole",
          "type": "bytes32"
        }
      ],
      "name": "RoleAdminChanged",
      "type": "event"
    },
    {
      "anonymous": false,
      "inputs": [
        {
          "indexed": true,
          "internalType": "bytes32",
          "name": "role",
          "type": "bytes32"
        },
        {
          "indexed": true,
          "internalType": "address",
          "name": "account",
          "type": "address"
        },
        {
          "indexed": true,
          "internalType": "address",
          "name": "sender",
          "type": "address"
        }
      ],
      "name": "RoleGranted",
      "type": "event"
    },
    {
      "anonymous": false,
      "inputs": [
        {
          "indexed": true,
          "internalType": "bytes32",
          "name": "role",
          "type": "bytes32"
        },
        {
          "indexed": true,
          "internalType": "address",
          "name": "account",
          "type": "address"
        },
        {
          "indexed": true,
          "internalType": "address",
          "name": "sender",
          "type": "address"
        }
      ],
      "name": "RoleRevoked",
      "type": "event"
    },
    {
      "inputs": [],
      "name": "CONSTANT_SETTER_ROLE",
      "outputs": [
        {
          "internalType": "bytes32",
          "name": "",
          "type": "bytes32"
        }
      ],
      "stateMutability": "view",
      "type": "function"
    },
    {
      "inputs": [],
      "name": "DEFAULT_ADMIN_ROLE",
      "outputs": [
        {
          "internalType": "bytes32",
          "name": "",
          "type": "bytes32"
        }
      ],
      "stateMutability": "view",
      "type": "function"
    },
    {
      "inputs": [],
      "name": "MAINNET_HASH",
      "outputs": [
        {
          "internalType": "bytes32",
          "name": "",
          "type": "bytes32"
        }
      ],
      "stateMutability": "view",
      "type": "function"
    },
    {
      "inputs": [],
      "name": "MAINNET_NAME",
      "outputs": [
        {
          "internalType": "string",
          "name": "",
          "type": "string"
        }
      ],
      "stateMutability": "view",
      "type": "function"
    },
    {
      "inputs": [
        {
          "internalType": "address",
          "name": "",
          "type": "address"
        }
      ],
      "name": "activeUsers",
      "outputs": [
        {
          "internalType": "bool",
          "name": "",
          "type": "bool"
        }
      ],
      "stateMutability": "view",
      "type": "function"
    },
    {
      "inputs": [
        {
          "internalType": "address",
          "name": "receiver",
          "type": "address"
        }
      ],
      "name": "checkAllowedToSendMessage",
      "outputs": [],
      "stateMutability": "nonpayable",
      "type": "function"
    },
    {
      "inputs": [],
      "name": "communityPool",
      "outputs": [
        {
          "internalType": "address",
          "name": "",
          "type": "address"
        }
      ],
      "stateMutability": "view",
      "type": "function"
    },
    {
      "inputs": [],
      "name": "gasPriceTimestamp",
      "outputs": [
        {
          "internalType": "uint256",
          "name": "",
          "type": "uint256"
        }
      ],
      "stateMutability": "view",
      "type": "function"
    },
    {
      "inputs": [
        {
          "internalType": "bytes32",
          "name": "role",
          "type": "bytes32"
        }
      ],
      "name": "getRoleAdmin",
      "outputs": [
        {
          "internalType": "bytes32",
          "name": "",
          "type": "bytes32"
        }
      ],
      "stateMutability": "view",
      "type": "function"
    },
    {
      "inputs": [
        {
          "internalType": "bytes32",
          "name": "role",
          "type": "bytes32"
        },
        {
          "internalType": "uint256",
          "name": "index",
          "type": "uint256"
        }
      ],
      "name": "getRoleMember",
      "outputs": [
        {
          "internalType": "address",
          "name": "",
          "type": "address"
        }
      ],
      "stateMutability": "view",
      "type": "function"
    },
    {
      "inputs": [
        {
          "internalType": "bytes32",
          "name": "role",
          "type": "bytes32"
        }
      ],
      "name": "getRoleMemberCount",
      "outputs": [
        {
          "internalType": "uint256",
          "name": "",
          "type": "uint256"
        }
      ],
      "stateMutability": "view",
      "type": "function"
    },
    {
      "inputs": [
        {
          "internalType": "bytes32",
          "name": "role",
          "type": "bytes32"
        },
        {
          "internalType": "address",
          "name": "account",
          "type": "address"
        }
      ],
      "name": "grantRole",
      "outputs": [],
      "stateMutability": "nonpayable",
      "type": "function"
    },
    {
      "inputs": [
        {
          "internalType": "bytes32",
          "name": "role",
          "type": "bytes32"
        },
        {
          "internalType": "address",
          "name": "account",
          "type": "address"
        }
      ],
      "name": "hasRole",
      "outputs": [
        {
          "internalType": "bool",
          "name": "",
          "type": "bool"
        }
      ],
      "stateMutability": "view",
      "type": "function"
    },
    {
      "inputs": [
        {
          "internalType": "string",
          "name": "newSchainName",
          "type": "string"
        },
        {
          "internalType": "contract IMessageProxyForSchain",
          "name": "newMessageProxy",
          "type": "address"
        },
        {
          "internalType": "contract ITokenManagerLinker",
          "name": "newTokenManagerLinker",
          "type": "address"
        },
        {
          "internalType": "address",
          "name": "newCommunityPool",
          "type": "address"
        }
      ],
      "name": "initialize",
      "outputs": [],
      "stateMutability": "nonpayable",
      "type": "function"
    },
    {
      "inputs": [
        {
          "internalType": "address",
          "name": "",
          "type": "address"
        }
      ],
      "name": "lastMessageTimeStamp",
      "outputs": [
        {
          "internalType": "uint256",
          "name": "",
          "type": "uint256"
        }
      ],
      "stateMutability": "view",
      "type": "function"
    },
    {
      "inputs": [],
      "name": "mainnetGasPrice",
      "outputs": [
        {
          "internalType": "uint256",
          "name": "",
          "type": "uint256"
        }
      ],
      "stateMutability": "view",
      "type": "function"
    },
    {
      "inputs": [],
      "name": "messageProxy",
      "outputs": [
        {
          "internalType": "contract IMessageProxyForSchain",
          "name": "",
          "type": "address"
        }
      ],
      "stateMutability": "view",
      "type": "function"
    },
    {
      "inputs": [
        {
          "internalType": "bytes32",
          "name": "fromChainHash",
          "type": "bytes32"
        },
        {
          "internalType": "address",
          "name": "sender",
          "type": "address"
        },
        {
          "internalType": "bytes",
          "name": "data",
          "type": "bytes"
        }
      ],
      "name": "postMessage",
      "outputs": [],
      "stateMutability": "nonpayable",
      "type": "function"
    },
    {
      "inputs": [
        {
          "internalType": "bytes32",
          "name": "role",
          "type": "bytes32"
        },
        {
          "internalType": "address",
          "name": "account",
          "type": "address"
        }
      ],
      "name": "renounceRole",
      "outputs": [],
      "stateMutability": "nonpayable",
      "type": "function"
    },
    {
      "inputs": [
        {
          "internalType": "bytes32",
          "name": "role",
          "type": "bytes32"
        },
        {
          "internalType": "address",
          "name": "account",
          "type": "address"
        }
      ],
      "name": "revokeRole",
      "outputs": [],
      "stateMutability": "nonpayable",
      "type": "function"
    },
    {
      "inputs": [],
      "name": "schainHash",
      "outputs": [
        {
          "internalType": "bytes32",
          "name": "",
          "type": "bytes32"
        }
      ],
      "stateMutability": "view",
      "type": "function"
    },
    {
      "inputs": [
        {
          "internalType": "uint256",
          "name": "gasPrice",
          "type": "uint256"
        },
        {
          "internalType": "uint256",
          "name": "timestamp",
          "type": "uint256"
        },
        {
          "components": [
            {
              "internalType": "uint256[2]",
              "name": "blsSignature",
              "type": "uint256[2]"
            },
            {
              "internalType": "uint256",
              "name": "hashA",
              "type": "uint256"
            },
            {
              "internalType": "uint256",
              "name": "hashB",
              "type": "uint256"
            },
            {
              "internalType": "uint256",
              "name": "counter",
              "type": "uint256"
            }
          ],
          "internalType": "struct IMessageProxy.Signature",
          "name": "",
          "type": "tuple"
        }
      ],
      "name": "setGasPrice",
      "outputs": [],
      "stateMutability": "nonpayable",
      "type": "function"
    },
    {
      "inputs": [
        {
          "internalType": "uint256",
          "name": "newTimeLimitPerMessage",
          "type": "uint256"
        }
      ],
      "name": "setTimeLimitPerMessage",
      "outputs": [],
      "stateMutability": "nonpayable",
      "type": "function"
    },
    {
      "inputs": [
        {
          "internalType": "bytes4",
          "name": "interfaceId",
          "type": "bytes4"
        }
      ],
      "name": "supportsInterface",
      "outputs": [
        {
          "internalType": "bool",
          "name": "",
          "type": "bool"
        }
      ],
      "stateMutability": "view",
      "type": "function"
    },
    {
      "inputs": [],
      "name": "timeLimitPerMessage",
      "outputs": [
        {
          "internalType": "uint256",
          "name": "",
          "type": "uint256"
        }
      ],
      "stateMutability": "view",
      "type": "function"
    },
    {
      "inputs": [],
      "name": "tokenManagerLinker",
      "outputs": [
        {
          "internalType": "contract ITokenManagerLinker",
          "name": "",
          "type": "address"
        }
      ],
      "stateMutability": "view",
      "type": "function"
    }
  ],
  "bytecode": "0x608060405234801561001057600080fd5b50611bcb806100206000396000f3fe608060405234801561001057600080fd5b506004361061018e5760003560e01c80637304b44d116100de578063aebc4bc311610097578063d547741f11610071578063d547741f14610378578063eb0eb8ab1461038b578063f0cfb52e146103ae578063f34822b4146103ce57600080fd5b8063aebc4bc314610335578063bbc4e8c21461033e578063ca15c8731461036557600080fd5b80637304b44d146102d857806382fd8c96146102eb578063884cee5a146102f45780639010d07c1461030757806391d148541461031a578063a217fddf1461032d57600080fd5b80632dc151de1161014b5780633b690b6b116101255780633b690b6b1461027657806348ed32ef1461027f57806350f44280146102925780635573b8b6146102c557600080fd5b80632dc151de1461023d5780632f2ff15d1461025057806336568abe1461026357600080fd5b806301ffc9a71461019357806314d140b0146101bb578063237c667a146101e6578063248a9ca3146101fb57806328c5e1821461022c5780632d44892814610234575b600080fd5b6101a66101a1366004611547565b6103e1565b60405190151581526020015b60405180910390f35b60cb546101ce906001600160a01b031681565b6040516001600160a01b0390911681526020016101b2565b6101f96101f4366004611596565b61040c565b005b61021e6102093660046115b3565b60009081526065602052604090206001015490565b6040519081526020016101b2565b61021e6105da565b61021e60d15481565b60ca546101ce906001600160a01b031681565b6101f961025e3660046115cc565b610623565b6101f96102713660046115cc565b61064d565b61021e60cc5481565b6101f961028d3660046115b3565b6106cb565b6102b86040518060400160405280600781526020016613585a5b9b995d60ca1b81525081565b6040516101b29190611620565b60c9546101ce906001600160a01b031681565b6101f96102e63660046116e6565b6107c6565b61021e60cd5481565b6101f9610302366004611793565b6108fa565b6101ce61031536600461181c565b610c54565b6101a66103283660046115cc565b610c73565b61021e600081565b61021e60d05481565b61021e7f96e3fc3be15159903e053027cff8a23f39a990e0194abcd8ac1cf1b355b8b93c81565b61021e6103733660046115b3565b610c9e565b6101f96103863660046115cc565b610cb5565b6101a6610399366004611596565b60ce6020526000908152604090205460ff1681565b61021e6103bc366004611596565b60cf6020526000908152604090205481565b6101f96103dc36600461183e565b610cda565b60006001600160e01b03198216635a05180f60e01b1480610406575061040682610ecd565b92915050565b60ca546040516374a9e4c960e11b81523360048201526001600160a01b039091169063e953c99290602401602060405180830381865afa158015610454573d6000803e3d6000fd5b505050506040513d601f19601f820116820180604052508101906104789190611913565b6104d85760405162461bcd60e51b815260206004820152602660248201527f53656e646572206973206e6f74207265676973746572656420746f6b656e206d60448201526530b730b3b2b960d11b60648201526084015b60405180910390fd5b6001600160a01b038116600090815260ce602052604090205460ff166105405760405162461bcd60e51b815260206004820152601860248201527f526563697069656e74206d75737420626520616374697665000000000000000060448201526064016104cf565b60cd546001600160a01b038216600090815260cf6020526040902054429161056791611946565b106105be5760405162461bcd60e51b815260206004820152602160248201527f547279696e6720746f2073656e64206d6573736167657320746f6f206f6674656044820152603760f91b60648201526084016104cf565b6001600160a01b0316600090815260cf60205260409020429055565b6040518060400160405280600781526020016613585a5b9b995d60ca1b81525060405160200161060a9190611959565b6040516020818303038152906040528051906020012081565b60008281526065602052604090206001015461063e81610f02565b6106488383610f0f565b505050565b6001600160a01b03811633146106bd5760405162461bcd60e51b815260206004820152602f60248201527f416363657373436f6e74726f6c3a2063616e206f6e6c792072656e6f756e636560448201526e103937b632b9903337b91039b2b63360891b60648201526084016104cf565b6106c78282610f31565b5050565b6106f57f96e3fc3be15159903e053027cff8a23f39a990e0194abcd8ac1cf1b355b8b93c33610c73565b6107505760405162461bcd60e51b815260206004820152602660248201527f4e6f7420656e6f756768207065726d697373696f6e7320746f2073657420636f6044820152651b9cdd185b9d60d21b60648201526084016104cf565b6040517254696d654c696d69745065724d65737361676560681b602082015260330160408051601f19818403018152828252805160209182012060cd548452908301849052917fd9f6bd2abae0f2a51b3f5ffb29e0e35ee9ad2e3921ede0d71bff21dc8609f6f1910160405180910390a260cd55565b60d15482116108235760405162461bcd60e51b815260206004820152602360248201527f4761732070726963652074696d657374616d7020616c726561647920757064616044820152621d195960ea1b60648201526084016104cf565b428211156108815760405162461bcd60e51b815260206004820152602560248201527f54696d657374616d702073686f756c64206e6f7420626520696e207468652066604482015264757475726560d81b60648201526084016104cf565b6040516e4d61696e6e6574476173507269636560881b6020820152602f0160408051601f19818403018152828252805160209182012060d0548452908301869052917fd9f6bd2abae0f2a51b3f5ffb29e0e35ee9ad2e3921ede0d71bff21dc8609f6f1910160405180910390a25060d09190915560d155565b60c9546001600160a01b031633146109545760405162461bcd60e51b815260206004820152601d60248201527f53656e646572206973206e6f742061206d6573736167652070726f787900000060448201526064016104cf565b60cb546001600160a01b038481169116146109b15760405162461bcd60e51b815260206004820152601c60248201527f53656e646572206d75737420626520436f6d6d756e697479506f6f6c0000000060448201526064016104cf565b6040518060400160405280600781526020016613585a5b9b995d60ca1b8152506040516020016109e19190611959565b604051602081830303815290604052805190602001208414610a4f5760405162461bcd60e51b815260206004820152602160248201527f536f7572636520636861696e206e616d65206d757374206265204d61696e6e656044820152601d60fa1b60648201526084016104cf565b6000610a5b8383610f53565b9050600781600e811115610a7157610a71611975565b14610ad25760405162461bcd60e51b815260206004820152602b60248201527f546865206d6573736167652073686f756c6420636f6e7461696e20612073746160448201526a3a3ab99037b3103ab9b2b960a91b60648201526084016104cf565b6000610ade8484610f9e565b6040808201516020808401516001600160a01b0316600090815260ce9091529190912054919250151560ff909116151503610b6a5760405162461bcd60e51b815260206004820152602660248201527f4163746976652075736572207374617475736573206d7573742062652064696660448201526519995c995b9d60d21b60648201526084016104cf565b604081810180516020808501516001600160a01b0316600090815260ce90915292909220805460ff1916921515929092179091555115610bfa577fdacccea96400d48c51a00ff7af4d1c6b6ac4909bbff0fe495f0e0edc298c3dde60cc548260200151604051610bed9291909182526001600160a01b0316602082015260400190565b60405180910390a1610c4c565b7f01d8973c54faac85b2cfd40f935f8da4261d9883283ad73ce0e10aa91fc37bdf60cc548260200151604051610c439291909182526001600160a01b0316602082015260400190565b60405180910390a15b505050505050565b6000828152609760205260408120610c6c9083611037565b9392505050565b60009182526065602090815260408084206001600160a01b0393909316845291905290205460ff1690565b600081815260976020526040812061040690611043565b600082815260656020526040902060010154610cd081610f02565b6106488383610f31565b600054610100900460ff1615808015610cfa5750600054600160ff909116105b80610d145750303b158015610d14575060005460ff166001145b610d775760405162461bcd60e51b815260206004820152602e60248201527f496e697469616c697a61626c653a20636f6e747261637420697320616c72656160448201526d191e481a5b9a5d1a585b1a5e995960921b60648201526084016104cf565b6000805460ff191660011790558015610d9a576000805461ff0019166101001790555b6001600160a01b038216610df05760405162461bcd60e51b815260206004820152601a60248201527f4e6f646520616464726573732068617320746f2062652073657400000000000060448201526064016104cf565b610df861104d565b610e036000336110ba565b60c980546001600160a01b038087166001600160a01b03199283161790925560ca805492861692909116919091179055604051610e44908690602001611959565b60408051808303601f19018152919052805160209091012060cc5561012c60cd5560cb80546001600160a01b0319166001600160a01b0384161790558015610ec6576000805461ff0019169055604051600181527f7f26b83ff96e1f2b6a682f133852f6798a09c465da95921460cefb38474024989060200160405180910390a15b5050505050565b60006001600160e01b03198216637965db0b60e01b148061040657506301ffc9a760e01b6001600160e01b0319831614610406565b610f0c81336110c4565b50565b610f198282611128565b600082815260976020526040902061064890826111ae565b610f3b82826111c3565b6000828152609760205260409020610648908261122a565b600080610f62838501856115b3565b9050610f6f60208261198b565b600003610f9257610f8a610f85848381886119ad565b610f53565b915050610406565b610f8a838501856119e6565b60408051608081018252600060608201818152825260208201819052918101919091526007610fcd8484610f53565b600e811115610fde57610fde611975565b1461102b5760405162461bcd60e51b815260206004820152601f60248201527f4d6573736167652074797065206973206e6f742055736572205374617475730060448201526064016104cf565b610c6c82840184611a01565b6000610c6c838361123f565b6000610406825490565b600054610100900460ff166110b85760405162461bcd60e51b815260206004820152602b60248201527f496e697469616c697a61626c653a20636f6e7472616374206973206e6f74206960448201526a6e697469616c697a696e6760a81b60648201526084016104cf565b565b6106c78282610f0f565b6110ce8282610c73565b6106c7576110e6816001600160a01b03166014611269565b6110f1836020611269565b604051602001611102929190611aab565b60408051601f198184030181529082905262461bcd60e51b82526104cf91600401611620565b6111328282610c73565b6106c75760008281526065602090815260408083206001600160a01b03851684529091529020805460ff1916600117905561116a3390565b6001600160a01b0316816001600160a01b0316837f2f8788117e7eff1d82e926ec794901d17c78024a50270940304540a733656f0d60405160405180910390a45050565b6000610c6c836001600160a01b038416611405565b6111cd8282610c73565b156106c75760008281526065602090815260408083206001600160a01b0385168085529252808320805460ff1916905551339285917ff6391f5c32d9c69d2a47ea670b442974b53935d1edc7fd64eb21e047a839171b9190a45050565b6000610c6c836001600160a01b038416611454565b600082600001828154811061125657611256611b20565b9060005260206000200154905092915050565b60606000611278836002611b36565b611283906002611946565b67ffffffffffffffff81111561129b5761129b611653565b6040519080825280601f01601f1916602001820160405280156112c5576020820181803683370190505b509050600360fc1b816000815181106112e0576112e0611b20565b60200101906001600160f81b031916908160001a905350600f60fb1b8160018151811061130f5761130f611b20565b60200101906001600160f81b031916908160001a9053506000611333846002611b36565b61133e906001611946565b90505b60018111156113b6576f181899199a1a9b1b9c1cb0b131b232b360811b85600f166010811061137257611372611b20565b1a60f81b82828151811061138857611388611b20565b60200101906001600160f81b031916908160001a90535060049490941c936113af81611b55565b9050611341565b508315610c6c5760405162461bcd60e51b815260206004820181905260248201527f537472696e67733a20686578206c656e67746820696e73756666696369656e7460448201526064016104cf565b600081815260018301602052604081205461144c57508154600181810184556000848152602080822090930184905584548482528286019093526040902091909155610406565b506000610406565b6000818152600183016020526040812054801561153d576000611478600183611b6c565b855490915060009061148c90600190611b6c565b90508181146114f15760008660000182815481106114ac576114ac611b20565b90600052602060002001549050808760000184815481106114cf576114cf611b20565b6000918252602080832090910192909255918252600188019052604090208390555b855486908061150257611502611b7f565b600190038181906000526020600020016000905590558560010160008681526020019081526020016000206000905560019350505050610406565b6000915050610406565b60006020828403121561155957600080fd5b81356001600160e01b031981168114610c6c57600080fd5b6001600160a01b0381168114610f0c57600080fd5b803561159181611571565b919050565b6000602082840312156115a857600080fd5b8135610c6c81611571565b6000602082840312156115c557600080fd5b5035919050565b600080604083850312156115df57600080fd5b8235915060208301356115f181611571565b809150509250929050565b60005b838110156116175781810151838201526020016115ff565b50506000910152565b602081526000825180602084015261163f8160408501602087016115fc565b601f01601f19169190910160400192915050565b634e487b7160e01b600052604160045260246000fd5b6040516080810167ffffffffffffffff8111828210171561168c5761168c611653565b60405290565b6040805190810167ffffffffffffffff8111828210171561168c5761168c611653565b604051601f8201601f1916810167ffffffffffffffff811182821017156116de576116de611653565b604052919050565b600080600083850360e08112156116fc57600080fd5b84359350602080860135935060a0603f198301121561171a57600080fd5b611722611669565b915086605f87011261173357600080fd5b61173b611692565b80608088018981111561174d57600080fd5b604089015b818110156117695780358452928401928401611752565b5090845235918301919091525060a0850135604082015260c0909401356060850152509093909250565b600080600080606085870312156117a957600080fd5b8435935060208501356117bb81611571565b9250604085013567ffffffffffffffff808211156117d857600080fd5b818701915087601f8301126117ec57600080fd5b8135818111156117fb57600080fd5b88602082850101111561180d57600080fd5b95989497505060200194505050565b6000806040838503121561182f57600080fd5b50508035926020909101359150565b6000806000806080858703121561185457600080fd5b843567ffffffffffffffff8082111561186c57600080fd5b818701915087601f83011261188057600080fd5b813560208282111561189457611894611653565b6118a6601f8301601f191682016116b5565b925081835289818386010111156118bc57600080fd5b818185018285013760008183850101528297506118da818a01611586565b9650505050506118ec60408601611586565b91506118fa60608601611586565b905092959194509250565b8015158114610f0c57600080fd5b60006020828403121561192557600080fd5b8151610c6c81611905565b634e487b7160e01b600052601160045260246000fd5b8082018082111561040657610406611930565b6000825161196b8184602087016115fc565b9190910192915050565b634e487b7160e01b600052602160045260246000fd5b6000826119a857634e487b7160e01b600052601260045260246000fd5b500690565b600080858511156119bd57600080fd5b838611156119ca57600080fd5b5050820193919092039150565b8035600f811061159157600080fd5b6000602082840312156119f857600080fd5b610c6c826119d7565b60008183036060811215611a1457600080fd5b6040516060810167ffffffffffffffff8282108183111715611a3857611a38611653565b816040526020841215611a4a57600080fd5b6080830193508184108185111715611a6457611a64611653565b5082604052611a72856119d7565b8152815260208401359150611a8682611571565b81602082015260408401359150611a9c82611905565b60408101919091529392505050565b7f416363657373436f6e74726f6c3a206163636f756e7420000000000000000000815260008351611ae38160178501602088016115fc565b7001034b99036b4b9b9b4b733903937b6329607d1b6017918401918201528351611b148160288401602088016115fc565b01602801949350505050565b634e487b7160e01b600052603260045260246000fd5b6000816000190483118215151615611b5057611b50611930565b500290565b600081611b6457611b64611930565b506000190190565b8181038181111561040657610406611930565b634e487b7160e01b600052603160045260246000fdfea2646970667358221220e6c809fa369da5a90cb1da5d54448b4827f41ac19c2ab2252e311a714ce80a4064736f6c63430008100033",
  "linkReferences": {},
  "deployedLinkReferences": {}
}