{
  "_format": "hh-sol-artifact-1",
  "contractName": "TokenManagerEth",
  "sourceName": "contracts/schain/TokenManagers/TokenManagerEth.sol",
  "abi": [
    {
      "anonymous": false,
      "inputs": [
        {
          "indexed": false,
          "internalType": "address",
          "name": "oldValue",
          "type": "address"
        },
        {
          "indexed": false,
          "internalType": "address",
          "name": "newValue",
          "type": "address"
        }
      ],
      "name": "DepositBoxWasChanged",
      "type": "event"
    },
    {
      "anonymous": false,
      "inputs": [
        {
          "indexed": false,
          "internalType": "uint8",
          "name": "version",
          "type": "uint8"
        }
      ],
      "name": "Initialized",
      "type": "event"
    },
    {
      "anonymous": false,
      "inputs": [
        {
          "indexed": true,
          "internalType": "bytes32",
          "name": "role",
          "type": "bytes32"
        },
        {
          "indexed": true,
          "internalType": "bytes32",
          "name": "previousAdminRole",
          "type": "bytes32"
        },
        {
          "indexed": true,
          "internalType": "bytes32",
          "name": "newAdminRole",
          "type": "bytes32"
        }
      ],
      "name": "RoleAdminChanged",
      "type": "event"
    },
    {
      "anonymous": false,
      "inputs": [
        {
          "indexed": true,
          "internalType": "bytes32",
          "name": "role",
          "type": "bytes32"
        },
        {
          "indexed": true,
          "internalType": "address",
          "name": "account",
          "type": "address"
        },
        {
          "indexed": true,
          "internalType": "address",
          "name": "sender",
          "type": "address"
        }
      ],
      "name": "RoleGranted",
      "type": "event"
    },
    {
      "anonymous": false,
      "inputs": [
        {
          "indexed": true,
          "internalType": "bytes32",
          "name": "role",
          "type": "bytes32"
        },
        {
          "indexed": true,
          "internalType": "address",
          "name": "account",
          "type": "address"
        },
        {
          "indexed": true,
          "internalType": "address",
          "name": "sender",
          "type": "address"
        }
      ],
      "name": "RoleRevoked",
      "type": "event"
    },
    {
      "inputs": [],
      "name": "AUTOMATIC_DEPLOY_ROLE",
      "outputs": [
        {
          "internalType": "bytes32",
          "name": "",
          "type": "bytes32"
        }
      ],
      "stateMutability": "view",
      "type": "function"
    },
    {
      "inputs": [],
      "name": "DEFAULT_ADMIN_ROLE",
      "outputs": [
        {
          "internalType": "bytes32",
          "name": "",
          "type": "bytes32"
        }
      ],
      "stateMutability": "view",
      "type": "function"
    },
    {
      "inputs": [],
      "name": "MAINNET_HASH",
      "outputs": [
        {
          "internalType": "bytes32",
          "name": "",
          "type": "bytes32"
        }
      ],
      "stateMutability": "view",
      "type": "function"
    },
    {
      "inputs": [],
      "name": "MAINNET_NAME",
      "outputs": [
        {
          "internalType": "string",
          "name": "",
          "type": "string"
        }
      ],
      "stateMutability": "view",
      "type": "function"
    },
    {
      "inputs": [],
      "name": "TOKEN_REGISTRAR_ROLE",
      "outputs": [
        {
          "internalType": "bytes32",
          "name": "",
          "type": "bytes32"
        }
      ],
      "stateMutability": "view",
      "type": "function"
    },
    {
      "inputs": [
        {
          "internalType": "string",
          "name": "schainName",
          "type": "string"
        },
        {
          "internalType": "address",
          "name": "newTokenManager",
          "type": "address"
        }
      ],
      "name": "addTokenManager",
      "outputs": [],
      "stateMutability": "nonpayable",
      "type": "function"
    },
    {
      "inputs": [],
      "name": "automaticDeploy",
      "outputs": [
        {
          "internalType": "bool",
          "name": "",
          "type": "bool"
        }
      ],
      "stateMutability": "view",
      "type": "function"
    },
    {
      "inputs": [
        {
          "internalType": "address",
          "name": "newDepositBox",
          "type": "address"
        }
      ],
      "name": "changeDepositBoxAddress",
      "outputs": [],
      "stateMutability": "nonpayable",
      "type": "function"
    },
    {
      "inputs": [],
      "name": "communityLocker",
      "outputs": [
        {
          "internalType": "contract ICommunityLocker",
          "name": "",
          "type": "address"
        }
      ],
      "stateMutability": "view",
      "type": "function"
    },
    {
      "inputs": [],
      "name": "depositBox",
      "outputs": [
        {
          "internalType": "address",
          "name": "",
          "type": "address"
        }
      ],
      "stateMutability": "view",
      "type": "function"
    },
    {
      "inputs": [],
      "name": "disableAutomaticDeploy",
      "outputs": [],
      "stateMutability": "nonpayable",
      "type": "function"
    },
    {
      "inputs": [],
      "name": "enableAutomaticDeploy",
      "outputs": [],
      "stateMutability": "nonpayable",
      "type": "function"
    },
    {
      "inputs": [],
      "name": "ethErc20",
      "outputs": [
        {
          "internalType": "contract IEthErc20",
          "name": "",
          "type": "address"
        }
      ],
      "stateMutability": "view",
      "type": "function"
    },
    {
      "inputs": [
        {
          "internalType": "uint256",
          "name": "amount",
          "type": "uint256"
        }
      ],
      "name": "exitToMain",
      "outputs": [],
      "stateMutability": "nonpayable",
      "type": "function"
    },
    {
      "inputs": [
        {
          "internalType": "bytes32",
          "name": "role",
          "type": "bytes32"
        }
      ],
      "name": "getRoleAdmin",
      "outputs": [
        {
          "internalType": "bytes32",
          "name": "",
          "type": "bytes32"
        }
      ],
      "stateMutability": "view",
      "type": "function"
    },
    {
      "inputs": [
        {
          "internalType": "bytes32",
          "name": "role",
          "type": "bytes32"
        },
        {
          "internalType": "uint256",
          "name": "index",
          "type": "uint256"
        }
      ],
      "name": "getRoleMember",
      "outputs": [
        {
          "internalType": "address",
          "name": "",
          "type": "address"
        }
      ],
      "stateMutability": "view",
      "type": "function"
    },
    {
      "inputs": [
        {
          "internalType": "bytes32",
          "name": "role",
          "type": "bytes32"
        }
      ],
      "name": "getRoleMemberCount",
      "outputs": [
        {
          "internalType": "uint256",
          "name": "",
          "type": "uint256"
        }
      ],
      "stateMutability": "view",
      "type": "function"
    },
    {
      "inputs": [
        {
          "internalType": "bytes32",
          "name": "role",
          "type": "bytes32"
        },
        {
          "internalType": "address",
          "name": "account",
          "type": "address"
        }
      ],
      "name": "grantRole",
      "outputs": [],
      "stateMutability": "nonpayable",
      "type": "function"
    },
    {
      "inputs": [
        {
          "internalType": "bytes32",
          "name": "role",
          "type": "bytes32"
        },
        {
          "internalType": "address",
          "name": "account",
          "type": "address"
        }
      ],
      "name": "hasRole",
      "outputs": [
        {
          "internalType": "bool",
          "name": "",
          "type": "bool"
        }
      ],
      "stateMutability": "view",
      "type": "function"
    },
    {
      "inputs": [
        {
          "internalType": "string",
          "name": "schainName",
          "type": "string"
        }
      ],
      "name": "hasTokenManager",
      "outputs": [
        {
          "internalType": "bool",
          "name": "",
          "type": "bool"
        }
      ],
      "stateMutability": "view",
      "type": "function"
    },
    {
      "inputs": [
        {
          "internalType": "string",
          "name": "newChainName",
          "type": "string"
        },
        {
          "internalType": "contract IMessageProxyForSchain",
          "name": "newMessageProxy",
          "type": "address"
        },
        {
          "internalType": "contract ITokenManagerLinker",
          "name": "newIMALinker",
          "type": "address"
        },
        {
          "internalType": "contract ICommunityLocker",
          "name": "newCommunityLocker",
          "type": "address"
        },
        {
          "internalType": "address",
          "name": "newDepositBox",
          "type": "address"
        },
        {
          "internalType": "contract IEthErc20",
          "name": "ethErc20Address",
          "type": "address"
        }
      ],
      "name": "initialize",
      "outputs": [],
      "stateMutability": "nonpayable",
      "type": "function"
    },
    {
      "inputs": [
        {
          "internalType": "string",
          "name": "newSchainName",
          "type": "string"
        },
        {
          "internalType": "contract IMessageProxyForSchain",
          "name": "newMessageProxy",
          "type": "address"
        },
        {
          "internalType": "contract ITokenManagerLinker",
          "name": "newIMALinker",
          "type": "address"
        },
        {
          "internalType": "contract ICommunityLocker",
          "name": "newCommunityLocker",
          "type": "address"
        },
        {
          "internalType": "address",
          "name": "newDepositBox",
          "type": "address"
        }
      ],
      "name": "initializeTokenManager",
      "outputs": [],
      "stateMutability": "nonpayable",
      "type": "function"
    },
    {
      "inputs": [],
      "name": "messageProxy",
      "outputs": [
        {
          "internalType": "contract IMessageProxyForSchain",
          "name": "",
          "type": "address"
        }
      ],
      "stateMutability": "view",
      "type": "function"
    },
    {
      "inputs": [
        {
          "internalType": "bytes32",
          "name": "fromChainHash",
          "type": "bytes32"
        },
        {
          "internalType": "address",
          "name": "sender",
          "type": "address"
        },
        {
          "internalType": "bytes",
          "name": "data",
          "type": "bytes"
        }
      ],
      "name": "postMessage",
      "outputs": [],
      "stateMutability": "nonpayable",
      "type": "function"
    },
    {
      "inputs": [
        {
          "internalType": "string",
          "name": "schainName",
          "type": "string"
        }
      ],
      "name": "removeTokenManager",
      "outputs": [],
      "stateMutability": "nonpayable",
      "type": "function"
    },
    {
      "inputs": [
        {
          "internalType": "bytes32",
          "name": "role",
          "type": "bytes32"
        },
        {
          "internalType": "address",
          "name": "account",
          "type": "address"
        }
      ],
      "name": "renounceRole",
      "outputs": [],
      "stateMutability": "nonpayable",
      "type": "function"
    },
    {
      "inputs": [
        {
          "internalType": "bytes32",
          "name": "role",
          "type": "bytes32"
        },
        {
          "internalType": "address",
          "name": "account",
          "type": "address"
        }
      ],
      "name": "revokeRole",
      "outputs": [],
      "stateMutability": "nonpayable",
      "type": "function"
    },
    {
      "inputs": [],
      "name": "schainHash",
      "outputs": [
        {
          "internalType": "bytes32",
          "name": "",
          "type": "bytes32"
        }
      ],
      "stateMutability": "view",
      "type": "function"
    },
    {
      "inputs": [
        {
          "internalType": "contract IEthErc20",
          "name": "newEthErc20Address",
          "type": "address"
        }
      ],
      "name": "setEthErc20Address",
      "outputs": [],
      "stateMutability": "nonpayable",
      "type": "function"
    },
    {
      "inputs": [
        {
          "internalType": "bytes4",
          "name": "interfaceId",
          "type": "bytes4"
        }
      ],
      "name": "supportsInterface",
      "outputs": [
        {
          "internalType": "bool",
          "name": "",
          "type": "bool"
        }
      ],
      "stateMutability": "view",
      "type": "function"
    },
    {
      "inputs": [],
      "name": "tokenManagerLinker",
      "outputs": [
        {
          "internalType": "contract ITokenManagerLinker",
          "name": "",
          "type": "address"
        }
      ],
      "stateMutability": "view",
      "type": "function"
    },
    {
      "inputs": [
        {
          "internalType": "bytes32",
          "name": "",
          "type": "bytes32"
        }
      ],
      "name": "tokenManagers",
      "outputs": [
        {
          "internalType": "address",
          "name": "",
          "type": "address"
        }
      ],
      "stateMutability": "view",
      "type": "function"
    }
  ],
  "bytecode": "0x608060405234801561001057600080fd5b506120e7806100206000396000f3fe608060405234801561001057600080fd5b50600436106101f05760003560e01c80638182e7071161010f578063c0e312dc116100a2578063d547741f11610071578063d547741f1461046c578063dec2deb61461047f578063edcc12b514610493578063eeeb9601146104a657600080fd5b8063c0e312dc1461040c578063ca15c8731461041f578063cb703bff14610432578063cc5b715b1461044557600080fd5b806391d14854116100de57806391d14854146103d657806392d7846a146103e9578063a217fddf146103fc578063b9581c501461040457600080fd5b80638182e7071461038a578063884cee5a1461039d5780638b71b4b5146103b05780639010d07c146103c357600080fd5b806339927cf9116101875780635573b8b6116101565780635573b8b61461033e5780636ce681d2146103515780636d611286146103645780636d6c68e61461037757600080fd5b806339927cf9146102da5780633b690b6b146102ed5780633fa194ce146102f657806350f442801461030b57600080fd5b806328c5e182116101c357806328c5e182146102995780632dc151de146102a15780632f2ff15d146102b457806336568abe146102c757600080fd5b806301ffc9a7146101f5578063029996b81461021d5780630f1a8f7414610227578063248a9ca314610268575b600080fd5b6102086102033660046118b4565b6104b9565b60405190151581526020015b60405180910390f35b6102256104e4565b005b6102506102353660046118de565b60ce602052600090815260409020546001600160a01b031681565b6040516001600160a01b039091168152602001610214565b61028b6102763660046118de565b60009081526065602052604090206001015490565b604051908152602001610214565b61028b610536565b60ca54610250906001600160a01b031681565b6102256102c236600461190c565b61057f565b6102256102d536600461190c565b6105a9565b6102086102e8366004611985565b610627565b61028b60cc5481565b61028b60008051602061209283398151915281565b6103316040518060400160405280600781526020016613585a5b9b995d60ca1b81525081565b6040516102149190611a17565b60c954610250906001600160a01b031681565b61022561035f366004611acd565b610682565b60cd54610250906001600160a01b031681565b60cb54610250906001600160a01b031681565b610225610398366004611b57565b61089b565b6102256103ab366004611bf2565b61098b565b6102256103be366004611c4e565b610b1e565b6102506103d1366004611c6b565b610bba565b6102086103e436600461190c565b610bd9565b60cf54610250906001600160a01b031681565b61028b600081565b610225610c04565b61022561041a366004611985565b610c47565b61028b61042d3660046118de565b610d34565b610225610440366004611c8d565b610d4b565b61028b7ffda70c2cc66a36c14884ee85424961f51b1d92b4494751699b6d105b3bcbcba881565b61022561047a36600461190c565b610e9f565b60cd5461020890600160a01b900460ff1681565b6102256104a1366004611c4e565b610ec4565b6102256104b43660046118de565b610fda565b60006001600160e01b03198216635a05180f60e01b14806104de57506104de82611098565b92915050565b6104fc60008051602061209283398151915233610bd9565b6105215760405162461bcd60e51b815260040161051890611ce4565b60405180910390fd5b60cd805460ff60a01b1916600160a01b179055565b6040518060400160405280600781526020016613585a5b9b995d60ca1b8152506040516020016105669190611d25565b6040516020818303038152906040528051906020012081565b60008281526065602052604090206001015461059a816110cd565b6105a483836110d7565b505050565b6001600160a01b03811633146106195760405162461bcd60e51b815260206004820152602f60248201527f416363657373436f6e74726f6c3a2063616e206f6e6c792072656e6f756e636560448201526e103937b632b9903337b91039b2b63360891b6064820152608401610518565b61062382826110f9565b5050565b6000806001600160a01b031660ce6000858560405160200161064a929190611d41565b60408051808303601f19018152918152815160209283012083529082019290925201600020546001600160a01b031614159392505050565b600054610100900460ff16158080156106a25750600054600160ff909116105b806106bc5750303b1580156106bc575060005460ff166001145b6106d85760405162461bcd60e51b815260040161051890611d51565b6000805460ff1916600117905580156106fb576000805461ff0019166101001790555b6001600160a01b0382166107515760405162461bcd60e51b815260206004820181905260248201527f4465706f736974426f7820616464726573732068617320746f206265207365746044820152606401610518565b61075961111b565b610764600033611188565b61077c60008051602061209283398151915233611188565b6107a67ffda70c2cc66a36c14884ee85424961f51b1d92b4494751699b6d105b3bcbcba833611188565b856040516020016107b79190611d25565b60408051601f19818403018152828252805160209182012060cc5560c980546001600160a01b038a81166001600160a01b03199283161790925560ca80548a841690831617905560cb805489841690831617905560cd8054928816929091168217905560008452908301527fc968af77923193016f61d74ba6827296db5e1f37ec4fab3ad1ef20e193395e59910160405180910390a18015610893576000805461ff0019169055604051600181527f7f26b83ff96e1f2b6a682f133852f6798a09c465da95921460cefb38474024989060200160405180910390a15b505050505050565b600054610100900460ff16158080156108bb5750600054600160ff909116105b806108d55750303b1580156108d5575060005460ff166001145b6108f15760405162461bcd60e51b815260040161051890611d51565b6000805460ff191660011790558015610914576000805461ff0019166101001790555b6109218787878787610682565b60cf80546001600160a01b0319166001600160a01b0384161790558015610982576000805461ff0019169055604051600181527f7f26b83ff96e1f2b6a682f133852f6798a09c465da95921460cefb38474024989060200160405180910390a15b50505050505050565b60c9546001600160a01b031633146109e55760405162461bcd60e51b815260206004820152601c60248201527f53656e646572206973206e6f742061204d65737361676550726f7879000000006044820152606401610518565b838360cc5482141580156109fe57506109fe8282611192565b610a4a5760405162461bcd60e51b815260206004820152601b60248201527f526563656976657220636861696e20697320696e636f727265637400000000006044820152606401610518565b6000610a5685856111fa565b60208101519091506001600160a01b038116610aa95760405162461bcd60e51b815260206004820152601260248201527124b731b7b93932b1ba103932b1b2b4bb32b960711b6044820152606401610518565b60cf5460408381015190516340c10f1960e01b81526001600160a01b03848116600483015260248201929092529116906340c10f1990604401600060405180830381600087803b158015610afc57600080fd5b505af1158015610b10573d6000803e3d6000fd5b505050505050505050505050565b610b29600033610bd9565b610b455760405162461bcd60e51b815260040161051890611d9f565b60cf546001600160a01b03808316911603610b985760405162461bcd60e51b81526020600482015260136024820152724d757374206265206e6577206164647265737360681b6044820152606401610518565b60cf80546001600160a01b0319166001600160a01b0392909216919091179055565b6000828152609760205260408120610bd29083611293565b9392505050565b60009182526065602090815260408084206001600160a01b0393909316845291905290205460ff1690565b610c1c60008051602061209283398151915233610bd9565b610c385760405162461bcd60e51b815260040161051890611ce4565b60cd805460ff60a01b19169055565b60ca546001600160a01b0316331480610c665750610c66600033610bd9565b610c825760405162461bcd60e51b815260040161051890611d9f565b60008282604051602001610c97929190611d41565b60408051601f198184030181529181528151602092830120600081815260ce9093529120549091506001600160a01b0316610d145760405162461bcd60e51b815260206004820152601860248201527f546f6b656e204d616e61676572206973206e6f742073657400000000000000006044820152606401610518565b600090815260ce6020526040902080546001600160a01b03191690555050565b60008181526097602052604081206104de9061129f565b60ca546001600160a01b0316331480610d6a5750610d6a600033610bd9565b610d865760405162461bcd60e51b815260040161051890611d9f565b60008383604051602001610d9b929190611d41565b60408051601f198184030181529181528151602092830120600081815260ce9093529120549091506001600160a01b031615610e195760405162461bcd60e51b815260206004820152601c60248201527f546f6b656e204d616e6167657220697320616c726561647920736574000000006044820152606401610518565b6001600160a01b038216610e6f5760405162461bcd60e51b815260206004820152601f60248201527f496e636f727265637420546f6b656e204d616e616765722061646472657373006044820152606401610518565b600090815260ce6020526040902080546001600160a01b0319166001600160a01b03929092169190911790555050565b600082815260656020526040902060010154610eba816110cd565b6105a483836110f9565b610ecf600033610bd9565b610f1b5760405162461bcd60e51b815260206004820152601e60248201527f44454641554c545f41444d494e5f524f4c4520697320726571756972656400006044820152606401610518565b6001600160a01b038116610f715760405162461bcd60e51b815260206004820181905260248201527f4465706f736974426f7820616464726573732068617320746f206265207365746044820152606401610518565b60cd54604080516001600160a01b03928316815291831660208301527fc968af77923193016f61d74ba6827296db5e1f37ec4fab3ad1ef20e193395e59910160405180910390a160cd80546001600160a01b0319166001600160a01b0392909216919091179055565b60cb546040516311be333d60e11b81523360048201526001600160a01b039091169063237c667a90602401600060405180830381600087803b15801561101f57600080fd5b505af1158015611033573d6000803e3d6000fd5b505050506110956040518060400160405280600781526020016613585a5b9b995d60ca1b81525060405160200161106a9190611d25565b60408051601f19818403018152919052805160209091012060cd546001600160a01b031633846112a9565b50565b60006001600160e01b03198216637965db0b60e01b14806104de57506301ffc9a760e01b6001600160e01b03198316146104de565b611095813361138e565b6110e182826113f2565b60008281526097602052604090206105a49082611478565b611103828261148d565b60008281526097602052604090206105a490826114f4565b600054610100900460ff166111865760405162461bcd60e51b815260206004820152602b60248201527f496e697469616c697a61626c653a20636f6e7472616374206973206e6f74206960448201526a6e697469616c697a696e6760a81b6064820152608401610518565b565b61062382826110d7565b60006040518060400160405280600781526020016613585a5b9b995d60ca1b8152506040516020016111c49190611d25565b6040516020818303038152906040528051906020012083148015610bd257505060cd546001600160a01b03908116911614919050565b604080516080810182526000606082018181528252602082018190529181019190915260016112298484611509565b600e81111561123a5761123a611dce565b146112875760405162461bcd60e51b815260206004820181905260248201527f4d6573736167652074797065206973206e6f7420455448207472616e736665726044820152606401610518565b610bd282840184611df8565b6000610bd28383611554565b60006104de825490565b80156113145760cf546040516338b5bd8d60e21b8152336004820152602481018390526001600160a01b039091169063e2d6f63490604401600060405180830381600087803b1580156112fb57600080fd5b505af115801561130f573d6000803e3d6000fd5b505050505b6000611320838361157e565b60c954604051634a24490160e11b81529192506001600160a01b03169063944892029061135590889088908690600401611e98565b600060405180830381600087803b15801561136f57600080fd5b505af1158015611383573d6000803e3d6000fd5b505050505050505050565b6113988282610bd9565b610623576113b0816001600160a01b031660146115d6565b6113bb8360206115d6565b6040516020016113cc929190611ecb565b60408051601f198184030181529082905262461bcd60e51b825261051891600401611a17565b6113fc8282610bd9565b6106235760008281526065602090815260408083206001600160a01b03851684529091529020805460ff191660011790556114343390565b6001600160a01b0316816001600160a01b0316837f2f8788117e7eff1d82e926ec794901d17c78024a50270940304540a733656f0d60405160405180910390a45050565b6000610bd2836001600160a01b038416611772565b6114978282610bd9565b156106235760008281526065602090815260408083206001600160a01b0385168085529252808320805460ff1916905551339285917ff6391f5c32d9c69d2a47ea670b442974b53935d1edc7fd64eb21e047a839171b9190a45050565b6000610bd2836001600160a01b0384166117c1565b600080611518838501856118de565b9050611525602082611f40565b6000036115485761154061153b84838188611f62565b611509565b9150506104de565b61154083850185611f8c565b600082600001828154811061156b5761156b611fa7565b9060005260206000200154905092915050565b60408051608081018252600160608083019182529082526001600160a01b038516602080840191909152828401859052925190926115be91839101611fbd565b60405160208183030381529060405291505092915050565b606060006115e583600261201f565b6115f090600261203e565b67ffffffffffffffff81111561160857611608611a2a565b6040519080825280601f01601f191660200182016040528015611632576020820181803683370190505b509050600360fc1b8160008151811061164d5761164d611fa7565b60200101906001600160f81b031916908160001a905350600f60fb1b8160018151811061167c5761167c611fa7565b60200101906001600160f81b031916908160001a90535060006116a084600261201f565b6116ab90600161203e565b90505b6001811115611723576f181899199a1a9b1b9c1cb0b131b232b360811b85600f16601081106116df576116df611fa7565b1a60f81b8282815181106116f5576116f5611fa7565b60200101906001600160f81b031916908160001a90535060049490941c9361171c81612051565b90506116ae565b508315610bd25760405162461bcd60e51b815260206004820181905260248201527f537472696e67733a20686578206c656e67746820696e73756666696369656e746044820152606401610518565b60008181526001830160205260408120546117b9575081546001818101845560008481526020808220909301849055845484825282860190935260409020919091556104de565b5060006104de565b600081815260018301602052604081205480156118aa5760006117e5600183612068565b85549091506000906117f990600190612068565b905081811461185e57600086600001828154811061181957611819611fa7565b906000526020600020015490508087600001848154811061183c5761183c611fa7565b6000918252602080832090910192909255918252600188019052604090208390555b855486908061186f5761186f61207b565b6001900381819060005260206000200160009055905585600101600086815260200190815260200160002060009055600193505050506104de565b60009150506104de565b6000602082840312156118c657600080fd5b81356001600160e01b031981168114610bd257600080fd5b6000602082840312156118f057600080fd5b5035919050565b6001600160a01b038116811461109557600080fd5b6000806040838503121561191f57600080fd5b823591506020830135611931816118f7565b809150509250929050565b60008083601f84011261194e57600080fd5b50813567ffffffffffffffff81111561196657600080fd5b60208301915083602082850101111561197e57600080fd5b9250929050565b6000806020838503121561199857600080fd5b823567ffffffffffffffff8111156119af57600080fd5b6119bb8582860161193c565b90969095509350505050565b60005b838110156119e25781810151838201526020016119ca565b50506000910152565b60008151808452611a038160208601602086016119c7565b601f01601f19169290920160200192915050565b602081526000610bd260208301846119eb565b634e487b7160e01b600052604160045260246000fd5b600082601f830112611a5157600080fd5b813567ffffffffffffffff80821115611a6c57611a6c611a2a565b604051601f8301601f19908116603f01168101908282118183101715611a9457611a94611a2a565b81604052838152866020858801011115611aad57600080fd5b836020870160208301376000602085830101528094505050505092915050565b600080600080600060a08688031215611ae557600080fd5b853567ffffffffffffffff811115611afc57600080fd5b611b0888828901611a40565b9550506020860135611b19816118f7565b93506040860135611b29816118f7565b92506060860135611b39816118f7565b91506080860135611b49816118f7565b809150509295509295909350565b60008060008060008060c08789031215611b7057600080fd5b863567ffffffffffffffff811115611b8757600080fd5b611b9389828a01611a40565b9650506020870135611ba4816118f7565b94506040870135611bb4816118f7565b93506060870135611bc4816118f7565b92506080870135611bd4816118f7565b915060a0870135611be4816118f7565b809150509295509295509295565b60008060008060608587031215611c0857600080fd5b843593506020850135611c1a816118f7565b9250604085013567ffffffffffffffff811115611c3657600080fd5b611c428782880161193c565b95989497509550505050565b600060208284031215611c6057600080fd5b8135610bd2816118f7565b60008060408385031215611c7e57600080fd5b50508035926020909101359150565b600080600060408486031215611ca257600080fd5b833567ffffffffffffffff811115611cb957600080fd5b611cc58682870161193c565b9094509250506020840135611cd9816118f7565b809150509250925092565b60208082526021908201527f4155544f4d415449435f4445504c4f595f524f4c4520697320726571756972656040820152601960fa1b606082015260800190565b60008251611d378184602087016119c7565b9190910192915050565b8183823760009101908152919050565b6020808252602e908201527f496e697469616c697a61626c653a20636f6e747261637420697320616c72656160408201526d191e481a5b9a5d1a585b1a5e995960921b606082015260800190565b6020808252601590820152742737ba1030baba3437b934bd32b21031b0b63632b960591b604082015260600190565b634e487b7160e01b600052602160045260246000fd5b8035600f8110611df357600080fd5b919050565b60008183036060811215611e0b57600080fd5b6040516060810167ffffffffffffffff8282108183111715611e2f57611e2f611a2a565b816040526020841215611e4157600080fd5b6080830193508184108185111715611e5b57611e5b611a2a565b5082604052611e6985611de4565b8152815260208401359150611e7d826118f7565b81602082015260408401356040820152809250505092915050565b8381526001600160a01b0383166020820152606060408201819052600090611ec2908301846119eb565b95945050505050565b7f416363657373436f6e74726f6c3a206163636f756e7420000000000000000000815260008351611f038160178501602088016119c7565b7001034b99036b4b9b9b4b733903937b6329607d1b6017918401918201528351611f348160288401602088016119c7565b01602801949350505050565b600082611f5d57634e487b7160e01b600052601260045260246000fd5b500690565b60008085851115611f7257600080fd5b83861115611f7f57600080fd5b5050820193919092039150565b600060208284031215611f9e57600080fd5b610bd282611de4565b634e487b7160e01b600052603260045260246000fd5b8151516060820190600f8110611fe357634e487b7160e01b600052602160045260246000fd5b82526020838101516001600160a01b031690830152604092830151929091019190915290565b634e487b7160e01b600052601160045260246000fd5b600081600019048311821515161561203957612039612009565b500290565b808201808211156104de576104de612009565b60008161206057612060612009565b506000190190565b818103818111156104de576104de612009565b634e487b7160e01b600052603160045260246000fdfe7164765a3c8bd2513bdfa0c90f1bee9606e920fbf2c9071f310263fbd818684ba2646970667358221220ad1395573cb3528d0ae9fea651242a63d6620f09d3ce75c85ab5f1ea169ab31e64736f6c63430008100033",
  "linkReferences": {},
  "deployedLinkReferences": {}
}