{
  "_format": "hh-sol-artifact-1",
  "contractName": "TokenManagerERC20",
  "sourceName": "contracts/schain/TokenManagers/TokenManagerERC20.sol",
  "abi": [
    {
      "anonymous": false,
      "inputs": [
        {
          "indexed": false,
          "internalType": "address",
          "name": "oldValue",
          "type": "address"
        },
        {
          "indexed": false,
          "internalType": "address",
          "name": "newValue",
          "type": "address"
        }
      ],
      "name": "DepositBoxWasChanged",
      "type": "event"
    },
    {
      "anonymous": false,
      "inputs": [
        {
          "indexed": true,
          "internalType": "bytes32",
          "name": "chainHash",
          "type": "bytes32"
        },
        {
          "indexed": true,
          "internalType": "address",
          "name": "erc20OnMainChain",
          "type": "address"
        },
        {
          "indexed": true,
          "internalType": "address",
          "name": "erc20OnSchain",
          "type": "address"
        }
      ],
      "name": "ERC20TokenAdded",
      "type": "event"
    },
    {
      "anonymous": false,
      "inputs": [
        {
          "indexed": true,
          "internalType": "bytes32",
          "name": "chainHash",
          "type": "bytes32"
        },
        {
          "indexed": true,
          "internalType": "address",
          "name": "erc20OnMainChain",
          "type": "address"
        },
        {
          "indexed": true,
          "internalType": "address",
          "name": "erc20OnSchain",
          "type": "address"
        }
      ],
      "name": "ERC20TokenCreated",
      "type": "event"
    },
    {
      "anonymous": false,
      "inputs": [
        {
          "indexed": true,
          "internalType": "bytes32",
          "name": "chainHash",
          "type": "bytes32"
        },
        {
          "indexed": true,
          "internalType": "address",
          "name": "contractOnMainnet",
          "type": "address"
        },
        {
          "indexed": false,
          "internalType": "uint256",
          "name": "amount",
          "type": "uint256"
        }
      ],
      "name": "ERC20TokenReady",
      "type": "event"
    },
    {
      "anonymous": false,
      "inputs": [
        {
          "indexed": true,
          "internalType": "bytes32",
          "name": "chainHash",
          "type": "bytes32"
        },
        {
          "indexed": true,
          "internalType": "address",
          "name": "erc20OnMainChain",
          "type": "address"
        },
        {
          "indexed": true,
          "internalType": "address",
          "name": "erc20OnSchain",
          "type": "address"
        },
        {
          "indexed": false,
          "internalType": "uint256",
          "name": "amount",
          "type": "uint256"
        }
      ],
      "name": "ERC20TokenReceived",
      "type": "event"
    },
    {
      "anonymous": false,
      "inputs": [
        {
          "indexed": false,
          "internalType": "uint8",
          "name": "version",
          "type": "uint8"
        }
      ],
      "name": "Initialized",
      "type": "event"
    },
    {
      "anonymous": false,
      "inputs": [
        {
          "indexed": true,
          "internalType": "bytes32",
          "name": "role",
          "type": "bytes32"
        },
        {
          "indexed": true,
          "internalType": "bytes32",
          "name": "previousAdminRole",
          "type": "bytes32"
        },
        {
          "indexed": true,
          "internalType": "bytes32",
          "name": "newAdminRole",
          "type": "bytes32"
        }
      ],
      "name": "RoleAdminChanged",
      "type": "event"
    },
    {
      "anonymous": false,
      "inputs": [
        {
          "indexed": true,
          "internalType": "bytes32",
          "name": "role",
          "type": "bytes32"
        },
        {
          "indexed": true,
          "internalType": "address",
          "name": "account",
          "type": "address"
        },
        {
          "indexed": true,
          "internalType": "address",
          "name": "sender",
          "type": "address"
        }
      ],
      "name": "RoleGranted",
      "type": "event"
    },
    {
      "anonymous": false,
      "inputs": [
        {
          "indexed": true,
          "internalType": "bytes32",
          "name": "role",
          "type": "bytes32"
        },
        {
          "indexed": true,
          "internalType": "address",
          "name": "account",
          "type": "address"
        },
        {
          "indexed": true,
          "internalType": "address",
          "name": "sender",
          "type": "address"
        }
      ],
      "name": "RoleRevoked",
      "type": "event"
    },
    {
      "inputs": [],
      "name": "AUTOMATIC_DEPLOY_ROLE",
      "outputs": [
        {
          "internalType": "bytes32",
          "name": "",
          "type": "bytes32"
        }
      ],
      "stateMutability": "view",
      "type": "function"
    },
    {
      "inputs": [],
      "name": "DEFAULT_ADMIN_ROLE",
      "outputs": [
        {
          "internalType": "bytes32",
          "name": "",
          "type": "bytes32"
        }
      ],
      "stateMutability": "view",
      "type": "function"
    },
    {
      "inputs": [],
      "name": "MAINNET_HASH",
      "outputs": [
        {
          "internalType": "bytes32",
          "name": "",
          "type": "bytes32"
        }
      ],
      "stateMutability": "view",
      "type": "function"
    },
    {
      "inputs": [],
      "name": "MAINNET_NAME",
      "outputs": [
        {
          "internalType": "string",
          "name": "",
          "type": "string"
        }
      ],
      "stateMutability": "view",
      "type": "function"
    },
    {
      "inputs": [],
      "name": "TOKEN_REGISTRAR_ROLE",
      "outputs": [
        {
          "internalType": "bytes32",
          "name": "",
          "type": "bytes32"
        }
      ],
      "stateMutability": "view",
      "type": "function"
    },
    {
      "inputs": [
        {
          "internalType": "string",
          "name": "targetChainName",
          "type": "string"
        },
        {
          "internalType": "address",
          "name": "erc20OnMainChain",
          "type": "address"
        },
        {
          "internalType": "address",
          "name": "erc20OnSchain",
          "type": "address"
        }
      ],
      "name": "addERC20TokenByOwner",
      "outputs": [],
      "stateMutability": "nonpayable",
      "type": "function"
    },
    {
      "inputs": [
        {
          "internalType": "string",
          "name": "schainName",
          "type": "string"
        },
        {
          "internalType": "address",
          "name": "newTokenManager",
          "type": "address"
        }
      ],
      "name": "addTokenManager",
      "outputs": [],
      "stateMutability": "nonpayable",
      "type": "function"
    },
    {
      "inputs": [
        {
          "internalType": "contract ERC20OnChain",
          "name": "",
          "type": "address"
        }
      ],
      "name": "addedClones",
      "outputs": [
        {
          "internalType": "bool",
          "name": "",
          "type": "bool"
        }
      ],
      "stateMutability": "view",
      "type": "function"
    },
    {
      "inputs": [],
      "name": "automaticDeploy",
      "outputs": [
        {
          "internalType": "bool",
          "name": "",
          "type": "bool"
        }
      ],
      "stateMutability": "view",
      "type": "function"
    },
    {
      "inputs": [
        {
          "internalType": "address",
          "name": "newDepositBox",
          "type": "address"
        }
      ],
      "name": "changeDepositBoxAddress",
      "outputs": [],
      "stateMutability": "nonpayable",
      "type": "function"
    },
    {
      "inputs": [
        {
          "internalType": "bytes32",
          "name": "",
          "type": "bytes32"
        },
        {
          "internalType": "address",
          "name": "",
          "type": "address"
        }
      ],
      "name": "clonesErc20",
      "outputs": [
        {
          "internalType": "contract ERC20OnChain",
          "name": "",
          "type": "address"
        }
      ],
      "stateMutability": "view",
      "type": "function"
    },
    {
      "inputs": [],
      "name": "communityLocker",
      "outputs": [
        {
          "internalType": "contract ICommunityLocker",
          "name": "",
          "type": "address"
        }
      ],
      "stateMutability": "view",
      "type": "function"
    },
    {
      "inputs": [],
      "name": "depositBox",
      "outputs": [
        {
          "internalType": "address",
          "name": "",
          "type": "address"
        }
      ],
      "stateMutability": "view",
      "type": "function"
    },
    {
      "inputs": [
        {
          "internalType": "address",
          "name": "",
          "type": "address"
        }
      ],
      "name": "deprecatedClonesErc20",
      "outputs": [
        {
          "internalType": "contract ERC20OnChain",
          "name": "",
          "type": "address"
        }
      ],
      "stateMutability": "view",
      "type": "function"
    },
    {
      "inputs": [],
      "name": "disableAutomaticDeploy",
      "outputs": [],
      "stateMutability": "nonpayable",
      "type": "function"
    },
    {
      "inputs": [],
      "name": "enableAutomaticDeploy",
      "outputs": [],
      "stateMutability": "nonpayable",
      "type": "function"
    },
    {
      "inputs": [
        {
          "internalType": "address",
          "name": "contractOnMainnet",
          "type": "address"
        },
        {
          "internalType": "uint256",
          "name": "amount",
          "type": "uint256"
        }
      ],
      "name": "exitToMainERC20",
      "outputs": [],
      "stateMutability": "nonpayable",
      "type": "function"
    },
    {
      "inputs": [
        {
          "internalType": "bytes32",
          "name": "role",
          "type": "bytes32"
        }
      ],
      "name": "getRoleAdmin",
      "outputs": [
        {
          "internalType": "bytes32",
          "name": "",
          "type": "bytes32"
        }
      ],
      "stateMutability": "view",
      "type": "function"
    },
    {
      "inputs": [
        {
          "internalType": "bytes32",
          "name": "role",
          "type": "bytes32"
        },
        {
          "internalType": "uint256",
          "name": "index",
          "type": "uint256"
        }
      ],
      "name": "getRoleMember",
      "outputs": [
        {
          "internalType": "address",
          "name": "",
          "type": "address"
        }
      ],
      "stateMutability": "view",
      "type": "function"
    },
    {
      "inputs": [
        {
          "internalType": "bytes32",
          "name": "role",
          "type": "bytes32"
        }
      ],
      "name": "getRoleMemberCount",
      "outputs": [
        {
          "internalType": "uint256",
          "name": "",
          "type": "uint256"
        }
      ],
      "stateMutability": "view",
      "type": "function"
    },
    {
      "inputs": [
        {
          "internalType": "bytes32",
          "name": "role",
          "type": "bytes32"
        },
        {
          "internalType": "address",
          "name": "account",
          "type": "address"
        }
      ],
      "name": "grantRole",
      "outputs": [],
      "stateMutability": "nonpayable",
      "type": "function"
    },
    {
      "inputs": [
        {
          "internalType": "bytes32",
          "name": "role",
          "type": "bytes32"
        },
        {
          "internalType": "address",
          "name": "account",
          "type": "address"
        }
      ],
      "name": "hasRole",
      "outputs": [
        {
          "internalType": "bool",
          "name": "",
          "type": "bool"
        }
      ],
      "stateMutability": "view",
      "type": "function"
    },
    {
      "inputs": [
        {
          "internalType": "string",
          "name": "schainName",
          "type": "string"
        }
      ],
      "name": "hasTokenManager",
      "outputs": [
        {
          "internalType": "bool",
          "name": "",
          "type": "bool"
        }
      ],
      "stateMutability": "view",
      "type": "function"
    },
    {
      "inputs": [
        {
          "internalType": "string",
          "name": "newChainName",
          "type": "string"
        },
        {
          "internalType": "contract IMessageProxyForSchain",
          "name": "newMessageProxy",
          "type": "address"
        },
        {
          "internalType": "contract ITokenManagerLinker",
          "name": "newIMALinker",
          "type": "address"
        },
        {
          "internalType": "contract ICommunityLocker",
          "name": "newCommunityLocker",
          "type": "address"
        },
        {
          "internalType": "address",
          "name": "newDepositBox",
          "type": "address"
        }
      ],
      "name": "initialize",
      "outputs": [],
      "stateMutability": "nonpayable",
      "type": "function"
    },
    {
      "inputs": [
        {
          "internalType": "string",
          "name": "newSchainName",
          "type": "string"
        },
        {
          "internalType": "contract IMessageProxyForSchain",
          "name": "newMessageProxy",
          "type": "address"
        },
        {
          "internalType": "contract ITokenManagerLinker",
          "name": "newIMALinker",
          "type": "address"
        },
        {
          "internalType": "contract ICommunityLocker",
          "name": "newCommunityLocker",
          "type": "address"
        },
        {
          "internalType": "address",
          "name": "newDepositBox",
          "type": "address"
        }
      ],
      "name": "initializeTokenManager",
      "outputs": [],
      "stateMutability": "nonpayable",
      "type": "function"
    },
    {
      "inputs": [],
      "name": "messageProxy",
      "outputs": [
        {
          "internalType": "contract IMessageProxyForSchain",
          "name": "",
          "type": "address"
        }
      ],
      "stateMutability": "view",
      "type": "function"
    },
    {
      "inputs": [
        {
          "internalType": "bytes32",
          "name": "fromChainHash",
          "type": "bytes32"
        },
        {
          "internalType": "address",
          "name": "sender",
          "type": "address"
        },
        {
          "internalType": "bytes",
          "name": "data",
          "type": "bytes"
        }
      ],
      "name": "postMessage",
      "outputs": [],
      "stateMutability": "nonpayable",
      "type": "function"
    },
    {
      "inputs": [
        {
          "internalType": "string",
          "name": "schainName",
          "type": "string"
        }
      ],
      "name": "removeTokenManager",
      "outputs": [],
      "stateMutability": "nonpayable",
      "type": "function"
    },
    {
      "inputs": [
        {
          "internalType": "bytes32",
          "name": "role",
          "type": "bytes32"
        },
        {
          "internalType": "address",
          "name": "account",
          "type": "address"
        }
      ],
      "name": "renounceRole",
      "outputs": [],
      "stateMutability": "nonpayable",
      "type": "function"
    },
    {
      "inputs": [
        {
          "internalType": "bytes32",
          "name": "role",
          "type": "bytes32"
        },
        {
          "internalType": "address",
          "name": "account",
          "type": "address"
        }
      ],
      "name": "revokeRole",
      "outputs": [],
      "stateMutability": "nonpayable",
      "type": "function"
    },
    {
      "inputs": [],
      "name": "schainHash",
      "outputs": [
        {
          "internalType": "bytes32",
          "name": "",
          "type": "bytes32"
        }
      ],
      "stateMutability": "view",
      "type": "function"
    },
    {
      "inputs": [
        {
          "internalType": "bytes4",
          "name": "interfaceId",
          "type": "bytes4"
        }
      ],
      "name": "supportsInterface",
      "outputs": [
        {
          "internalType": "bool",
          "name": "",
          "type": "bool"
        }
      ],
      "stateMutability": "view",
      "type": "function"
    },
    {
      "inputs": [],
      "name": "tokenManagerLinker",
      "outputs": [
        {
          "internalType": "contract ITokenManagerLinker",
          "name": "",
          "type": "address"
        }
      ],
      "stateMutability": "view",
      "type": "function"
    },
    {
      "inputs": [
        {
          "internalType": "bytes32",
          "name": "",
          "type": "bytes32"
        }
      ],
      "name": "tokenManagers",
      "outputs": [
        {
          "internalType": "address",
          "name": "",
          "type": "address"
        }
      ],
      "stateMutability": "view",
      "type": "function"
    },
    {
      "inputs": [
        {
          "internalType": "contract IERC20Upgradeable",
          "name": "",
          "type": "address"
        }
      ],
      "name": "totalSupplyOnMainnet",
      "outputs": [
        {
          "internalType": "uint256",
          "name": "",
          "type": "uint256"
        }
      ],
      "stateMutability": "view",
      "type": "function"
    },
    {
      "inputs": [
        {
          "internalType": "string",
          "name": "targetSchainName",
          "type": "string"
        },
        {
          "internalType": "address",
          "name": "contractOnMainnet",
          "type": "address"
        },
        {
          "internalType": "uint256",
          "name": "amount",
          "type": "uint256"
        }
      ],
      "name": "transferToSchainERC20",
      "outputs": [],
      "stateMutability": "nonpayable",
      "type": "function"
    },
    {
      "inputs": [
        {
          "internalType": "bytes32",
          "name": "",
          "type": "bytes32"
        },
        {
          "internalType": "address",
          "name": "",
          "type": "address"
        }
      ],
      "name": "transferredAmount",
      "outputs": [
        {
          "internalType": "uint256",
          "name": "",
          "type": "uint256"
        }
      ],
      "stateMutability": "view",
      "type": "function"
    }
  ],
  "bytecode": "0x608060405234801561001057600080fd5b50615ebf806100206000396000f3fe60806040523480156200001157600080fd5b5060043610620002555760003560e01c80636d6112861162000149578063babc4a3311620000c7578063d547741f1162000086578063d547741f14620005da578063dec2deb614620005f1578063eafd15c81462000606578063edcc12b5146200061d578063f429e383146200063457600080fd5b8063babc4a33146200053f578063c0e312dc146200056d578063ca15c8731462000584578063cb703bff146200059b578063cc5b715b14620005b257600080fd5b80639010d07c11620001145780639010d07c14620004d857806391d1485414620004ef578063a217fddf1462000506578063aebaaca9146200050f578063b9581c50146200053557600080fd5b80636d61128614620004825780636d6c68e614620004965780638504950614620004aa578063884cee5a14620004c157600080fd5b806339927cf911620001d757806350f4428011620001a257806350f4428014620003d3578063510d8a5814620004095780635573b8b6146200044057806368eb202214620004545780636ce681d2146200046b57600080fd5b806339927cf9146200036f5780633b690b6b14620003865780633fa194ce1462000390578063467a5d8114620003a757600080fd5b8063248a9ca31162000224578063248a9ca314620002ee57806328c5e18214620003235780632dc151de146200032d5780632f2ff15d146200034157806336568abe146200035857600080fd5b806301ffc9a7146200025a578063029996b814620002865780630b885ac314620002925780630f1a8f7414620002a9575b600080fd5b620002716200026b3660046200337e565b62000657565b60405190151581526020015b60405180910390f35b6200029062000685565b005b62000290620002a3366004620034ba565b620006dd565b620002d5620002ba3660046200354f565b60ce602052600090815260409020546001600160a01b031681565b6040516001600160a01b0390911681526020016200027d565b62000314620002ff3660046200354f565b60009081526065602052604090206001015490565b6040519081526020016200027d565b62000314620006f3565b60ca54620002d5906001600160a01b031681565b620002906200035236600462003569565b6200073e565b620002906200036936600462003569565b6200076c565b6200027162000380366004620035e0565b620007ee565b6200031460cc5481565b6200031460008051602062005e6a83398151915281565b620002d5620003b836600462003625565b60cf602052600090815260409020546001600160a01b031681565b620003fa6040518060400160405280600781526020016613585a5b9b995d60ca1b81525081565b6040516200027d919062003699565b620002d56200041a36600462003569565b60d26020908152600092835260408084209091529082529020546001600160a01b031681565b60c954620002d5906001600160a01b031681565b6200029062000465366004620036ae565b6200084b565b620002906200047c366004620034ba565b6200090d565b60cd54620002d5906001600160a01b031681565b60cb54620002d5906001600160a01b031681565b62000290620004bb366004620036dd565b62000b81565b62000290620004d23660046200373f565b62000dae565b620002d5620004e9366004620037a0565b62000f3b565b620002716200050036600462003569565b62000f5c565b62000314600081565b620002716200052036600462003625565b60d16020526000908152604090205460ff1681565b6200029062000f87565b620003146200055036600462003569565b60d360209081526000928352604080842090915290825290205481565b620002906200057e366004620035e0565b62000fd0565b62000314620005953660046200354f565b620010ee565b62000290620005ac366004620037c3565b62001107565b620003147ffda70c2cc66a36c14884ee85424961f51b1d92b4494751699b6d105b3bcbcba881565b62000290620005eb36600462003569565b6200128e565b60cd546200027190600160a01b900460ff1681565b62000290620006173660046200381f565b620012b7565b620002906200062e36600462003625565b62001684565b620003146200064536600462003625565b60d06020526000908152604090205481565b60006001600160e01b03198216635a05180f60e01b14806200067f57506200067f82620017a0565b92915050565b620006a060008051602062005e6a8339815191523362000f5c565b620006c85760405162461bcd60e51b8152600401620006bf906200388e565b60405180910390fd5b60cd805460ff60a01b1916600160a01b179055565b620006ec85858585856200090d565b5050505050565b6040518060400160405280600781526020016613585a5b9b995d60ca1b815250604051602001620007259190620038cf565b6040516020818303038152906040528051906020012081565b6000828152606560205260409020600101546200075b81620017d7565b620007678383620017e6565b505050565b6001600160a01b0381163314620007de5760405162461bcd60e51b815260206004820152602f60248201527f416363657373436f6e74726f6c3a2063616e206f6e6c792072656e6f756e636560448201526e103937b632b9903337b91039b2b63360891b6064820152608401620006bf565b620007ea82826200180c565b5050565b6000806001600160a01b031660ce6000858560405160200162000813929190620038ed565b60408051808303601f19018152918152815160209283012083529082019290925201600020546001600160a01b031614159392505050565b60cb546040516311be333d60e11b81523360048201526001600160a01b039091169063237c667a90602401600060405180830381600087803b1580156200089157600080fd5b505af1158015620008a6573d6000803e3d6000fd5b50505050620007ea6040518060400160405280600781526020016613585a5b9b995d60ca1b815250604051602001620008e09190620038cf565b60408051601f19818403018152919052805160209091012060cd546001600160a01b031684338562001832565b600054610100900460ff16158080156200092e5750600054600160ff909116105b806200094a5750303b1580156200094a575060005460ff166001145b620009af5760405162461bcd60e51b815260206004820152602e60248201527f496e697469616c697a61626c653a20636f6e747261637420697320616c72656160448201526d191e481a5b9a5d1a585b1a5e995960921b6064820152608401620006bf565b6000805460ff191660011790558015620009d3576000805461ff0019166101001790555b6001600160a01b03821662000a2b5760405162461bcd60e51b815260206004820181905260248201527f4465706f736974426f7820616464726573732068617320746f206265207365746044820152606401620006bf565b62000a3562001da0565b62000a4260003362001e0f565b62000a5d60008051602062005e6a8339815191523362001e0f565b62000a897ffda70c2cc66a36c14884ee85424961f51b1d92b4494751699b6d105b3bcbcba83362001e0f565b8560405160200162000a9c9190620038cf565b60408051601f19818403018152828252805160209182012060cc5560c980546001600160a01b038a81166001600160a01b03199283161790925560ca80548a841690831617905560cb805489841690831617905560cd8054928816929091168217905560008452908301527fc968af77923193016f61d74ba6827296db5e1f37ec4fab3ad1ef20e193395e59910160405180910390a1801562000b79576000805461ff0019169055604051600181527f7f26b83ff96e1f2b6a682f133852f6798a09c465da95921460cefb38474024989060200160405180910390a15b505050505050565b83838080601f016020809104026020016040519081016040528093929190818152602001838380828437600092018290525060405133945090925062000bcd91508490602001620038cf565b60408051601f1981840301815282825280516020918201208383018352600784526613585a5b9b995d60ca1b84830152915191935062000c0f929101620038cf565b60405160208183030381529060405280519060200120810362000c8e5760405162461bcd60e51b815260206004820152603060248201527f546869732066756e6374696f6e206973206e6f7420666f72207472616e73666560448201526f1c9c9a5b99c81d1bc813585a5b9b995d60821b6064820152608401620006bf565b6001600160a01b03821662000ce65760405162461bcd60e51b815260206004820152601a60248201527f496e636f727265637420726563656976657220616464726573730000000000006044820152606401620006bf565b600081815260ce60205260409020546001600160a01b031662000d4c5760405162461bcd60e51b815260206004820152601f60248201527f496e636f727265637420546f6b656e204d616e616765722061646472657373006044820152606401620006bf565b6000878760405160200162000d63929190620038ed565b60408051601f198184030181529181528151602092830120600081815260ce90935291205490915062000da49082906001600160a01b031688338962001832565b5050505050505050565b60c9546001600160a01b0316331462000e0a5760405162461bcd60e51b815260206004820152601c60248201527f53656e646572206973206e6f742061204d65737361676550726f7879000000006044820152606401620006bf565b838360cc54821415801562000e26575062000e26828262001e1b565b62000e745760405162461bcd60e51b815260206004820152601b60248201527f526563656976657220636861696e20697320696e636f727265637400000000006044820152606401620006bf565b600062000e82858562001ea6565b90506000600282600e81111562000e9d5762000e9d620038fd565b148062000ebe5750600482600e81111562000ebc5762000ebc620038fd565b145b8062000ede5750600382600e81111562000edc5762000edc620038fd565b145b1562000ef95762000ef188878762001efd565b905062000da4565b60405162461bcd60e51b815260206004820152601660248201527526b2b9b9b0b3b2aa3cb8329034b9903ab735b737bbb760511b6044820152606401620006bf565b600082815260976020526040812062000f559083620024c9565b9392505050565b60009182526065602090815260408084206001600160a01b0393909316845291905290205460ff1690565b62000fa260008051602062005e6a8339815191523362000f5c565b62000fc15760405162461bcd60e51b8152600401620006bf906200388e565b60cd805460ff60a01b19169055565b60ca546001600160a01b031633148062000ff2575062000ff260003362000f5c565b620010385760405162461bcd60e51b81526020600482015260156024820152742737ba1030baba3437b934bd32b21031b0b63632b960591b6044820152606401620006bf565b600082826040516020016200104f929190620038ed565b60408051601f198184030181529181528151602092830120600081815260ce9093529120549091506001600160a01b0316620010ce5760405162461bcd60e51b815260206004820152601860248201527f546f6b656e204d616e61676572206973206e6f742073657400000000000000006044820152606401620006bf565b600090815260ce6020526040902080546001600160a01b03191690555050565b60008181526097602052604081206200067f90620024d7565b60ca546001600160a01b03163314806200112957506200112960003362000f5c565b6200116f5760405162461bcd60e51b81526020600482015260156024820152742737ba1030baba3437b934bd32b21031b0b63632b960591b6044820152606401620006bf565b6000838360405160200162001186929190620038ed565b60408051601f198184030181529181528151602092830120600081815260ce9093529120549091506001600160a01b031615620012065760405162461bcd60e51b815260206004820152601c60248201527f546f6b656e204d616e6167657220697320616c726561647920736574000000006044820152606401620006bf565b6001600160a01b0382166200125e5760405162461bcd60e51b815260206004820152601f60248201527f496e636f727265637420546f6b656e204d616e616765722061646472657373006044820152606401620006bf565b600090815260ce6020526040902080546001600160a01b0319166001600160a01b03929092169190911790555050565b600082815260656020526040902060010154620012ab81620017d7565b6200076783836200180c565b620012e37ffda70c2cc66a36c14884ee85424961f51b1d92b4494751699b6d105b3bcbcba83362000f5c565b620013315760405162461bcd60e51b815260206004820181905260248201527f544f4b454e5f5245474953545241525f524f4c452069732072657175697265646044820152606401620006bf565b60c954604051634ccd5cd560e11b81526001600160a01b039091169063999ab9aa9062001365908790879060040162003913565b602060405180830381865afa15801562001383573d6000803e3d6000fd5b505050506040513d601f19601f82011682018060405250810190620013a9919062003942565b620013f05760405162461bcd60e51b815260206004820152601660248201527510da185a5b881a5cc81b9bdd0818dbdb9b9958dd195960521b6044820152606401620006bf565b6001600160a01b0381163b620014495760405162461bcd60e51b815260206004820152601f60248201527f476976656e2061646472657373206973206e6f74206120636f6e7472616374006044820152606401620006bf565b806001600160a01b03166318160ddd6040518163ffffffff1660e01b8152600401602060405180830381865afa15801562001488573d6000803e3d6000fd5b505050506040513d601f19601f82011682018060405250810190620014ae919062003966565b15620014fd5760405162461bcd60e51b815260206004820152601760248201527f546f74616c537570706c79206973206e6f74207a65726f0000000000000000006044820152606401620006bf565b6000848460405160200162001514929190620038ed565b60408051601f198184030181529181528151602092830120600081815260d284528281206001600160a01b038881168352945291909120549092501615620015985760405162461bcd60e51b8152602060048201526016602482015275436f756c64206e6f742072656c696e6b20636c6f6e6560501b6044820152606401620006bf565b6001600160a01b038216600090815260d1602052604090205460ff1615620016035760405162461bcd60e51b815260206004820152601760248201527f436c6f6e652077617320616c72656164792061646465640000000000000000006044820152606401620006bf565b600081815260d2602090815260408083206001600160a01b0387811680865291845282852080546001600160a01b031916918816918217905580855260d1909352818420805460ff1916600117905590519192909184917f89b97f12155170c72b8eb3449d5f1ba0c6a29e5546051dc35694313b1b60741f91a45050505050565b6200169160003362000f5c565b620016df5760405162461bcd60e51b815260206004820152601e60248201527f44454641554c545f41444d494e5f524f4c4520697320726571756972656400006044820152606401620006bf565b6001600160a01b038116620017375760405162461bcd60e51b815260206004820181905260248201527f4465706f736974426f7820616464726573732068617320746f206265207365746044820152606401620006bf565b60cd54604080516001600160a01b03928316815291831660208301527fc968af77923193016f61d74ba6827296db5e1f37ec4fab3ad1ef20e193395e59910160405180910390a160cd80546001600160a01b0319166001600160a01b0392909216919091179055565b60006001600160e01b03198216637965db0b60e01b14806200067f57506301ffc9a760e01b6001600160e01b03198316146200067f565b620017e38133620024e2565b50565b620017f2828262002551565b6000828152609760205260409020620007679082620025db565b620018188282620025f2565b60008281526097602052604090206200076790826200265c565b600085815260d2602090815260408083206001600160a01b03808816855292528220541680620018cf57506001600160a01b038416600090815260d16020526040902054849060ff1615620018ca5760405162461bcd60e51b815260206004820152601a60248201527f496e636f7272656374206d61696e20636861696e20746f6b656e0000000000006044820152606401620006bf565b600191505b6001600160a01b0381163b620019285760405162461bcd60e51b815260206004820152601860248201527f4e6f20746f6b656e20636c6f6e65206f6e2073636861696e00000000000000006044820152606401620006bf565b6040516370a0823160e01b815233600482015283906001600160a01b038316906370a0823190602401602060405180830381865afa1580156200196f573d6000803e3d6000fd5b505050506040513d601f19601f8201168201806040525081019062001995919062003966565b1015620019da5760405162461bcd60e51b8152602060048201526012602482015271496e73756666696369656e742066756e647360701b6044820152606401620006bf565b604051636eb1769f60e11b815233600482015230602482015283906001600160a01b0383169063dd62ed3e90604401602060405180830381865afa15801562001a27573d6000803e3d6000fd5b505050506040513d601f19601f8201168201806040525081019062001a4d919062003966565b101562001aae5760405162461bcd60e51b815260206004820152602860248201527f5472616e73666572206973206e6f7420617070726f76656420627920746f6b6560448201526737103437b63232b960c11b6064820152608401620006bf565b600062001abd86868662002673565b9050821562001c36576040518060400160405280600781526020016613585a5b9b995d60ca1b81525060405160200162001af89190620038cf565b60405160208183030381529060405280519060200120880362001b7a5760405162461bcd60e51b815260206004820152603360248201527f4d61696e20636861696e20746f6b656e20636f756c64206e6f74206265207472604482015272185b9cd9995c9959081d1bc813585a5b9b995d606a1b6064820152608401620006bf565b62001b8888833387620026d4565b905062001b9788838662002850565b6040516323b872dd60e01b8152336004820152306024820152604481018590526001600160a01b038316906323b872dd906064016020604051808303816000875af115801562001beb573d6000803e3d6000fd5b505050506040513d601f19601f8201168201806040525081019062001c11919062003942565b62001c305760405162461bcd60e51b8152600401620006bf9062003980565b62001d2c565b6040516323b872dd60e01b8152336004820152306024820152604481018590526001600160a01b038316906323b872dd906064016020604051808303816000875af115801562001c8a573d6000803e3d6000fd5b505050506040513d601f19601f8201168201806040525081019062001cb0919062003942565b62001ccf5760405162461bcd60e51b8152600401620006bf9062003980565b604051630852cd8d60e31b8152600481018590526001600160a01b038316906342966c6890602401600060405180830381600087803b15801562001d1257600080fd5b505af115801562001d27573d6000803e3d6000fd5b505050505b60c954604051634a24490160e11b81526001600160a01b039091169063944892029062001d62908b908b908690600401620039ad565b600060405180830381600087803b15801562001d7d57600080fd5b505af115801562001d92573d6000803e3d6000fd5b505050505050505050505050565b600054610100900460ff1662001e0d5760405162461bcd60e51b815260206004820152602b60248201527f496e697469616c697a61626c653a20636f6e7472616374206973206e6f74206960448201526a6e697469616c697a696e6760a81b6064820152608401620006bf565b565b620007ea8282620017e6565b60006040518060400160405280600781526020016613585a5b9b995d60ca1b81525060405160200162001e4f9190620038cf565b60405160208183030381529060405280519060200120831462001e8f57600083815260ce60205260409020546001600160a01b0383811691161462000f55565b5060cd546001600160a01b03908116911614919050565b60008062001eb7838501856200354f565b905062001ec6602082620039e2565b60000362001eef5762001ee662001ee08483818862003a05565b62001ea6565b9150506200067f565b62001ee68385018562003a46565b60008062001f0c848462001ea6565b9050600080600062001f1f87876200288e565b919450925090506000600285600e81111562001f3f5762001f3f620038fd565b146200229e576000600386600e81111562001f5e5762001f5e620038fd565b0362001fa757600062001f728a8a6200294e565b60209081015160008d815260d2835260408082206001600160a01b03808b168452945290205490911693509150620021119050565b600062001fb58a8a62002a29565b60208082015160008e815260d2835260408082206001600160a01b03808c1684529452902054909116945092509050826200210f5760cd54600160a01b900460ff16620020455760405162461bcd60e51b815260206004820152601c60248201527f4175746f6d61746963206465706c6f792069732064697361626c6564000000006044820152606401620006bf565b806040015160000151816040015160400151604051620020659062003370565b6200207292919062003a64565b604051809103906000f0801580156200208f573d6000803e3d6000fd5b5060008c815260d2602090815260408083206001600160a01b038a811680865291845282852080546001600160a01b031916918716918217905580855260d1909352818420805460ff191660011790559051939650909290918e917f817384d3c8c32b58342425cd864f5540355cc93dfbbfc2df8763793d2d3a5e129190a45b505b6001600160a01b038216600090815260d0602052604090205481146200214d576001600160a01b038216600090815260d0602052604090208190555b600080620021c0846001600160a01b03166318160ddd6040518163ffffffff1660e01b8152600401602060405180830381865afa15801562002193573d6000803e3d6000fd5b505050506040513d601f19601f82011682018060405250810190620021b9919062003966565b8662002b20565b9092509050818015620021eb57506001600160a01b038416600090815260d060205260409020548111155b620022315760405162461bcd60e51b8152602060048201526015602482015274151bdd185b081cdd5c1c1b1e48195e18d959591959605a1b6044820152606401620006bf565b6040516340c10f1960e01b81526001600160a01b038881166004830152602482018790528516906340c10f1990604401600060405180830381600087803b1580156200227c57600080fd5b505af115801562002291573d6000803e3d6000fd5b505050505050506200246d565b6001600160a01b0383163b15158015620022cd5750600089815260d460205260409020620022cd908462002b4b565b6200231b5760405162461bcd60e51b815260206004820152601a60248201527f496e636f7272656374206d61696e20636861696e20746f6b656e0000000000006044820152606401620006bf565b6040516370a0823160e01b815230600482015282906001600160a01b038516906370a0823190602401602060405180830381865afa15801562002362573d6000803e3d6000fd5b505050506040513d601f19601f8201168201806040525081019062002388919062003966565b1015620023cb5760405162461bcd60e51b815260206004820152601060248201526f4e6f7420656e6f756768206d6f6e657960801b6044820152606401620006bf565b620023d889848462002b6e565b60405163a9059cbb60e01b81526001600160a01b0385811660048301526024820184905284169063a9059cbb906044016020604051808303816000875af115801562002428573d6000803e3d6000fd5b505050506040513d601f19601f820116820180604052508101906200244e919062003942565b6200246d5760405162461bcd60e51b8152600401620006bf9062003980565b806001600160a01b0316836001600160a01b03168a7f131b32ac87206ff25b3250e2d194c4cc6d63e928ab212dbd294b03b49af27b4885604051620024b491815260200190565b60405180910390a45091979650505050505050565b600062000f55838362002ba2565b60006200067f825490565b620024ee828262000f5c565b620007ea5762002509816001600160a01b0316601462002bcf565b6200251683602062002bcf565b6040516020016200252992919062003a8d565b60408051601f198184030181529082905262461bcd60e51b8252620006bf9160040162003699565b6200255d828262000f5c565b620007ea5760008281526065602090815260408083206001600160a01b03851684529091529020805460ff19166001179055620025973390565b6001600160a01b0316816001600160a01b0316837f2f8788117e7eff1d82e926ec794901d17c78024a50270940304540a733656f0d60405160405180910390a45050565b600062000f55836001600160a01b03841662002d88565b620025fe828262000f5c565b15620007ea5760008281526065602090815260408083206001600160a01b0385168085529252808320805460ff1916905551339285917ff6391f5c32d9c69d2a47ea670b442974b53935d1edc7fd64eb21e047a839171b9190a45050565b600062000f55836001600160a01b03841662002dda565b6040805160a08101825260026080820190815281526001600160a01b038086166020808401919091529085168284015260608083018590529251620026bb9183910162003b5a565b6040516020818303038152906040529150509392505050565b606060008490506000816001600160a01b03166318160ddd6040518163ffffffff1660e01b8152600401602060405180830381865afa1580156200271c573d6000803e3d6000fd5b505050506040513d601f19601f8201168201806040525081019062002742919062003966565b9050808411156200278c5760405162461bcd60e51b8152602060048201526013602482015272105b5bdd5b9d081a5cc81a5b98dbdc9c9958dd606a1b6044820152606401620006bf565b600087815260d460205260408120620027a6908862002b4b565b905080620027e557620027ba888862002ede565b620027dd878787620027cc8762002ff7565b620027d7886200305e565b620031d1565b935062002800565b620027fd878787620027f78762002ff7565b62003249565b93505b866001600160a01b0316887f759c7e29aa34dec4bb9f3af86e647e11cffa0fee371049fd55e8779a2c24484e876040516200283d91815260200190565b60405180910390a3505050949350505050565b600083815260d3602090815260408083206001600160a01b0386168452909152812080548392906200288490849062003b80565b9091555050505050565b600080600080620028a0868662001ea6565b9050600281600e811115620028b957620028b9620038fd565b03620028ec576000620028cd8787620032bc565b9050806040015181602001518260600151945094509450505062002947565b600381600e811115620029035762002903620038fd565b03620029395760006200291787876200294e565b5160408101516020820151606090920151909650909450925062002947915050565b600062002917878762002a29565b9250925092565b6200298e6040805160e081018252600060c08201818152928201928352606082018190526080820181905260a08201529081908152602001600081525090565b60036200299c848462001ea6565b600e811115620029b057620029b0620038fd565b1462002a1b5760405162461bcd60e51b815260206004820152603360248201527f4d6573736167652074797065206973206e6f74204552433230207472616e7366604482015272657220616e6420746f74616c20737570706c7960681b6064820152608401620006bf565b62000f558284018462003c59565b62002a866040805161010081018252600060e0820181815260608084019182526080840183905260a0840183905260c084018390529083526020808401839052845180830186528281529081019290925281840152909182015290565b600462002a94848462001ea6565b600e81111562002aa85762002aa8620038fd565b1462002b125760405162461bcd60e51b815260206004820152603260248201527f4d6573736167652074797065206973206e6f74204552433230207472616e73666044820152716572207769746820746f6b656e20696e666f60701b6064820152608401620006bf565b62000f558284018462003cc4565b6000808383018481101562002b3d57600080925092505062002b44565b6001925090505b9250929050565b6001600160a01b0381166000908152600183016020526040812054151562000f55565b600083815260d3602090815260408083206001600160a01b0386168452909152812080548392906200288490849062003dc9565b600082600001828154811062002bbc5762002bbc62003ddf565b9060005260206000200154905092915050565b6060600062002be083600262003df5565b62002bed90600262003b80565b6001600160401b0381111562002c075762002c07620033aa565b6040519080825280601f01601f19166020018201604052801562002c32576020820181803683370190505b509050600360fc1b8160008151811062002c505762002c5062003ddf565b60200101906001600160f81b031916908160001a905350600f60fb1b8160018151811062002c825762002c8262003ddf565b60200101906001600160f81b031916908160001a905350600062002ca884600262003df5565b62002cb590600162003b80565b90505b600181111562002d37576f181899199a1a9b1b9c1cb0b131b232b360811b85600f166010811062002ced5762002ced62003ddf565b1a60f81b82828151811062002d065762002d0662003ddf565b60200101906001600160f81b031916908160001a90535060049490941c9362002d2f8162003e17565b905062002cb8565b50831562000f555760405162461bcd60e51b815260206004820181905260248201527f537472696e67733a20686578206c656e67746820696e73756666696369656e746044820152606401620006bf565b600081815260018301602052604081205462002dd1575081546001818101845560008481526020808220909301849055845484825282860190935260409020919091556200067f565b5060006200067f565b6000818152600183016020526040812054801562002ed357600062002e0160018362003dc9565b855490915060009062002e179060019062003dc9565b905081811462002e8357600086600001828154811062002e3b5762002e3b62003ddf565b906000526020600020015490508087600001848154811062002e615762002e6162003ddf565b6000918252602080832090910192909255918252600188019052604090208390555b855486908062002e975762002e9762003e31565b6001900381819060005260206000200160009055905585600101600086815260200190815260200160002060009055600193505050506200067f565b60009150506200067f565b6001600160a01b0381163b62002f375760405162461bcd60e51b815260206004820152601f60248201527f476976656e2061646472657373206973206e6f74206120636f6e7472616374006044820152606401620006bf565b600082815260d46020526040902062002f51908262002b4b565b1562002fa05760405162461bcd60e51b815260206004820152601d60248201527f455243323020546f6b656e2077617320616c72656164792061646465640000006044820152606401620006bf565b600082815260d46020526040902062002fba9082620025db565b506040516000906001600160a01b0383169084907f89b97f12155170c72b8eb3449d5f1ba0c6a29e5546051dc35694313b1b60741f908490a45050565b6000816001600160a01b03166318160ddd6040518163ffffffff1660e01b8152600401602060405180830381865afa15801562003038573d6000803e3d6000fd5b505050506040513d601f19601f820116820180604052508101906200067f919062003966565b604080516060808201835280825260006020830152918101919091526040518060600160405280836001600160a01b03166306fdde036040518163ffffffff1660e01b8152600401600060405180830381865afa158015620030c4573d6000803e3d6000fd5b505050506040513d6000823e601f3d908101601f19168201604052620030ee919081019062003e47565b8152602001836001600160a01b031663313ce5676040518163ffffffff1660e01b8152600401602060405180830381865afa15801562003132573d6000803e3d6000fd5b505050506040513d601f19601f8201168201806040525081019062003158919062003ebd565b60ff168152602001836001600160a01b03166395d89b416040518163ffffffff1660e01b8152600401600060405180830381865afa1580156200319f573d6000803e3d6000fd5b505050506040513d6000823e601f3d908101601f19168201604052620031c9919081019062003e47565b905292915050565b6040805161010081018252600460e0820190815260608083019182526001600160a01b03808a166080850152881660a084015260c083018790529082526020808301869052828401859052925190926200322e9183910162003edd565b60405160208183030381529060405291505095945050505050565b6040805160e081018252600360c082019081528183019081526001600160a01b03808816606080850191909152908716608084015260a08301869052908252602080830185905292519092620032a29183910162003f51565b604051602081830303815290604052915050949350505050565b6040805160a08101825260006080820181815282526020820181905291810182905260608101919091526002620032f4848462001ea6565b600e811115620033085762003308620038fd565b14620033625760405162461bcd60e51b815260206004820152602260248201527f4d6573736167652074797065206973206e6f74204552433230207472616e736660448201526132b960f11b6064820152608401620006bf565b62000f558284018462003f76565b611ed48062003f9683390190565b6000602082840312156200339157600080fd5b81356001600160e01b03198116811462000f5557600080fd5b634e487b7160e01b600052604160045260246000fd5b604051606081016001600160401b0381118282101715620033e557620033e5620033aa565b60405290565b604051601f8201601f191681016001600160401b0381118282101715620034165762003416620033aa565b604052919050565b60006001600160401b038211156200343a576200343a620033aa565b50601f01601f191660200190565b600082601f8301126200345a57600080fd5b8135620034716200346b826200341e565b620033eb565b8181528460208386010111156200348757600080fd5b816020850160208301376000918101602001919091529392505050565b6001600160a01b0381168114620017e357600080fd5b600080600080600060a08688031215620034d357600080fd5b85356001600160401b03811115620034ea57600080fd5b620034f88882890162003448565b95505060208601356200350b81620034a4565b935060408601356200351d81620034a4565b925060608601356200352f81620034a4565b915060808601356200354181620034a4565b809150509295509295909350565b6000602082840312156200356257600080fd5b5035919050565b600080604083850312156200357d57600080fd5b8235915060208301356200359181620034a4565b809150509250929050565b60008083601f840112620035af57600080fd5b5081356001600160401b03811115620035c757600080fd5b60208301915083602082850101111562002b4457600080fd5b60008060208385031215620035f457600080fd5b82356001600160401b038111156200360b57600080fd5b62003619858286016200359c565b90969095509350505050565b6000602082840312156200363857600080fd5b813562000f5581620034a4565b60005b838110156200366257818101518382015260200162003648565b50506000910152565b600081518084526200368581602086016020860162003645565b601f01601f19169290920160200192915050565b60208152600062000f5560208301846200366b565b60008060408385031215620036c257600080fd5b8235620036cf81620034a4565b946020939093013593505050565b60008060008060608587031215620036f457600080fd5b84356001600160401b038111156200370b57600080fd5b62003719878288016200359c565b90955093505060208501356200372f81620034a4565b9396929550929360400135925050565b600080600080606085870312156200375657600080fd5b8435935060208501356200376a81620034a4565b925060408501356001600160401b038111156200378657600080fd5b62003794878288016200359c565b95989497509550505050565b60008060408385031215620037b457600080fd5b50508035926020909101359150565b600080600060408486031215620037d957600080fd5b83356001600160401b03811115620037f057600080fd5b620037fe868287016200359c565b90945092505060208401356200381481620034a4565b809150509250925092565b600080600080606085870312156200383657600080fd5b84356001600160401b038111156200384d57600080fd5b6200385b878288016200359c565b90955093505060208501356200387181620034a4565b915060408501356200388381620034a4565b939692955090935050565b60208082526021908201527f4155544f4d415449435f4445504c4f595f524f4c4520697320726571756972656040820152601960fa1b606082015260800190565b60008251620038e381846020870162003645565b9190910192915050565b8183823760009101908152919050565b634e487b7160e01b600052602160045260246000fd5b60208152816020820152818360408301376000818301604090810191909152601f909201601f19160101919050565b6000602082840312156200395557600080fd5b8151801515811462000f5557600080fd5b6000602082840312156200397957600080fd5b5051919050565b602080825260139082015272151c985b9cd9995c881dd85cc819985a5b1959606a1b604082015260600190565b8381526001600160a01b0383166020820152606060408201819052600090620039d9908301846200366b565b95945050505050565b60008262003a0057634e487b7160e01b600052601260045260246000fd5b500690565b6000808585111562003a1657600080fd5b8386111562003a2457600080fd5b5050820193919092039150565b8035600f811062003a4157600080fd5b919050565b60006020828403121562003a5957600080fd5b62000f558262003a31565b60408152600062003a7960408301856200366b565b8281036020840152620039d981856200366b565b7f416363657373436f6e74726f6c3a206163636f756e742000000000000000000081526000835162003ac781601785016020880162003645565b7001034b99036b4b9b9b4b733903937b6329607d1b601791840191820152835162003afa81602884016020880162003645565b01602801949350505050565b805151600f811062003b2857634e487b7160e01b600052602160045260246000fd5b82526020818101516001600160a01b039081169184019190915260408083015190911690830152606090810151910152565b608081016200067f828462003b06565b634e487b7160e01b600052601160045260246000fd5b808201808211156200067f576200067f62003b6a565b6000818303608081121562003baa57600080fd5b604051608081016001600160401b03828210818311171562003bd05762003bd0620033aa565b81604052829450602084121562003be657600080fd5b60a083019350818410818511171562003c035762003c03620033aa565b508260405262003c138562003a31565b815281526020840135915062003c2982620034a4565b8160208201526040840135915062003c4182620034a4565b81604082015260608401356060820152505092915050565b600060a0828403121562003c6c57600080fd5b604051604081018181106001600160401b038211171562003c915762003c91620033aa565b60405262003ca0848462003b96565b815260809290920135602083015250919050565b60ff81168114620017e357600080fd5b60006020828403121562003cd757600080fd5b81356001600160401b038082111562003cef57600080fd5b9083019060c0828603121562003d0457600080fd5b62003d0e620033c0565b62003d1a868462003b96565b81526080830135602082015260a08301358281111562003d3957600080fd5b92909201916060838703121562003d4f57600080fd5b62003d59620033c0565b83358381111562003d6957600080fd5b62003d778882870162003448565b825250602084013562003d8a8162003cb4565b602082015260408401358381111562003da257600080fd5b62003db08882870162003448565b6040830152508060408301525080935050505092915050565b818103818111156200067f576200067f62003b6a565b634e487b7160e01b600052603260045260246000fd5b600081600019048311821515161562003e125762003e1262003b6a565b500290565b60008162003e295762003e2962003b6a565b506000190190565b634e487b7160e01b600052603160045260246000fd5b60006020828403121562003e5a57600080fd5b81516001600160401b0381111562003e7157600080fd5b8201601f8101841362003e8357600080fd5b805162003e946200346b826200341e565b81815285602083850101111562003eaa57600080fd5b620039d982602083016020860162003645565b60006020828403121562003ed057600080fd5b815162000f558162003cb4565b6020815262003ef160208201835162003b06565b602082015160a08201526000604083015160c0808401528051606060e085015262003f216101408501826200366b565b602083015160ff1661010086015260409092015184830360df1901610120860152919050620039d981836200366b565b600060a08201905062003f6682845162003b06565b6020830151608083015292915050565b60006080828403121562003f8957600080fd5b62000f55838362003b9656fe60806040523480156200001157600080fd5b5060405162001ed438038062001ed48339810160408190526200003491620005a0565b600054610100900460ff1615808015620000555750600054600160ff909116105b806200008557506200007230620001d960201b620007211760201c565b15801562000085575060005460ff166001145b620000ee5760405162461bcd60e51b815260206004820152602e60248201527f496e697469616c697a61626c653a20636f6e747261637420697320616c72656160448201526d191e481a5b9a5d1a585b1a5e995960921b60648201526084015b60405180910390fd5b6000805460ff19166001179055801562000112576000805461ff0019166101001790555b62000127620001e860201b620007301760201c565b6200013e83836200024660201b620007591760201c565b62000153620001e860201b620007301760201c565b6200016e60008051602062001eb483398151915280620002b2565b6200018960008051602062001eb483398151915233620002fd565b8015620001d0576000805461ff0019169055604051600181527f7f26b83ff96e1f2b6a682f133852f6798a09c465da95921460cefb38474024989060200160405180910390a15b50505062000764565b6001600160a01b03163b151590565b600054610100900460ff16620002445760405162461bcd60e51b815260206004820152602b602482015260008051602062001e9483398151915260448201526a6e697469616c697a696e6760a81b6064820152608401620000e5565b565b600054610100900460ff16620002a25760405162461bcd60e51b815260206004820152602b602482015260008051602062001e9483398151915260448201526a6e697469616c697a696e6760a81b6064820152608401620000e5565b620002ae828262000309565b5050565b600082815260656020526040808220600101805490849055905190918391839186917fbd79b86ffe0ab8e8776151514217cd7cacd52c909f66475c3af44e129f0b00ff9190a4505050565b620002ae828262000387565b600054610100900460ff16620003655760405162461bcd60e51b815260206004820152602b602482015260008051602062001e9483398151915260448201526a6e697469616c697a696e6760a81b6064820152608401620000e5565b60cc62000373838262000698565b5060cd62000382828262000698565b505050565b6200039e8282620003c560201b6200078a1760201c565b6000828152609760209081526040909120620003829183906200081062000469821b17901c565b60008281526065602090815260408083206001600160a01b038516845290915290205460ff16620002ae5760008281526065602090815260408083206001600160a01b03851684529091529020805460ff19166001179055620004253390565b6001600160a01b0316816001600160a01b0316837f2f8788117e7eff1d82e926ec794901d17c78024a50270940304540a733656f0d60405160405180910390a45050565b600062000480836001600160a01b03841662000489565b90505b92915050565b6000818152600183016020526040812054620004d25750815460018181018455600084815260208082209093018490558454848252828601909352604090209190915562000483565b50600062000483565b634e487b7160e01b600052604160045260246000fd5b600082601f8301126200050357600080fd5b81516001600160401b0380821115620005205762000520620004db565b604051601f8301601f19908116603f011681019082821181831017156200054b576200054b620004db565b816040528381526020925086838588010111156200056857600080fd5b600091505b838210156200058c57858201830151818301840152908201906200056d565b600093810190920192909252949350505050565b60008060408385031215620005b457600080fd5b82516001600160401b0380821115620005cc57600080fd5b620005da86838701620004f1565b93506020850151915080821115620005f157600080fd5b506200060085828601620004f1565b9150509250929050565b600181811c908216806200061f57607f821691505b6020821081036200064057634e487b7160e01b600052602260045260246000fd5b50919050565b601f8211156200038257600081815260208120601f850160051c810160208610156200066f5750805b601f850160051c820191505b8181101562000690578281556001016200067b565b505050505050565b81516001600160401b03811115620006b457620006b4620004db565b620006cc81620006c584546200060a565b8462000646565b602080601f831160018114620007045760008415620006eb5750858301515b600019600386901b1c1916600185901b17855562000690565b600085815260208120601f198616915b82811015620007355788860151825594840194600190910190840162000714565b5085821015620007545787850151600019600388901b60f8161c191681555b5050505050600190811b01905550565b61172080620007746000396000f3fe608060405234801561001057600080fd5b50600436106101585760003560e01c806370a08231116100c3578063a457c2d71161007c578063a457c2d7146102ef578063a9059cbb14610302578063ca15c87314610315578063d539139314610328578063d547741f1461034f578063dd62ed3e1461036257600080fd5b806370a082311461026557806379cc67901461028e5780639010d07c146102a157806391d14854146102cc57806395d89b41146102df578063a217fddf146102e757600080fd5b80632f2ff15d116101155780632f2ff15d146101f5578063313ce5671461020a57806336568abe14610219578063395093511461022c57806340c10f191461023f57806342966c681461025257600080fd5b806301ffc9a71461015d57806306fdde0314610185578063095ea7b31461019a57806318160ddd146101ad57806323b872dd146101bf578063248a9ca3146101d2575b600080fd5b61017061016b36600461127f565b610375565b60405190151581526020015b60405180910390f35b61018d6103a0565b60405161017c91906112cd565b6101706101a836600461131c565b610432565b60cb545b60405190815260200161017c565b6101706101cd366004611346565b61044a565b6101b16101e0366004611382565b60009081526065602052604090206001015490565b61020861020336600461139b565b61046e565b005b6040516012815260200161017c565b61020861022736600461139b565b610498565b61017061023a36600461131c565b61051b565b61020861024d36600461131c565b61053d565b610208610260366004611382565b6105b6565b6101b16102733660046113c7565b6001600160a01b0316600090815260c9602052604090205490565b61020861029c36600461131c565b6105c3565b6102b46102af3660046113e2565b6105d8565b6040516001600160a01b03909116815260200161017c565b6101706102da36600461139b565b6105f7565b61018d610622565b6101b1600081565b6101706102fd36600461131c565b610631565b61017061031036600461131c565b6106ac565b6101b1610323366004611382565b6106ba565b6101b17f9f2df0fed2c77648de5860a4cc508cd0818c85b8b8a1ab4ceeef8d981c8956a681565b61020861035d36600461139b565b6106d1565b6101b1610370366004611404565b6106f6565b60006001600160e01b03198216635a05180f60e01b148061039a575061039a82610825565b92915050565b606060cc80546103af9061142e565b80601f01602080910402602001604051908101604052809291908181526020018280546103db9061142e565b80156104285780601f106103fd57610100808354040283529160200191610428565b820191906000526020600020905b81548152906001019060200180831161040b57829003601f168201915b5050505050905090565b60003361044081858561085a565b5060019392505050565b60003361045885828561097e565b6104638585856109f8565b506001949350505050565b60008281526065602052604090206001015461048981610bc6565b6104938383610bd0565b505050565b6001600160a01b038116331461050d5760405162461bcd60e51b815260206004820152602f60248201527f416363657373436f6e74726f6c3a2063616e206f6e6c792072656e6f756e636560448201526e103937b632b9903337b91039b2b63360891b60648201526084015b60405180910390fd5b6105178282610bf2565b5050565b60003361044081858561052e83836106f6565b610538919061147e565b61085a565b6105677f9f2df0fed2c77648de5860a4cc508cd0818c85b8b8a1ab4ceeef8d981c8956a6336105f7565b6105ac5760405162461bcd60e51b815260206004820152601660248201527529b2b73232b91034b9903737ba10309026b4b73a32b960511b6044820152606401610504565b6105178282610c14565b6105c03382610cf3565b50565b6105ce82338361097e565b6105178282610cf3565b60008281526097602052604081206105f09083610e41565b9392505050565b60009182526065602090815260408084206001600160a01b0393909316845291905290205460ff1690565b606060cd80546103af9061142e565b6000338161063f82866106f6565b90508381101561069f5760405162461bcd60e51b815260206004820152602560248201527f45524332303a2064656372656173656420616c6c6f77616e63652062656c6f77604482015264207a65726f60d81b6064820152608401610504565b610463828686840361085a565b6000336104408185856109f8565b600081815260976020526040812061039a90610e4d565b6000828152606560205260409020600101546106ec81610bc6565b6104938383610bf2565b6001600160a01b03918216600090815260ca6020908152604080832093909416825291909152205490565b6001600160a01b03163b151590565b600054610100900460ff166107575760405162461bcd60e51b815260040161050490611491565b565b600054610100900460ff166107805760405162461bcd60e51b815260040161050490611491565b6105178282610e57565b61079482826105f7565b6105175760008281526065602090815260408083206001600160a01b03851684529091529020805460ff191660011790556107cc3390565b6001600160a01b0316816001600160a01b0316837f2f8788117e7eff1d82e926ec794901d17c78024a50270940304540a733656f0d60405160405180910390a45050565b60006105f0836001600160a01b038416610e97565b60006001600160e01b03198216637965db0b60e01b148061039a57506301ffc9a760e01b6001600160e01b031983161461039a565b6001600160a01b0383166108bc5760405162461bcd60e51b8152602060048201526024808201527f45524332303a20617070726f76652066726f6d20746865207a65726f206164646044820152637265737360e01b6064820152608401610504565b6001600160a01b03821661091d5760405162461bcd60e51b815260206004820152602260248201527f45524332303a20617070726f766520746f20746865207a65726f206164647265604482015261737360f01b6064820152608401610504565b6001600160a01b03838116600081815260ca602090815260408083209487168084529482529182902085905590518481527f8c5be1e5ebec7d5bd14f71427d1e84f3dd0314c0f7b2291e5b200ac8c7c3b925910160405180910390a3505050565b600061098a84846106f6565b905060001981146109f257818110156109e55760405162461bcd60e51b815260206004820152601d60248201527f45524332303a20696e73756666696369656e7420616c6c6f77616e63650000006044820152606401610504565b6109f2848484840361085a565b50505050565b6001600160a01b038316610a5c5760405162461bcd60e51b815260206004820152602560248201527f45524332303a207472616e736665722066726f6d20746865207a65726f206164604482015264647265737360d81b6064820152608401610504565b6001600160a01b038216610abe5760405162461bcd60e51b815260206004820152602360248201527f45524332303a207472616e7366657220746f20746865207a65726f206164647260448201526265737360e81b6064820152608401610504565b6001600160a01b038316600090815260c9602052604090205481811015610b365760405162461bcd60e51b815260206004820152602660248201527f45524332303a207472616e7366657220616d6f756e7420657863656564732062604482015265616c616e636560d01b6064820152608401610504565b6001600160a01b03808516600090815260c96020526040808220858503905591851681529081208054849290610b6d90849061147e565b92505081905550826001600160a01b0316846001600160a01b03167fddf252ad1be2c89b69c2b068fc378daa952ba7f163c4a11628f55a4df523b3ef84604051610bb991815260200190565b60405180910390a36109f2565b6105c08133610ee6565b610bda828261078a565b60008281526097602052604090206104939082610810565b610bfc8282610f4a565b60008281526097602052604090206104939082610fb1565b6001600160a01b038216610c6a5760405162461bcd60e51b815260206004820152601f60248201527f45524332303a206d696e7420746f20746865207a65726f2061646472657373006044820152606401610504565b8060cb6000828254610c7c919061147e565b90915550506001600160a01b038216600090815260c9602052604081208054839290610ca990849061147e565b90915550506040518181526001600160a01b038316906000907fddf252ad1be2c89b69c2b068fc378daa952ba7f163c4a11628f55a4df523b3ef9060200160405180910390a35050565b6001600160a01b038216610d535760405162461bcd60e51b815260206004820152602160248201527f45524332303a206275726e2066726f6d20746865207a65726f206164647265736044820152607360f81b6064820152608401610504565b6001600160a01b038216600090815260c9602052604090205481811015610dc75760405162461bcd60e51b815260206004820152602260248201527f45524332303a206275726e20616d6f756e7420657863656564732062616c616e604482015261636560f01b6064820152608401610504565b6001600160a01b038316600090815260c960205260408120838303905560cb8054849290610df69084906114dc565b90915550506040518281526000906001600160a01b038516907fddf252ad1be2c89b69c2b068fc378daa952ba7f163c4a11628f55a4df523b3ef9060200160405180910390a3505050565b60006105f08383610fc6565b600061039a825490565b600054610100900460ff16610e7e5760405162461bcd60e51b815260040161050490611491565b60cc610e8a8382611553565b5060cd6104938282611553565b6000818152600183016020526040812054610ede5750815460018181018455600084815260208082209093018490558454848252828601909352604090209190915561039a565b50600061039a565b610ef082826105f7565b61051757610f08816001600160a01b03166014610ff0565b610f13836020610ff0565b604051602001610f24929190611613565b60408051601f198184030181529082905262461bcd60e51b8252610504916004016112cd565b610f5482826105f7565b156105175760008281526065602090815260408083206001600160a01b0385168085529252808320805460ff1916905551339285917ff6391f5c32d9c69d2a47ea670b442974b53935d1edc7fd64eb21e047a839171b9190a45050565b60006105f0836001600160a01b03841661118c565b6000826000018281548110610fdd57610fdd611688565b9060005260206000200154905092915050565b60606000610fff83600261169e565b61100a90600261147e565b67ffffffffffffffff811115611022576110226114ef565b6040519080825280601f01601f19166020018201604052801561104c576020820181803683370190505b509050600360fc1b8160008151811061106757611067611688565b60200101906001600160f81b031916908160001a905350600f60fb1b8160018151811061109657611096611688565b60200101906001600160f81b031916908160001a90535060006110ba84600261169e565b6110c590600161147e565b90505b600181111561113d576f181899199a1a9b1b9c1cb0b131b232b360811b85600f16601081106110f9576110f9611688565b1a60f81b82828151811061110f5761110f611688565b60200101906001600160f81b031916908160001a90535060049490941c93611136816116bd565b90506110c8565b5083156105f05760405162461bcd60e51b815260206004820181905260248201527f537472696e67733a20686578206c656e67746820696e73756666696369656e746044820152606401610504565b600081815260018301602052604081205480156112755760006111b06001836114dc565b85549091506000906111c4906001906114dc565b90508181146112295760008660000182815481106111e4576111e4611688565b906000526020600020015490508087600001848154811061120757611207611688565b6000918252602080832090910192909255918252600188019052604090208390555b855486908061123a5761123a6116d4565b60019003818190600052602060002001600090559055856001016000868152602001908152602001600020600090556001935050505061039a565b600091505061039a565b60006020828403121561129157600080fd5b81356001600160e01b0319811681146105f057600080fd5b60005b838110156112c45781810151838201526020016112ac565b50506000910152565b60208152600082518060208401526112ec8160408501602087016112a9565b601f01601f19169190910160400192915050565b80356001600160a01b038116811461131757600080fd5b919050565b6000806040838503121561132f57600080fd5b61133883611300565b946020939093013593505050565b60008060006060848603121561135b57600080fd5b61136484611300565b925061137260208501611300565b9150604084013590509250925092565b60006020828403121561139457600080fd5b5035919050565b600080604083850312156113ae57600080fd5b823591506113be60208401611300565b90509250929050565b6000602082840312156113d957600080fd5b6105f082611300565b600080604083850312156113f557600080fd5b50508035926020909101359150565b6000806040838503121561141757600080fd5b61142083611300565b91506113be60208401611300565b600181811c9082168061144257607f821691505b60208210810361146257634e487b7160e01b600052602260045260246000fd5b50919050565b634e487b7160e01b600052601160045260246000fd5b8082018082111561039a5761039a611468565b6020808252602b908201527f496e697469616c697a61626c653a20636f6e7472616374206973206e6f74206960408201526a6e697469616c697a696e6760a81b606082015260800190565b8181038181111561039a5761039a611468565b634e487b7160e01b600052604160045260246000fd5b601f82111561049357600081815260208120601f850160051c8101602086101561152c5750805b601f850160051c820191505b8181101561154b57828155600101611538565b505050505050565b815167ffffffffffffffff81111561156d5761156d6114ef565b6115818161157b845461142e565b84611505565b602080601f8311600181146115b6576000841561159e5750858301515b600019600386901b1c1916600185901b17855561154b565b600085815260208120601f198616915b828110156115e5578886015182559484019460019091019084016115c6565b50858210156116035787850151600019600388901b60f8161c191681555b5050505050600190811b01905550565b7f416363657373436f6e74726f6c3a206163636f756e742000000000000000000081526000835161164b8160178501602088016112a9565b7001034b99036b4b9b9b4b733903937b6329607d1b601791840191820152835161167c8160288401602088016112a9565b01602801949350505050565b634e487b7160e01b600052603260045260246000fd5b60008160001904831182151516156116b8576116b8611468565b500290565b6000816116cc576116cc611468565b506000190190565b634e487b7160e01b600052603160045260246000fdfea26469706673582212202f9e9a6091230d31a1843f8d7bfacf836c46ab8210847934d487741528853dc964736f6c63430008100033496e697469616c697a61626c653a20636f6e7472616374206973206e6f7420699f2df0fed2c77648de5860a4cc508cd0818c85b8b8a1ab4ceeef8d981c8956a67164765a3c8bd2513bdfa0c90f1bee9606e920fbf2c9071f310263fbd818684ba2646970667358221220df2d1340e99c90351512158dc4e1f2060e03006a0b8b60b8f61eebb9df9cd30d64736f6c63430008100033",
  "linkReferences": {},
  "deployedLinkReferences": {}
}